{
  "address": "0x66fF7f6Fa24A73fFe916071FF8FDac0C6A2118dd",
  "abi": [
    {
      "inputs": [
        {
          "internalType": "string",
          "name": "_name",
          "type": "string"
        },
        {
          "internalType": "string",
          "name": "_symbol",
          "type": "string"
        },
        {
          "internalType": "address",
          "name": "_lzEndpoint",
          "type": "address"
        },
        {
          "internalType": "address",
          "name": "_delegate",
          "type": "address"
        },
        {
          "internalType": "string",
          "name": "initialBaseURI",
          "type": "string"
        }
      ],
      "stateMutability": "nonpayable",
      "type": "constructor"
    },
    {
      "inputs": [
        {
          "internalType": "uint256",
          "name": "numerator",
          "type": "uint256"
        },
        {
          "internalType": "uint256",
          "name": "denominator",
          "type": "uint256"
        }
      ],
      "name": "ERC2981InvalidDefaultRoyalty",
      "type": "error"
    },
    {
      "inputs": [
        {
          "internalType": "address",
          "name": "receiver",
          "type": "address"
        }
      ],
      "name": "ERC2981InvalidDefaultRoyaltyReceiver",
      "type": "error"
    },
    {
      "inputs": [
        {
          "internalType": "uint256",
          "name": "tokenId",
          "type": "uint256"
        },
        {
          "internalType": "uint256",
          "name": "numerator",
          "type": "uint256"
        },
        {
          "internalType": "uint256",
          "name": "denominator",
          "type": "uint256"
        }
      ],
      "name": "ERC2981InvalidTokenRoyalty",
      "type": "error"
    },
    {
      "inputs": [
        {
          "internalType": "uint256",
          "name": "tokenId",
          "type": "uint256"
        },
        {
          "internalType": "address",
          "name": "receiver",
          "type": "address"
        }
      ],
      "name": "ERC2981InvalidTokenRoyaltyReceiver",
      "type": "error"
    },
    {
      "inputs": [
        {
          "internalType": "address",
          "name": "sender",
          "type": "address"
        },
        {
          "internalType": "uint256",
          "name": "tokenId",
          "type": "uint256"
        },
        {
          "internalType": "address",
          "name": "owner",
          "type": "address"
        }
      ],
      "name": "ERC721IncorrectOwner",
      "type": "error"
    },
    {
      "inputs": [
        {
          "internalType": "address",
          "name": "operator",
          "type": "address"
        },
        {
          "internalType": "uint256",
          "name": "tokenId",
          "type": "uint256"
        }
      ],
      "name": "ERC721InsufficientApproval",
      "type": "error"
    },
    {
      "inputs": [
        {
          "internalType": "address",
          "name": "approver",
          "type": "address"
        }
      ],
      "name": "ERC721InvalidApprover",
      "type": "error"
    },
    {
      "inputs": [
        {
          "internalType": "address",
          "name": "operator",
          "type": "address"
        }
      ],
      "name": "ERC721InvalidOperator",
      "type": "error"
    },
    {
      "inputs": [
        {
          "internalType": "address",
          "name": "owner",
          "type": "address"
        }
      ],
      "name": "ERC721InvalidOwner",
      "type": "error"
    },
    {
      "inputs": [
        {
          "internalType": "address",
          "name": "receiver",
          "type": "address"
        }
      ],
      "name": "ERC721InvalidReceiver",
      "type": "error"
    },
    {
      "inputs": [
        {
          "internalType": "address",
          "name": "sender",
          "type": "address"
        }
      ],
      "name": "ERC721InvalidSender",
      "type": "error"
    },
    {
      "inputs": [
        {
          "internalType": "uint256",
          "name": "tokenId",
          "type": "uint256"
        }
      ],
      "name": "ERC721NonexistentToken",
      "type": "error"
    },
    {
      "inputs": [],
      "name": "EnforcedPause",
      "type": "error"
    },
    {
      "inputs": [],
      "name": "ExpectedPause",
      "type": "error"
    },
    {
      "inputs": [],
      "name": "InvalidDelegate",
      "type": "error"
    },
    {
      "inputs": [],
      "name": "InvalidEndpointCall",
      "type": "error"
    },
    {
      "inputs": [
        {
          "internalType": "bytes",
          "name": "options",
          "type": "bytes"
        }
      ],
      "name": "InvalidOptions",
      "type": "error"
    },
    {
      "inputs": [],
      "name": "InvalidReceiver",
      "type": "error"
    },
    {
      "inputs": [],
      "name": "LzTokenUnavailable",
      "type": "error"
    },
    {
      "inputs": [
        {
          "internalType": "uint32",
          "name": "eid",
          "type": "uint32"
        }
      ],
      "name": "NoPeer",
      "type": "error"
    },
    {
      "inputs": [
        {
          "internalType": "uint256",
          "name": "msgValue",
          "type": "uint256"
        }
      ],
      "name": "NotEnoughNative",
      "type": "error"
    },
    {
      "inputs": [
        {
          "internalType": "address",
          "name": "addr",
          "type": "address"
        }
      ],
      "name": "OnlyEndpoint",
      "type": "error"
    },
    {
      "inputs": [
        {
          "internalType": "address",
          "name": "caller",
          "type": "address"
        },
        {
          "internalType": "address",
          "name": "owner",
          "type": "address"
        }
      ],
      "name": "OnlyNFTOwner",
      "type": "error"
    },
    {
      "inputs": [
        {
          "internalType": "uint32",
          "name": "eid",
          "type": "uint32"
        },
        {
          "internalType": "bytes32",
          "name": "sender",
          "type": "bytes32"
        }
      ],
      "name": "OnlyPeer",
      "type": "error"
    },
    {
      "inputs": [],
      "name": "OnlySelf",
      "type": "error"
    },
    {
      "inputs": [
        {
          "internalType": "address",
          "name": "owner",
          "type": "address"
        }
      ],
      "name": "OwnableInvalidOwner",
      "type": "error"
    },
    {
      "inputs": [
        {
          "internalType": "address",
          "name": "account",
          "type": "address"
        }
      ],
      "name": "OwnableUnauthorizedAccount",
      "type": "error"
    },
    {
      "inputs": [
        {
          "internalType": "address",
          "name": "token",
          "type": "address"
        }
      ],
      "name": "SafeERC20FailedOperation",
      "type": "error"
    },
    {
      "inputs": [
        {
          "internalType": "bytes",
          "name": "result",
          "type": "bytes"
        }
      ],
      "name": "SimulationResult",
      "type": "error"
    },
    {
      "anonymous": false,
      "inputs": [
        {
          "indexed": true,
          "internalType": "address",
          "name": "owner",
          "type": "address"
        },
        {
          "indexed": true,
          "internalType": "address",
          "name": "approved",
          "type": "address"
        },
        {
          "indexed": true,
          "internalType": "uint256",
          "name": "tokenId",
          "type": "uint256"
        }
      ],
      "name": "Approval",
      "type": "event"
    },
    {
      "anonymous": false,
      "inputs": [
        {
          "indexed": true,
          "internalType": "address",
          "name": "owner",
          "type": "address"
        },
        {
          "indexed": true,
          "internalType": "address",
          "name": "operator",
          "type": "address"
        },
        {
          "indexed": false,
          "internalType": "bool",
          "name": "approved",
          "type": "bool"
        }
      ],
      "name": "ApprovalForAll",
      "type": "event"
    },
    {
      "anonymous": false,
      "inputs": [
        {
          "indexed": false,
          "internalType": "string",
          "name": "baseURI",
          "type": "string"
        }
      ],
      "name": "BaseURISet",
      "type": "event"
    },
    {
      "anonymous": false,
      "inputs": [
        {
          "components": [
            {
              "internalType": "uint32",
              "name": "eid",
              "type": "uint32"
            },
            {
              "internalType": "uint16",
              "name": "msgType",
              "type": "uint16"
            },
            {
              "internalType": "bytes",
              "name": "options",
              "type": "bytes"
            }
          ],
          "indexed": false,
          "internalType": "struct EnforcedOptionParam[]",
          "name": "_enforcedOptions",
          "type": "tuple[]"
        }
      ],
      "name": "EnforcedOptionSet",
      "type": "event"
    },
    {
      "anonymous": false,
      "inputs": [
        {
          "indexed": false,
          "internalType": "string",
          "name": "newExtension",
          "type": "string"
        }
      ],
      "name": "FileExtensionUpdated",
      "type": "event"
    },
    {
      "anonymous": false,
      "inputs": [
        {
          "indexed": false,
          "internalType": "address",
          "name": "inspector",
          "type": "address"
        }
      ],
      "name": "MsgInspectorSet",
      "type": "event"
    },
    {
      "anonymous": false,
      "inputs": [
        {
          "indexed": true,
          "internalType": "bytes32",
          "name": "guid",
          "type": "bytes32"
        },
        {
          "indexed": false,
          "internalType": "uint32",
          "name": "srcEid",
          "type": "uint32"
        },
        {
          "indexed": true,
          "internalType": "address",
          "name": "toAddress",
          "type": "address"
        },
        {
          "indexed": false,
          "internalType": "uint256",
          "name": "tokenId",
          "type": "uint256"
        }
      ],
      "name": "ONFTReceived",
      "type": "event"
    },
    {
      "anonymous": false,
      "inputs": [
        {
          "indexed": true,
          "internalType": "bytes32",
          "name": "guid",
          "type": "bytes32"
        },
        {
          "indexed": false,
          "internalType": "uint32",
          "name": "dstEid",
          "type": "uint32"
        },
        {
          "indexed": true,
          "internalType": "address",
          "name": "fromAddress",
          "type": "address"
        },
        {
          "indexed": false,
          "internalType": "uint256",
          "name": "tokenId",
          "type": "uint256"
        }
      ],
      "name": "ONFTSent",
      "type": "event"
    },
    {
      "anonymous": false,
      "inputs": [
        {
          "indexed": true,
          "internalType": "address",
          "name": "previousOwner",
          "type": "address"
        },
        {
          "indexed": true,
          "internalType": "address",
          "name": "newOwner",
          "type": "address"
        }
      ],
      "name": "OwnershipTransferred",
      "type": "event"
    },
    {
      "anonymous": false,
      "inputs": [
        {
          "indexed": false,
          "internalType": "address",
          "name": "account",
          "type": "address"
        }
      ],
      "name": "Paused",
      "type": "event"
    },
    {
      "anonymous": false,
      "inputs": [
        {
          "indexed": false,
          "internalType": "uint32",
          "name": "eid",
          "type": "uint32"
        },
        {
          "indexed": false,
          "internalType": "bytes32",
          "name": "peer",
          "type": "bytes32"
        }
      ],
      "name": "PeerSet",
      "type": "event"
    },
    {
      "anonymous": false,
      "inputs": [
        {
          "indexed": false,
          "internalType": "address",
          "name": "preCrimeAddress",
          "type": "address"
        }
      ],
      "name": "PreCrimeSet",
      "type": "event"
    },
    {
      "anonymous": false,
      "inputs": [
        {
          "indexed": true,
          "internalType": "address",
          "name": "receiver",
          "type": "address"
        },
        {
          "indexed": false,
          "internalType": "uint96",
          "name": "feeNumerator",
          "type": "uint96"
        }
      ],
      "name": "RoyaltySet",
      "type": "event"
    },
    {
      "anonymous": false,
      "inputs": [
        {
          "indexed": true,
          "internalType": "address",
          "name": "from",
          "type": "address"
        },
        {
          "indexed": true,
          "internalType": "address",
          "name": "to",
          "type": "address"
        },
        {
          "indexed": true,
          "internalType": "uint256",
          "name": "tokenId",
          "type": "uint256"
        }
      ],
      "name": "Transfer",
      "type": "event"
    },
    {
      "anonymous": false,
      "inputs": [
        {
          "indexed": false,
          "internalType": "string",
          "name": "newBaseURI",
          "type": "string"
        }
      ],
      "name": "URIUpdated",
      "type": "event"
    },
    {
      "anonymous": false,
      "inputs": [
        {
          "indexed": false,
          "internalType": "address",
          "name": "account",
          "type": "address"
        }
      ],
      "name": "Unpaused",
      "type": "event"
    },
    {
      "inputs": [],
      "name": "SEND",
      "outputs": [
        {
          "internalType": "uint16",
          "name": "",
          "type": "uint16"
        }
      ],
      "stateMutability": "view",
      "type": "function"
    },
    {
      "inputs": [],
      "name": "SEND_AND_COMPOSE",
      "outputs": [
        {
          "internalType": "uint16",
          "name": "",
          "type": "uint16"
        }
      ],
      "stateMutability": "view",
      "type": "function"
    },
    {
      "inputs": [
        {
          "components": [
            {
              "internalType": "uint32",
              "name": "srcEid",
              "type": "uint32"
            },
            {
              "internalType": "bytes32",
              "name": "sender",
              "type": "bytes32"
            },
            {
              "internalType": "uint64",
              "name": "nonce",
              "type": "uint64"
            }
          ],
          "internalType": "struct Origin",
          "name": "origin",
          "type": "tuple"
        }
      ],
      "name": "allowInitializePath",
      "outputs": [
        {
          "internalType": "bool",
          "name": "",
          "type": "bool"
        }
      ],
      "stateMutability": "view",
      "type": "function"
    },
    {
      "inputs": [],
      "name": "approvalRequired",
      "outputs": [
        {
          "internalType": "bool",
          "name": "",
          "type": "bool"
        }
      ],
      "stateMutability": "pure",
      "type": "function"
    },
    {
      "inputs": [
        {
          "internalType": "address",
          "name": "to",
          "type": "address"
        },
        {
          "internalType": "uint256",
          "name": "tokenId",
          "type": "uint256"
        }
      ],
      "name": "approve",
      "outputs": [],
      "stateMutability": "nonpayable",
      "type": "function"
    },
    {
      "inputs": [
        {
          "internalType": "address",
          "name": "owner",
          "type": "address"
        }
      ],
      "name": "balanceOf",
      "outputs": [
        {
          "internalType": "uint256",
          "name": "",
          "type": "uint256"
        }
      ],
      "stateMutability": "view",
      "type": "function"
    },
    {
      "inputs": [],
      "name": "baseURI",
      "outputs": [
        {
          "internalType": "string",
          "name": "",
          "type": "string"
        }
      ],
      "stateMutability": "view",
      "type": "function"
    },
    {
      "inputs": [
        {
          "internalType": "uint32",
          "name": "_eid",
          "type": "uint32"
        },
        {
          "internalType": "uint16",
          "name": "_msgType",
          "type": "uint16"
        },
        {
          "internalType": "bytes",
          "name": "_extraOptions",
          "type": "bytes"
        }
      ],
      "name": "combineOptions",
      "outputs": [
        {
          "internalType": "bytes",
          "name": "",
          "type": "bytes"
        }
      ],
      "stateMutability": "view",
      "type": "function"
    },
    {
      "inputs": [],
      "name": "endpoint",
      "outputs": [
        {
          "internalType": "contract ILayerZeroEndpointV2",
          "name": "",
          "type": "address"
        }
      ],
      "stateMutability": "view",
      "type": "function"
    },
    {
      "inputs": [
        {
          "internalType": "uint32",
          "name": "eid",
          "type": "uint32"
        },
        {
          "internalType": "uint16",
          "name": "msgType",
          "type": "uint16"
        }
      ],
      "name": "enforcedOptions",
      "outputs": [
        {
          "internalType": "bytes",
          "name": "enforcedOption",
          "type": "bytes"
        }
      ],
      "stateMutability": "view",
      "type": "function"
    },
    {
      "inputs": [],
      "name": "fileExtension",
      "outputs": [
        {
          "internalType": "string",
          "name": "",
          "type": "string"
        }
      ],
      "stateMutability": "view",
      "type": "function"
    },
    {
      "inputs": [
        {
          "internalType": "uint256",
          "name": "tokenId",
          "type": "uint256"
        }
      ],
      "name": "getApproved",
      "outputs": [
        {
          "internalType": "address",
          "name": "",
          "type": "address"
        }
      ],
      "stateMutability": "view",
      "type": "function"
    },
    {
      "inputs": [
        {
          "internalType": "uint256",
          "name": "tokenId",
          "type": "uint256"
        }
      ],
      "name": "getRarity",
      "outputs": [
        {
          "internalType": "enum CultBearsV2.TokenRarityType",
          "name": "",
          "type": "uint8"
        }
      ],
      "stateMutability": "pure",
      "type": "function"
    },
    {
      "inputs": [
        {
          "internalType": "address",
          "name": "owner",
          "type": "address"
        },
        {
          "internalType": "address",
          "name": "operator",
          "type": "address"
        }
      ],
      "name": "isApprovedForAll",
      "outputs": [
        {
          "internalType": "bool",
          "name": "",
          "type": "bool"
        }
      ],
      "stateMutability": "view",
      "type": "function"
    },
    {
      "inputs": [
        {
          "components": [
            {
              "internalType": "uint32",
              "name": "srcEid",
              "type": "uint32"
            },
            {
              "internalType": "bytes32",
              "name": "sender",
              "type": "bytes32"
            },
            {
              "internalType": "uint64",
              "name": "nonce",
              "type": "uint64"
            }
          ],
          "internalType": "struct Origin",
          "name": "",
          "type": "tuple"
        },
        {
          "internalType": "bytes",
          "name": "",
          "type": "bytes"
        },
        {
          "internalType": "address",
          "name": "_sender",
          "type": "address"
        }
      ],
      "name": "isComposeMsgSender",
      "outputs": [
        {
          "internalType": "bool",
          "name": "",
          "type": "bool"
        }
      ],
      "stateMutability": "view",
      "type": "function"
    },
    {
      "inputs": [
        {
          "internalType": "uint32",
          "name": "_eid",
          "type": "uint32"
        },
        {
          "internalType": "bytes32",
          "name": "_peer",
          "type": "bytes32"
        }
      ],
      "name": "isPeer",
      "outputs": [
        {
          "internalType": "bool",
          "name": "",
          "type": "bool"
        }
      ],
      "stateMutability": "view",
      "type": "function"
    },
    {
      "inputs": [
        {
          "components": [
            {
              "internalType": "uint32",
              "name": "srcEid",
              "type": "uint32"
            },
            {
              "internalType": "bytes32",
              "name": "sender",
              "type": "bytes32"
            },
            {
              "internalType": "uint64",
              "name": "nonce",
              "type": "uint64"
            }
          ],
          "internalType": "struct Origin",
          "name": "_origin",
          "type": "tuple"
        },
        {
          "internalType": "bytes32",
          "name": "_guid",
          "type": "bytes32"
        },
        {
          "internalType": "bytes",
          "name": "_message",
          "type": "bytes"
        },
        {
          "internalType": "address",
          "name": "_executor",
          "type": "address"
        },
        {
          "internalType": "bytes",
          "name": "_extraData",
          "type": "bytes"
        }
      ],
      "name": "lzReceive",
      "outputs": [],
      "stateMutability": "payable",
      "type": "function"
    },
    {
      "inputs": [
        {
          "components": [
            {
              "components": [
                {
                  "internalType": "uint32",
                  "name": "srcEid",
                  "type": "uint32"
                },
                {
                  "internalType": "bytes32",
                  "name": "sender",
                  "type": "bytes32"
                },
                {
                  "internalType": "uint64",
                  "name": "nonce",
                  "type": "uint64"
                }
              ],
              "internalType": "struct Origin",
              "name": "origin",
              "type": "tuple"
            },
            {
              "internalType": "uint32",
              "name": "dstEid",
              "type": "uint32"
            },
            {
              "internalType": "address",
              "name": "receiver",
              "type": "address"
            },
            {
              "internalType": "bytes32",
              "name": "guid",
              "type": "bytes32"
            },
            {
              "internalType": "uint256",
              "name": "value",
              "type": "uint256"
            },
            {
              "internalType": "address",
              "name": "executor",
              "type": "address"
            },
            {
              "internalType": "bytes",
              "name": "message",
              "type": "bytes"
            },
            {
              "internalType": "bytes",
              "name": "extraData",
              "type": "bytes"
            }
          ],
          "internalType": "struct InboundPacket[]",
          "name": "_packets",
          "type": "tuple[]"
        }
      ],
      "name": "lzReceiveAndRevert",
      "outputs": [],
      "stateMutability": "payable",
      "type": "function"
    },
    {
      "inputs": [
        {
          "components": [
            {
              "internalType": "uint32",
              "name": "srcEid",
              "type": "uint32"
            },
            {
              "internalType": "bytes32",
              "name": "sender",
              "type": "bytes32"
            },
            {
              "internalType": "uint64",
              "name": "nonce",
              "type": "uint64"
            }
          ],
          "internalType": "struct Origin",
          "name": "_origin",
          "type": "tuple"
        },
        {
          "internalType": "bytes32",
          "name": "_guid",
          "type": "bytes32"
        },
        {
          "internalType": "bytes",
          "name": "_message",
          "type": "bytes"
        },
        {
          "internalType": "address",
          "name": "_executor",
          "type": "address"
        },
        {
          "internalType": "bytes",
          "name": "_extraData",
          "type": "bytes"
        }
      ],
      "name": "lzReceiveSimulate",
      "outputs": [],
      "stateMutability": "payable",
      "type": "function"
    },
    {
      "inputs": [],
      "name": "maxSupply",
      "outputs": [
        {
          "internalType": "uint256",
          "name": "",
          "type": "uint256"
        }
      ],
      "stateMutability": "view",
      "type": "function"
    },
    {
      "inputs": [],
      "name": "msgInspector",
      "outputs": [
        {
          "internalType": "address",
          "name": "",
          "type": "address"
        }
      ],
      "stateMutability": "view",
      "type": "function"
    },
    {
      "inputs": [],
      "name": "name",
      "outputs": [
        {
          "internalType": "string",
          "name": "",
          "type": "string"
        }
      ],
      "stateMutability": "view",
      "type": "function"
    },
    {
      "inputs": [
        {
          "internalType": "uint32",
          "name": "",
          "type": "uint32"
        },
        {
          "internalType": "bytes32",
          "name": "",
          "type": "bytes32"
        }
      ],
      "name": "nextNonce",
      "outputs": [
        {
          "internalType": "uint64",
          "name": "nonce",
          "type": "uint64"
        }
      ],
      "stateMutability": "view",
      "type": "function"
    },
    {
      "inputs": [],
      "name": "oApp",
      "outputs": [
        {
          "internalType": "address",
          "name": "",
          "type": "address"
        }
      ],
      "stateMutability": "view",
      "type": "function"
    },
    {
      "inputs": [],
      "name": "oAppVersion",
      "outputs": [
        {
          "internalType": "uint64",
          "name": "senderVersion",
          "type": "uint64"
        },
        {
          "internalType": "uint64",
          "name": "receiverVersion",
          "type": "uint64"
        }
      ],
      "stateMutability": "pure",
      "type": "function"
    },
    {
      "inputs": [],
      "name": "onftVersion",
      "outputs": [
        {
          "internalType": "bytes4",
          "name": "interfaceId",
          "type": "bytes4"
        },
        {
          "internalType": "uint64",
          "name": "version",
          "type": "uint64"
        }
      ],
      "stateMutability": "pure",
      "type": "function"
    },
    {
      "inputs": [],
      "name": "owner",
      "outputs": [
        {
          "internalType": "address",
          "name": "",
          "type": "address"
        }
      ],
      "stateMutability": "view",
      "type": "function"
    },
    {
      "inputs": [
        {
          "internalType": "uint256",
          "name": "tokenId",
          "type": "uint256"
        }
      ],
      "name": "ownerOf",
      "outputs": [
        {
          "internalType": "address",
          "name": "",
          "type": "address"
        }
      ],
      "stateMutability": "view",
      "type": "function"
    },
    {
      "inputs": [],
      "name": "pause",
      "outputs": [],
      "stateMutability": "nonpayable",
      "type": "function"
    },
    {
      "inputs": [],
      "name": "paused",
      "outputs": [
        {
          "internalType": "bool",
          "name": "",
          "type": "bool"
        }
      ],
      "stateMutability": "view",
      "type": "function"
    },
    {
      "inputs": [
        {
          "internalType": "uint32",
          "name": "eid",
          "type": "uint32"
        }
      ],
      "name": "peers",
      "outputs": [
        {
          "internalType": "bytes32",
          "name": "peer",
          "type": "bytes32"
        }
      ],
      "stateMutability": "view",
      "type": "function"
    },
    {
      "inputs": [],
      "name": "preCrime",
      "outputs": [
        {
          "internalType": "address",
          "name": "",
          "type": "address"
        }
      ],
      "stateMutability": "view",
      "type": "function"
    },
    {
      "inputs": [
        {
          "components": [
            {
              "internalType": "uint32",
              "name": "dstEid",
              "type": "uint32"
            },
            {
              "internalType": "bytes32",
              "name": "to",
              "type": "bytes32"
            },
            {
              "internalType": "uint256",
              "name": "tokenId",
              "type": "uint256"
            },
            {
              "internalType": "bytes",
              "name": "extraOptions",
              "type": "bytes"
            },
            {
              "internalType": "bytes",
              "name": "composeMsg",
              "type": "bytes"
            },
            {
              "internalType": "bytes",
              "name": "onftCmd",
              "type": "bytes"
            }
          ],
          "internalType": "struct SendParam",
          "name": "_sendParam",
          "type": "tuple"
        },
        {
          "internalType": "bool",
          "name": "_payInLzToken",
          "type": "bool"
        }
      ],
      "name": "quoteSend",
      "outputs": [
        {
          "components": [
            {
              "internalType": "uint256",
              "name": "nativeFee",
              "type": "uint256"
            },
            {
              "internalType": "uint256",
              "name": "lzTokenFee",
              "type": "uint256"
            }
          ],
          "internalType": "struct MessagingFee",
          "name": "msgFee",
          "type": "tuple"
        }
      ],
      "stateMutability": "view",
      "type": "function"
    },
    {
      "inputs": [],
      "name": "renounceOwnership",
      "outputs": [],
      "stateMutability": "nonpayable",
      "type": "function"
    },
    {
      "inputs": [
        {
          "internalType": "uint256",
          "name": "tokenId",
          "type": "uint256"
        },
        {
          "internalType": "uint256",
          "name": "salePrice",
          "type": "uint256"
        }
      ],
      "name": "royaltyInfo",
      "outputs": [
        {
          "internalType": "address",
          "name": "receiver",
          "type": "address"
        },
        {
          "internalType": "uint256",
          "name": "amount",
          "type": "uint256"
        }
      ],
      "stateMutability": "view",
      "type": "function"
    },
    {
      "inputs": [
        {
          "internalType": "address",
          "name": "from",
          "type": "address"
        },
        {
          "internalType": "address",
          "name": "to",
          "type": "address"
        },
        {
          "internalType": "uint256",
          "name": "tokenId",
          "type": "uint256"
        }
      ],
      "name": "safeTransferFrom",
      "outputs": [],
      "stateMutability": "nonpayable",
      "type": "function"
    },
    {
      "inputs": [
        {
          "internalType": "address",
          "name": "from",
          "type": "address"
        },
        {
          "internalType": "address",
          "name": "to",
          "type": "address"
        },
        {
          "internalType": "uint256",
          "name": "tokenId",
          "type": "uint256"
        },
        {
          "internalType": "bytes",
          "name": "data",
          "type": "bytes"
        }
      ],
      "name": "safeTransferFrom",
      "outputs": [],
      "stateMutability": "nonpayable",
      "type": "function"
    },
    {
      "inputs": [
        {
          "components": [
            {
              "internalType": "uint32",
              "name": "dstEid",
              "type": "uint32"
            },
            {
              "internalType": "bytes32",
              "name": "to",
              "type": "bytes32"
            },
            {
              "internalType": "uint256",
              "name": "tokenId",
              "type": "uint256"
            },
            {
              "internalType": "bytes",
              "name": "extraOptions",
              "type": "bytes"
            },
            {
              "internalType": "bytes",
              "name": "composeMsg",
              "type": "bytes"
            },
            {
              "internalType": "bytes",
              "name": "onftCmd",
              "type": "bytes"
            }
          ],
          "internalType": "struct SendParam",
          "name": "_sendParam",
          "type": "tuple"
        },
        {
          "components": [
            {
              "internalType": "uint256",
              "name": "nativeFee",
              "type": "uint256"
            },
            {
              "internalType": "uint256",
              "name": "lzTokenFee",
              "type": "uint256"
            }
          ],
          "internalType": "struct MessagingFee",
          "name": "_fee",
          "type": "tuple"
        },
        {
          "internalType": "address",
          "name": "_refundAddress",
          "type": "address"
        }
      ],
      "name": "send",
      "outputs": [
        {
          "components": [
            {
              "internalType": "bytes32",
              "name": "guid",
              "type": "bytes32"
            },
            {
              "internalType": "uint64",
              "name": "nonce",
              "type": "uint64"
            },
            {
              "components": [
                {
                  "internalType": "uint256",
                  "name": "nativeFee",
                  "type": "uint256"
                },
                {
                  "internalType": "uint256",
                  "name": "lzTokenFee",
                  "type": "uint256"
                }
              ],
              "internalType": "struct MessagingFee",
              "name": "fee",
              "type": "tuple"
            }
          ],
          "internalType": "struct MessagingReceipt",
          "name": "msgReceipt",
          "type": "tuple"
        }
      ],
      "stateMutability": "payable",
      "type": "function"
    },
    {
      "inputs": [
        {
          "internalType": "address",
          "name": "operator",
          "type": "address"
        },
        {
          "internalType": "bool",
          "name": "approved",
          "type": "bool"
        }
      ],
      "name": "setApprovalForAll",
      "outputs": [],
      "stateMutability": "nonpayable",
      "type": "function"
    },
    {
      "inputs": [
        {
          "internalType": "string",
          "name": "_baseTokenURI",
          "type": "string"
        }
      ],
      "name": "setBaseURI",
      "outputs": [],
      "stateMutability": "nonpayable",
      "type": "function"
    },
    {
      "inputs": [
        {
          "internalType": "address",
          "name": "_delegate",
          "type": "address"
        }
      ],
      "name": "setDelegate",
      "outputs": [],
      "stateMutability": "nonpayable",
      "type": "function"
    },
    {
      "inputs": [
        {
          "components": [
            {
              "internalType": "uint32",
              "name": "eid",
              "type": "uint32"
            },
            {
              "internalType": "uint16",
              "name": "msgType",
              "type": "uint16"
            },
            {
              "internalType": "bytes",
              "name": "options",
              "type": "bytes"
            }
          ],
          "internalType": "struct EnforcedOptionParam[]",
          "name": "_enforcedOptions",
          "type": "tuple[]"
        }
      ],
      "name": "setEnforcedOptions",
      "outputs": [],
      "stateMutability": "nonpayable",
      "type": "function"
    },
    {
      "inputs": [
        {
          "internalType": "string",
          "name": "extension",
          "type": "string"
        }
      ],
      "name": "setFileExtension",
      "outputs": [],
      "stateMutability": "nonpayable",
      "type": "function"
    },
    {
      "inputs": [
        {
          "internalType": "address",
          "name": "_msgInspector",
          "type": "address"
        }
      ],
      "name": "setMsgInspector",
      "outputs": [],
      "stateMutability": "nonpayable",
      "type": "function"
    },
    {
      "inputs": [
        {
          "internalType": "uint32",
          "name": "_eid",
          "type": "uint32"
        },
        {
          "internalType": "bytes32",
          "name": "_peer",
          "type": "bytes32"
        }
      ],
      "name": "setPeer",
      "outputs": [],
      "stateMutability": "nonpayable",
      "type": "function"
    },
    {
      "inputs": [
        {
          "internalType": "address",
          "name": "_preCrime",
          "type": "address"
        }
      ],
      "name": "setPreCrime",
      "outputs": [],
      "stateMutability": "nonpayable",
      "type": "function"
    },
    {
      "inputs": [
        {
          "internalType": "uint256",
          "name": "tokenId",
          "type": "uint256"
        },
        {
          "internalType": "address",
          "name": "receiver",
          "type": "address"
        },
        {
          "internalType": "uint96",
          "name": "feeNumerator",
          "type": "uint96"
        }
      ],
      "name": "setTokenRoyalty",
      "outputs": [],
      "stateMutability": "nonpayable",
      "type": "function"
    },
    {
      "inputs": [
        {
          "internalType": "bytes4",
          "name": "interfaceId",
          "type": "bytes4"
        }
      ],
      "name": "supportsInterface",
      "outputs": [
        {
          "internalType": "bool",
          "name": "",
          "type": "bool"
        }
      ],
      "stateMutability": "view",
      "type": "function"
    },
    {
      "inputs": [],
      "name": "symbol",
      "outputs": [
        {
          "internalType": "string",
          "name": "",
          "type": "string"
        }
      ],
      "stateMutability": "view",
      "type": "function"
    },
    {
      "inputs": [],
      "name": "token",
      "outputs": [
        {
          "internalType": "address",
          "name": "",
          "type": "address"
        }
      ],
      "stateMutability": "view",
      "type": "function"
    },
    {
      "inputs": [
        {
          "internalType": "uint256",
          "name": "tokenId",
          "type": "uint256"
        }
      ],
      "name": "tokenURI",
      "outputs": [
        {
          "internalType": "string",
          "name": "",
          "type": "string"
        }
      ],
      "stateMutability": "view",
      "type": "function"
    },
    {
      "inputs": [
        {
          "internalType": "address",
          "name": "from",
          "type": "address"
        },
        {
          "internalType": "address",
          "name": "to",
          "type": "address"
        },
        {
          "internalType": "uint256",
          "name": "tokenId",
          "type": "uint256"
        }
      ],
      "name": "transferFrom",
      "outputs": [],
      "stateMutability": "nonpayable",
      "type": "function"
    },
    {
      "inputs": [
        {
          "internalType": "address",
          "name": "newOwner",
          "type": "address"
        }
      ],
      "name": "transferOwnership",
      "outputs": [],
      "stateMutability": "nonpayable",
      "type": "function"
    },
    {
      "inputs": [],
      "name": "unpause",
      "outputs": [],
      "stateMutability": "nonpayable",
      "type": "function"
    }
  ],
  "transactionHash": "0xf575b1b89a8cfe8c1e9644a8f760b1c8b796194411580148aa403c44c32aa3d7",
  "args": [
    "Cult Bears",
    "CBEARS",
    "0x6EDCE65403992e310A62460808c4b910D972f10f",
    "0xC0fFea512d7683A7088b3D7Be2afE69546D0498B",
    "https://arweave.net/EBRFxtP5XQa6cOO2Hbn4dUa2RQl2KBbf8y0FyXTG5co/"
  ],
  "numDeployments": 1,
  "solcInputHash": "2793efc4e640085d33d52636a3d97e19",
  "bytecode": "0x60e0604052600560a090815264173539b7b760d91b60c05260109062000026908262000330565b503480156200003457600080fd5b50604051620043f8380380620043f88339810160408190526200005791620004cb565b848484848383838381818181806001600160a01b0381166200009457604051631e4fbdf760e01b8152600060048201526024015b60405180910390fd5b6200009f8162000192565b506001600160a01b038083166080528116620000ce57604051632d618d8160e21b815260040160405180910390fd5b60805160405163ca5eb5e160e01b81526001600160a01b0383811660048301529091169063ca5eb5e190602401600060405180830381600087803b1580156200011657600080fd5b505af11580156200012b573d6000803e3d6000fd5b50505050505050505050816005908162000146919062000330565b50600662000155828262000330565b5050600e805460ff1916905550600f935062000178925084915083905062000330565b5062000187336101f4620001e2565b505050505062000582565b600080546001600160a01b038381166001600160a01b0319831681178455604051919092169283917f8be0079c531659141344cd1fd0a4f28419497f9722a3daafe3b4186f6b6457e09190a35050565b6127106001600160601b0382168110156200022357604051636f483d0960e01b81526001600160601b0383166004820152602481018290526044016200008b565b6001600160a01b0383166200024f57604051635b6cc80560e11b8152600060048201526024016200008b565b50604080518082019091526001600160a01b039092168083526001600160601b039091166020909201829052600160a01b90910217600c55565b634e487b7160e01b600052604160045260246000fd5b600181811c90821680620002b457607f821691505b602082108103620002d557634e487b7160e01b600052602260045260246000fd5b50919050565b601f8211156200032b576000816000526020600020601f850160051c81016020861015620003065750805b601f850160051c820191505b81811015620003275782815560010162000312565b5050505b505050565b81516001600160401b038111156200034c576200034c62000289565b62000364816200035d84546200029f565b84620002db565b602080601f8311600181146200039c5760008415620003835750858301515b600019600386901b1c1916600185901b17855562000327565b600085815260208120601f198616915b82811015620003cd57888601518255948401946001909101908401620003ac565b5085821015620003ec5787850151600019600388901b60f8161c191681555b5050505050600190811b01905550565b600082601f8301126200040e57600080fd5b81516001600160401b03808211156200042b576200042b62000289565b604051601f8301601f19908116603f0116810190828211818310171562000456576200045662000289565b81604052838152602092508660208588010111156200047457600080fd5b600091505b8382101562000498578582018301518183018401529082019062000479565b6000602085830101528094505050505092915050565b80516001600160a01b0381168114620004c657600080fd5b919050565b600080600080600060a08688031215620004e457600080fd5b85516001600160401b0380821115620004fc57600080fd5b6200050a89838a01620003fc565b965060208801519150808211156200052157600080fd5b6200052f89838a01620003fc565b95506200053f60408901620004ae565b94506200054f60608901620004ae565b935060808801519150808211156200056657600080fd5b506200057588828901620003fc565b9150509295509295909350565b608051613e29620005cf6000396000818161063d01528181610af3015281816115e40152818161193b01528181611bdf01528181612302015281816127a801526128610152613e296000f3fe6080604052600436106103355760003560e01c80637d25a05e116101ab578063bb0b6a53116100f7578063d424388511610095578063f2fde38b1161006f578063f2fde38b146109b6578063f87cafb0146109d6578063fc0c546a14610569578063ff7bd03d146109f657600080fd5b8063d424388514610960578063d5abeb0114610980578063e985e9c51461099657600080fd5b8063c6414e7b116100d1578063c6414e7b146108e0578063c87b56dd1461090d578063ca5eb5e11461092d578063d045a0dc1461094d57600080fd5b8063bb0b6a5314610880578063bc70b354146108ad578063bd815db0146108cd57600080fd5b80639f68b96411610164578063b21a33e41161013e578063b21a33e41461080b578063b731ea0a14610820578063b88d4fde14610840578063b98bd0701461086057600080fd5b80639f68b964146107af578063a22cb465146107c3578063a72f5dd8146107e357600080fd5b80637d25a05e146106f757806382413eac146107325780638456cb59146107525780638da5cb5b146107675780638dc91ac21461078557806395d89b411461079a57600080fd5b806342842e0e116102855780635c975abb116102235780636c0360eb116101fd5780636c0360eb1461067f5780636fc1b31e1461069457806370a08231146106b4578063715018a6146106e257600080fd5b80635c975abb146106135780635e280f111461062b5780636352211e1461065f57600080fd5b80635535d4611161025f5780635535d4611461057c57806355f804b31461059c5780635944c753146105bc5780635a0dfe4d146105dc57600080fd5b806342842e0e1461051c578063487586971461053c57806352ae28791461056957600080fd5b806317442b70116102f257806323b872dd116102cc57806323b872dd146104885780632a55205a146104a85780633400288b146104e75780633f4ba83a1461050757600080fd5b806317442b701461041e5780631f5e13341461044057806321eb730b1461046857600080fd5b806301ffc9a71461033a57806306fdde031461036f578063081812fc14610391578063095ea7b3146103c9578063111ecdad146103eb57806313137d651461040b575b600080fd5b34801561034657600080fd5b5061035a610355366004612bd5565b610a16565b60405190151581526020015b60405180910390f35b34801561037b57600080fd5b50610384610a27565b6040516103669190612c42565b34801561039d57600080fd5b506103b16103ac366004612c55565b610ab9565b6040516001600160a01b039091168152602001610366565b3480156103d557600080fd5b506103e96103e4366004612c83565b610ae2565b005b3480156103f757600080fd5b506004546103b1906001600160a01b031681565b6103e9610419366004612d08565b610af1565b34801561042a57600080fd5b5060408051600181526002602082015201610366565b34801561044c57600080fd5b50610455600181565b60405161ffff9091168152602001610366565b61047b610476366004612db9565b610bb1565b6040516103669190612e26565b34801561049457600080fd5b506103e96104a3366004612e68565b610c6a565b3480156104b457600080fd5b506104c86104c3366004612ea9565b610cf5565b604080516001600160a01b039093168352602083019190915201610366565b3480156104f357600080fd5b506103e9610502366004612edf565b610d7c565b34801561051357600080fd5b506103e9610d8e565b34801561052857600080fd5b506103e9610537366004612e68565b610da0565b34801561054857600080fd5b5061055c610557366004612c55565b610dc0565b6040516103669190612efb565b34801561057557600080fd5b50306103b1565b34801561058857600080fd5b50610384610597366004612f35565b610ef6565b3480156105a857600080fd5b506103e96105b7366004612f68565b610f9b565b3480156105c857600080fd5b506103e96105d7366004612fa9565b610fed565b3480156105e857600080fd5b5061035a6105f7366004612edf565b63ffffffff919091166000908152600160205260409020541490565b34801561061f57600080fd5b50600e5460ff1661035a565b34801561063757600080fd5b506103b17f000000000000000000000000000000000000000000000000000000000000000081565b34801561066b57600080fd5b506103b161067a366004612c55565b611054565b34801561068b57600080fd5b5061038461105f565b3480156106a057600080fd5b506103e96106af366004612fec565b61106c565b3480156106c057600080fd5b506106d46106cf366004612fec565b6110c9565b604051908152602001610366565b3480156106ee57600080fd5b506103e9611111565b34801561070357600080fd5b5061071a610712366004612edf565b600092915050565b6040516001600160401b039091168152602001610366565b34801561073e57600080fd5b5061035a61074d366004613009565b611123565b34801561075e57600080fd5b506103e9611138565b34801561077357600080fd5b506000546001600160a01b03166103b1565b34801561079157600080fd5b50610384611148565b3480156107a657600080fd5b50610384611155565b3480156107bb57600080fd5b50600061035a565b3480156107cf57600080fd5b506103e96107de36600461307d565b611164565b3480156107ef57600080fd5b50604080516311f0c6d360e11b81526001602082015201610366565b34801561081757600080fd5b50610455600281565b34801561082c57600080fd5b506002546103b1906001600160a01b031681565b34801561084c57600080fd5b506103e961085b3660046131cb565b61116f565b34801561086c57600080fd5b506103e961087b36600461327a565b611187565b34801561088c57600080fd5b506106d461089b3660046132af565b60016020526000908152604090205481565b3480156108b957600080fd5b506103846108c83660046132ca565b6111a1565b6103e96108db36600461327a565b611349565b3480156108ec57600080fd5b506109006108fb36600461332a565b6114d3565b6040516103669190613370565b34801561091957600080fd5b50610384610928366004612c55565b611519565b34801561093957600080fd5b506103e9610948366004612fec565b6115bd565b6103e961095b366004612d08565b611643565b34801561096c57600080fd5b506103e961097b366004612fec565b611672565b34801561098c57600080fd5b506106d46107d081565b3480156109a257600080fd5b5061035a6109b1366004613387565b6116c8565b3480156109c257600080fd5b506103e96109d1366004612fec565b6116f6565b3480156109e257600080fd5b506103e96109f13660046133b5565b611734565b348015610a0257600080fd5b5061035a610a113660046133fd565b6117d1565b6000610a2182611807565b92915050565b606060058054610a3690613419565b80601f0160208091040260200160405190810160405280929190818152602001828054610a6290613419565b8015610aaf5780601f10610a8457610100808354040283529160200191610aaf565b820191906000526020600020905b815481529060010190602001808311610a9257829003601f168201915b5050505050905090565b6000610ac48261182c565b506000828152600960205260409020546001600160a01b0316610a21565b610aed828233611865565b5050565b7f00000000000000000000000000000000000000000000000000000000000000006001600160a01b03163314610b41576040516391ac5e4f60e01b81523360048201526024015b60405180910390fd5b60208701803590610b5b90610b56908a6132af565b611872565b14610b9957610b6d60208801886132af565b60405163309afaf360e21b815263ffffffff909116600482015260208801356024820152604401610b38565b610ba8878787878787876118ae565b50505050505050565b610bb9612b78565b610bd4336040860135610bcf60208801886132af565b611a0d565b600080610be086611a6d565b9092509050610c0c610bf560208801886132af565b8383610c06368a90038a018a61344d565b88611bac565b805190935033907f986156872b2ee0022b9585231dbbfde457f87f8a16b6c45e1a81c54c4ad8351f610c4160208a018a6132af565b6040805163ffffffff9092168252808b013560208301520160405180910390a350509392505050565b6001600160a01b038216610c9457604051633250574960e11b815260006004820152602401610b38565b6000610ca1838333611cb7565b9050836001600160a01b0316816001600160a01b031614610cef576040516364283d7b60e01b81526001600160a01b0380861660048301526024820184905282166044820152606401610b38565b50505050565b6000828152600d6020526040812080548291906001600160a01b03811690600160a01b90046001600160601b031681610d49575050600c546001600160a01b03811690600160a01b90046001600160601b03165b6000612710610d616001600160601b0384168961347f565b610d6b91906134a4565b9295509193505050505b9250929050565b610d84611db0565b610aed8282611ddd565b610d96611db0565b610d9e611e2b565b565b610dbb8383836040518060200160405280600081525061116f565b505050565b60008082118015610dd357506107d08211155b610e175760405162461bcd60e51b8152602060048201526015602482015274546f6b656e204944206f7574206f662072616e676560581b6044820152606401610b38565b600282111580610e3657506103e98210158015610e3657506103ea8211155b15610e4357506004919050565b60038210158015610e555750600f8211155b80610e6f57506103eb8210158015610e6f57506103f78211155b15610e7c57506003919050565b60108210158015610e8e575060288211155b80610ea857506103f88210158015610ea857506104108211155b15610eb557506002919050565b60298210158015610ec75750605a8211155b80610ee157506104118210158015610ee157506104428211155b15610eee57506001919050565b506000919050565b600360209081526000928352604080842090915290825290208054610f1a90613419565b80601f0160208091040260200160405190810160405280929190818152602001828054610f4690613419565b8015610f935780601f10610f6857610100808354040283529160200191610f93565b820191906000526020600020905b815481529060010190602001808311610f7657829003601f168201915b505050505081565b610fa3611db0565b600b610fb082848361350e565b507ff9c7803e94e0d3c02900d8a90893a6d5e90dd04d32a4cfe825520f82bf9f32f6600b604051610fe191906135cd565b60405180910390a15050565b610ff5611db0565b610ffd611e7d565b611008838383611ea1565b6040516001600160601b03821681526001600160a01b038316907f23813f5ad446622633cb58c75ceef768a2111751b0f30477a63e06fcaedcff609060200160405180910390a2505050565b6000610a218261182c565b600f8054610f1a90613419565b611074611db0565b600480546001600160a01b0319166001600160a01b0383169081179091556040519081527ff0be4f1e87349231d80c36b33f9e8639658eeaf474014dee15a3e6a4d4414197906020015b60405180910390a150565b60006001600160a01b0382166110f5576040516322718ad960e21b815260006004820152602401610b38565b506001600160a01b031660009081526008602052604090205490565b611119611db0565b610d9e6000611f63565b6001600160a01b03811630145b949350505050565b611140611db0565b610d9e611fb3565b60108054610f1a90613419565b606060068054610a3690613419565b610aed338383611ff0565b61117a848484610c6a565b610cef338585858561208f565b61118f611db0565b610aed61119c828461365d565b6121b9565b63ffffffff8416600090815260036020908152604080832061ffff871684529091528120805460609291906111d590613419565b80601f016020809104026020016040519081016040528092919081815260200182805461120190613419565b801561124e5780601f106112235761010080835404028352916020019161124e565b820191906000526020600020905b81548152906001019060200180831161123157829003601f168201915b50505050509050805160000361129e5783838080601f0160208091040260200160405190810160405280939291908181526020018383808284376000920191909152509294506111309350505050565b60008390036112ae579050611130565b6002831061132c576112f584848080601f0160208091040260200160405190810160405280939291908181526020018383808284376000920191909152506122c092505050565b806113038460028188613732565b6040516020016113159392919061375c565b604051602081830303815290604052915050611130565b8383604051639a6d49cd60e01b8152600401610b389291906137ad565b60005b818110156114525736838383818110611367576113676137c1565b905060200281019061137991906137d7565b90506113ac61138b60208301836132af565b602083013563ffffffff919091166000908152600160205260409020541490565b6113b6575061144a565b3063d045a0dc60c08301358360a08101356113d56101008301836137f8565b6113e6610100890160e08a01612fec565b6113f46101208a018a6137f8565b6040518963ffffffff1660e01b81526004016114169796959493929190613853565b6000604051808303818588803b15801561142f57600080fd5b505af1158015611443573d6000803e3d6000fd5b5050505050505b60010161134c565b50336001600160a01b0316638e9e70996040518163ffffffff1660e01b8152600401600060405180830381865afa158015611491573d6000803e3d6000fd5b505050506040513d6000823e601f3d908101601f191682016040526114b991908101906138d9565b604051638351eea760e01b8152600401610b389190612c42565b60408051808201909152600080825260208201526000806114f385611a6d565b909250905061151061150860208701876132af565b8383876122ec565b95945050505050565b6060611524826123c4565b6115885760405162461bcd60e51b815260206004820152602f60248201527f4552433732314d657461646174613a2055524920717565727920666f72206e6f60448201526e3732bc34b9ba32b73a103a37b5b2b760891b6064820152608401610b38565b600f61159383612441565b60106040516020016115a7939291906139b9565b6040516020818303038152906040529050919050565b6115c5611db0565b60405163ca5eb5e160e01b81526001600160a01b0382811660048301527f0000000000000000000000000000000000000000000000000000000000000000169063ca5eb5e190602401600060405180830381600087803b15801561162857600080fd5b505af115801561163c573d6000803e3d6000fd5b5050505050565b3330146116635760405163029a949d60e31b815260040160405180910390fd5b610ba887878787878787610b99565b61167a611db0565b600280546001600160a01b0319166001600160a01b0383169081179091556040519081527fd48d879cef83a1c0bdda516f27b13ddb1b3f8bbac1c9e1511bb2a659c2427760906020016110be565b6001600160a01b039182166000908152600a6020908152604080832093909416825291909152205460ff1690565b6116fe611db0565b6001600160a01b03811661172857604051631e4fbdf760e01b815260006004820152602401610b38565b61173181611f63565b50565b61173c611db0565b611744611e7d565b60008151116117955760405162461bcd60e51b815260206004820152601e60248201527f46696c6520657874656e73696f6e2063616e6e6f7420626520656d70747900006044820152606401610b38565b60106117a182826139f7565b507f95c0419535f434fa69d4e8cbecdd93dbb4080262f09911d2ca00196d33fcda6f816040516110be9190612c42565b60006020820180359060019083906117e990866132af565b63ffffffff1681526020810191909152604001600020541492915050565b60006001600160e01b0319821663152a902d60e11b1480610a215750610a21826124d3565b6000818152600760205260408120546001600160a01b031680610a2157604051637e27328960e01b815260048101849052602401610b38565b610dbb8383836001612523565b63ffffffff811660009081526001602052604081205480610a215760405163f6ff4fb760e01b815263ffffffff84166004820152602401610b38565b60006118c06118bd8787612629565b90565b905060006118ce8787612648565b90506118e782826118e260208d018d6132af565b612658565b60408611156119ab57600061192161190560608c0160408d01613ab6565b61191260208d018d6132af565b61191c8b8b612662565b6126ad565b604051633e5ac80960e11b81529091506001600160a01b037f00000000000000000000000000000000000000000000000000000000000000001690637cb59012906119779086908d906000908790600401613ad3565b600060405180830381600087803b15801561199157600080fd5b505af11580156119a5573d6000803e3d6000fd5b50505050505b6001600160a01b038216887f7883fa30ea56937810e36990b0bbb8d629d0cf59f68baf8431ff657cebe7eef56119e460208d018d6132af565b6040805163ffffffff9092168252602082018690520160405180910390a3505050505050505050565b611a1682611054565b6001600160a01b0316836001600160a01b031614611a645782611a3883611054565b604051634342715b60e11b81526001600160a01b03928316600482015291166024820152604401610b38565b610dbb826126dc565b6060806020830135611a9257604051631e4ec46b60e01b815260040160405180910390fd5b6000611ae860208501356040860135611aae60808801886137f8565b8080601f01602080910402602001604051908101604052809392919081815260200183838082843760009201919091525061271792505050565b9093509050600081611afb576001611afe565b60025b9050611b1e611b1060208701876132af565b826108c860608901896137f8565b6004549093506001600160a01b03168015611ba45760405163043a78eb60e01b81526001600160a01b0382169063043a78eb90611b619088908890600401613b0e565b602060405180830381865afa158015611b7e573d6000803e3d6000fd5b505050506040513d601f19601f82011682018060405250810190611ba29190613b33565b505b505050915091565b611bb4612b78565b6000611bc3846000015161277c565b602085015190915015611bdd57611bdd84602001516127a4565b7f00000000000000000000000000000000000000000000000000000000000000006001600160a01b0316632637a450826040518060a001604052808b63ffffffff168152602001611c2d8c611872565b81526020018a815260200189815260200160008960200151111515815250866040518463ffffffff1660e01b8152600401611c69929190613b50565b60806040518083038185885af1158015611c87573d6000803e3d6000fd5b50505050506040513d601f19601f82011682018060405250810190611cac9190613bf9565b979650505050505050565b6000828152600760205260408120546001600160a01b0390811690831615611ce457611ce4818486612886565b6001600160a01b03811615611d2257611d01600085600080612523565b6001600160a01b038116600090815260086020526040902080546000190190555b6001600160a01b03851615611d51576001600160a01b0385166000908152600860205260409020805460010190555b60008481526007602052604080822080546001600160a01b0319166001600160a01b0389811691821790925591518793918516917fddf252ad1be2c89b69c2b068fc378daa952ba7f163c4a11628f55a4df523b3ef91a4949350505050565b6000546001600160a01b03163314610d9e5760405163118cdaa760e01b8152336004820152602401610b38565b63ffffffff8216600081815260016020908152604091829020849055815192835282018390527f238399d427b947898edb290f5ff0f9109849b1c3ba196a42e35f00c50a54b98b9101610fe1565b611e336128ea565b600e805460ff191690557f5db9ee0a495bf2e6ff9c91a7834c1ba4fdd244a5e8aa4e537bd38aeae4b073aa335b6040516001600160a01b03909116815260200160405180910390a1565b600e5460ff1615610d9e5760405163d93c066560e01b815260040160405180910390fd5b6127106001600160601b038216811015611ee75760405163dfd1fc1b60e01b8152600481018590526001600160601b038316602482015260448101829052606401610b38565b6001600160a01b038316611f1857604051634b4f842960e11b81526004810185905260006024820152604401610b38565b506040805180820182526001600160a01b0393841681526001600160601b0392831660208083019182526000968752600d90529190942093519051909116600160a01b029116179055565b600080546001600160a01b038381166001600160a01b0319831681178455604051919092169283917f8be0079c531659141344cd1fd0a4f28419497f9722a3daafe3b4186f6b6457e09190a35050565b611fbb611e7d565b600e805460ff191660011790557f62e78cea01bee320cd4e420270b5ea74000d11b0c9f74754ebdbfc544b05a258611e603390565b6001600160a01b03821661202257604051630b61174360e31b81526001600160a01b0383166004820152602401610b38565b6001600160a01b038381166000818152600a6020908152604080832094871680845294825291829020805460ff191686151590811790915591519182527f17307eab39ab6107e8899845ad3d59bd9653f200f220920489ca2b5937696c31910160405180910390a3505050565b6001600160a01b0383163b1561163c57604051630a85bd0160e11b81526001600160a01b0384169063150b7a02906120d1908890889087908790600401613c43565b6020604051808303816000875af192505050801561210c575060408051601f3d908101601f1916820190925261210991810190613c76565b60015b612175573d80801561213a576040519150601f19603f3d011682016040523d82523d6000602084013e61213f565b606091505b50805160000361216d57604051633250574960e11b81526001600160a01b0385166004820152602401610b38565b805181602001fd5b6001600160e01b03198116630a85bd0160e11b146121b157604051633250574960e11b81526001600160a01b0385166004820152602401610b38565b505050505050565b60005b8151811015612290576121eb8282815181106121da576121da6137c1565b6020026020010151604001516122c0565b8181815181106121fd576121fd6137c1565b6020026020010151604001516003600084848151811061221f5761221f6137c1565b60200260200101516000015163ffffffff1663ffffffff1681526020019081526020016000206000848481518110612259576122596137c1565b60200260200101516020015161ffff1661ffff168152602001908152602001600020908161228791906139f7565b506001016121bc565b507fbe4864a8e820971c0247f5992e2da559595f7bf076a21cb5928d443d2a13b674816040516110be9190613c93565b600281015161ffff8116600314610aed5781604051639a6d49cd60e01b8152600401610b389190612c42565b60408051808201909152600080825260208201527f00000000000000000000000000000000000000000000000000000000000000006001600160a01b031663ddc28c586040518060a001604052808863ffffffff16815260200161234f89611872565b8152602001878152602001868152602001851515815250306040518363ffffffff1660e01b8152600401612384929190613b50565b6040805180830381865afa1580156123a0573d6000803e3d6000fd5b505050506040513d601f19601f820116820180604052508101906115109190613d1e565b6040516331a9108f60e11b8152600481018290526000903090636352211e90602401602060405180830381865afa92505050801561241f575060408051601f3d908101601f1916820190925261241c91810190613d3a565b60015b61242b57506000919050565b6001600160a01b0316151592915050565b919050565b6060600061244e8361290d565b60010190506000816001600160401b0381111561246d5761246d6130b6565b6040519080825280601f01601f191660200182016040528015612497576020820181803683370190505b5090508181016020015b600019016f181899199a1a9b1b9c1cb0b131b232b360811b600a86061a8153600a85049450846124a157509392505050565b60006001600160e01b031982166380ac58cd60e01b148061250457506001600160e01b03198216635b5e139f60e01b145b80610a2157506301ffc9a760e01b6001600160e01b0319831614610a21565b808061253757506001600160a01b03821615155b156125f95760006125478461182c565b90506001600160a01b038316158015906125735750826001600160a01b0316816001600160a01b031614155b8015612586575061258481846116c8565b155b156125af5760405163a9fbf51f60e01b81526001600160a01b0384166004820152602401610b38565b81156125f75783856001600160a01b0316826001600160a01b03167f8c5be1e5ebec7d5bd14f71427d1e84f3dd0314c0f7b2291e5b200ac8c7c3b92560405160405180910390a45b505b5050600090815260096020526040902080546001600160a01b0319166001600160a01b0392909216919091179055565b60006126386020828486613732565b61264191613d57565b9392505050565b6000612638604060208486613732565b610dbb83836129e5565b60606126718260408186613732565b8080601f016020809104026020016040519081016040528093929190818152602001838380828437600092019190915250929695505050505050565b60608383836040516020016126c493929190613d75565b60405160208183030381529060405290509392505050565b60006126eb6000836000611cb7565b90506001600160a01b038116610aed57604051637e27328960e01b815260048101839052602401610b38565b805160609015158061274b576040805160208101879052908101859052606001604051602081830303815290604052612772565b848433856040516020016127629493929190613dbf565b6040516020818303038152906040525b9150935093915050565b60008134146127a0576040516304fb820960e51b8152346004820152602401610b38565b5090565b60007f00000000000000000000000000000000000000000000000000000000000000006001600160a01b031663e4fe1d946040518163ffffffff1660e01b8152600401602060405180830381865afa158015612804573d6000803e3d6000fd5b505050506040513d601f19601f820116820180604052508101906128289190613d3a565b90506001600160a01b038116612851576040516329b99a9560e11b815260040160405180910390fd5b610aed6001600160a01b038216337f000000000000000000000000000000000000000000000000000000000000000085612a4a565b612891838383612aa4565b610dbb576001600160a01b0383166128bf57604051637e27328960e01b815260048101829052602401610b38565b60405163177e802f60e01b81526001600160a01b038316600482015260248101829052604401610b38565b600e5460ff16610d9e57604051638dfc202b60e01b815260040160405180910390fd5b60008072184f03e93ff9f4daa797ed6e38ed64bf6a1f0160401b831061294c5772184f03e93ff9f4daa797ed6e38ed64bf6a1f0160401b830492506040015b6d04ee2d6d415b85acef81000000008310612978576d04ee2d6d415b85acef8100000000830492506020015b662386f26fc10000831061299657662386f26fc10000830492506010015b6305f5e10083106129ae576305f5e100830492506008015b61271083106129c257612710830492506004015b606483106129d4576064830492506002015b600a8310610a215760010192915050565b6001600160a01b038216612a0f57604051633250574960e11b815260006004820152602401610b38565b6000612a1d83836000611cb7565b90506001600160a01b03811615610dbb576040516339e3563760e11b815260006004820152602401610b38565b604080516001600160a01b0385811660248301528416604482015260648082018490528251808303909101815260849091019091526020810180516001600160e01b03166323b872dd60e01b179052610cef908590612b07565b60006001600160a01b038316158015906111305750826001600160a01b0316846001600160a01b03161480612ade5750612ade84846116c8565b806111305750506000908152600960205260409020546001600160a01b03908116911614919050565b600080602060008451602086016000885af180612b2a576040513d6000823e3d81fd5b50506000513d91508115612b42578060011415612b4f565b6001600160a01b0384163b155b15610cef57604051635274afe760e01b81526001600160a01b0385166004820152602401610b38565b60405180606001604052806000801916815260200160006001600160401b03168152602001612bba604051806040016040528060008152602001600081525090565b905290565b6001600160e01b03198116811461173157600080fd5b600060208284031215612be757600080fd5b813561264181612bbf565b60005b83811015612c0d578181015183820152602001612bf5565b50506000910152565b60008151808452612c2e816020860160208601612bf2565b601f01601f19169290920160200192915050565b6020815260006126416020830184612c16565b600060208284031215612c6757600080fd5b5035919050565b6001600160a01b038116811461173157600080fd5b60008060408385031215612c9657600080fd5b8235612ca181612c6e565b946020939093013593505050565b600060608284031215612cc157600080fd5b50919050565b60008083601f840112612cd957600080fd5b5081356001600160401b03811115612cf057600080fd5b602083019150836020828501011115610d7557600080fd5b600080600080600080600060e0888a031215612d2357600080fd5b612d2d8989612caf565b96506060880135955060808801356001600160401b0380821115612d5057600080fd5b612d5c8b838c01612cc7565b909750955060a08a01359150612d7182612c6e565b90935060c08901359080821115612d8757600080fd5b50612d948a828b01612cc7565b989b979a50959850939692959293505050565b600060c08284031215612cc157600080fd5b60008060008385036080811215612dcf57600080fd5b84356001600160401b03811115612de557600080fd5b612df187828801612da7565b9450506040601f1982011215612e0657600080fd5b506020840191506060840135612e1b81612c6e565b809150509250925092565b6000608082019050825182526001600160401b0360208401511660208301526040830151612e61604084018280518252602090810151910152565b5092915050565b600080600060608486031215612e7d57600080fd5b8335612e8881612c6e565b92506020840135612e9881612c6e565b929592945050506040919091013590565b60008060408385031215612ebc57600080fd5b50508035926020909101359150565b803563ffffffff8116811461243c57600080fd5b60008060408385031215612ef257600080fd5b612ca183612ecb565b6020810160058310612f1d57634e487b7160e01b600052602160045260246000fd5b91905290565b803561ffff8116811461243c57600080fd5b60008060408385031215612f4857600080fd5b612f5183612ecb565b9150612f5f60208401612f23565b90509250929050565b60008060208385031215612f7b57600080fd5b82356001600160401b03811115612f9157600080fd5b612f9d85828601612cc7565b90969095509350505050565b600080600060608486031215612fbe57600080fd5b833592506020840135612fd081612c6e565b915060408401356001600160601b0381168114612e1b57600080fd5b600060208284031215612ffe57600080fd5b813561264181612c6e565b60008060008060a0858703121561301f57600080fd5b6130298686612caf565b935060608501356001600160401b0381111561304457600080fd5b61305087828801612cc7565b909450925050608085013561306481612c6e565b939692955090935050565b801515811461173157600080fd5b6000806040838503121561309057600080fd5b823561309b81612c6e565b915060208301356130ab8161306f565b809150509250929050565b634e487b7160e01b600052604160045260246000fd5b604080519081016001600160401b03811182821017156130ee576130ee6130b6565b60405290565b604051606081016001600160401b03811182821017156130ee576130ee6130b6565b604051601f8201601f191681016001600160401b038111828210171561313e5761313e6130b6565b604052919050565b60006001600160401b0382111561315f5761315f6130b6565b50601f01601f191660200190565b600061318061317b84613146565b613116565b905082815283838301111561319457600080fd5b828260208301376000602084830101529392505050565b600082601f8301126131bc57600080fd5b6126418383356020850161316d565b600080600080608085870312156131e157600080fd5b84356131ec81612c6e565b935060208501356131fc81612c6e565b92506040850135915060608501356001600160401b0381111561321e57600080fd5b61322a878288016131ab565b91505092959194509250565b60008083601f84011261324857600080fd5b5081356001600160401b0381111561325f57600080fd5b6020830191508360208260051b8501011115610d7557600080fd5b6000806020838503121561328d57600080fd5b82356001600160401b038111156132a357600080fd5b612f9d85828601613236565b6000602082840312156132c157600080fd5b61264182612ecb565b600080600080606085870312156132e057600080fd5b6132e985612ecb565b93506132f760208601612f23565b925060408501356001600160401b0381111561331257600080fd5b61331e87828801612cc7565b95989497509550505050565b6000806040838503121561333d57600080fd5b82356001600160401b0381111561335357600080fd5b61335f85828601612da7565b92505060208301356130ab8161306f565b815181526020808301519082015260408101610a21565b6000806040838503121561339a57600080fd5b82356133a581612c6e565b915060208301356130ab81612c6e565b6000602082840312156133c757600080fd5b81356001600160401b038111156133dd57600080fd5b8201601f810184136133ee57600080fd5b6111308482356020840161316d565b60006060828403121561340f57600080fd5b6126418383612caf565b600181811c9082168061342d57607f821691505b602082108103612cc157634e487b7160e01b600052602260045260246000fd5b60006040828403121561345f57600080fd5b6134676130cc565b82358152602083013560208201528091505092915050565b8082028115828204841417610a2157634e487b7160e01b600052601160045260246000fd5b6000826134c157634e487b7160e01b600052601260045260246000fd5b500490565b601f821115610dbb576000816000526020600020601f850160051c810160208610156134ef5750805b601f850160051c820191505b818110156121b1578281556001016134fb565b6001600160401b03831115613525576135256130b6565b613539836135338354613419565b836134c6565b6000601f84116001811461356d57600085156135555750838201355b600019600387901b1c1916600186901b17835561163c565b600083815260209020601f19861690835b8281101561359e578685013582556020948501946001909201910161357e565b50868210156135bb5760001960f88860031b161c19848701351681555b505060018560011b0183555050505050565b60006020808352600084546135e181613419565b8060208701526040600180841660008114613603576001811461361f5761364f565b60ff19851660408a0152604084151560051b8a0101955061364f565b89600052602060002060005b858110156136465781548b820186015290830190880161362b565b8a016040019650505b509398975050505050505050565b60006001600160401b0380841115613677576136776130b6565b8360051b6020613688818301613116565b8681529185019181810190368411156136a057600080fd5b865b84811015613726578035868111156136ba5760008081fd5b880160603682900312156136ce5760008081fd5b6136d66130f4565b6136df82612ecb565b81526136ec868301612f23565b86820152604080830135898111156137045760008081fd5b613710368286016131ab565b91830191909152508452509183019183016136a2565b50979650505050505050565b6000808585111561374257600080fd5b8386111561374f57600080fd5b5050820193919092039150565b6000845161376e818460208901612bf2565b8201838582376000930192835250909392505050565b81835281816020850137506000828201602090810191909152601f909101601f19169091010190565b602081526000611130602083018486613784565b634e487b7160e01b600052603260045260246000fd5b6000823561013e198336030181126137ee57600080fd5b9190910192915050565b6000808335601e1984360301811261380f57600080fd5b8301803591506001600160401b0382111561382957600080fd5b602001915036819003821315610d7557600080fd5b6001600160401b038116811461173157600080fd5b63ffffffff61386189612ecb565b168152602088013560208201526000604089013561387e8161383e565b6001600160401b03811660408401525087606083015260e060808301526138a960e083018789613784565b6001600160a01b03861660a084015282810360c08401526138cb818587613784565b9a9950505050505050505050565b6000602082840312156138eb57600080fd5b81516001600160401b0381111561390157600080fd5b8201601f8101841361391257600080fd5b805161392061317b82613146565b81815285602083850101111561393557600080fd5b611510826020830160208601612bf2565b6000815461395381613419565b6001828116801561396b5760018114613980576139af565b60ff19841687528215158302870194506139af565b8560005260208060002060005b858110156139a65781548a82015290840190820161398d565b50505082870194505b5050505092915050565b60006139c58286613946565b6963756c742d626561722d60b01b815284516139e881600a840160208901612bf2565b611cac600a8284010186613946565b81516001600160401b03811115613a1057613a106130b6565b613a2481613a1e8454613419565b846134c6565b602080601f831160018114613a595760008415613a415750858301515b600019600386901b1c1916600185901b1785556121b1565b600085815260208120601f198616915b82811015613a8857888601518255948401946001909101908401613a69565b5085821015613aa65787850151600019600388901b60f8161c191681555b5050505050600190811b01905550565b600060208284031215613ac857600080fd5b81356126418161383e565b60018060a01b038516815283602082015261ffff83166040820152608060608201526000613b046080830184612c16565b9695505050505050565b604081526000613b216040830185612c16565b82810360208401526115108185612c16565b600060208284031215613b4557600080fd5b81516126418161306f565b6040815263ffffffff8351166040820152602083015160608201526000604084015160a06080840152613b8660e0840182612c16565b90506060850151603f198483030160a0850152613ba38282612c16565b60809690960151151560c08501525050506001600160a01b039190911660209091015290565b600060408284031215613bdb57600080fd5b613be36130cc565b9050815181526020820151602082015292915050565b600060808284031215613c0b57600080fd5b613c136130f4565b825181526020830151613c258161383e565b6020820152613c378460408501613bc9565b60408201529392505050565b6001600160a01b0385811682528416602082015260408101839052608060608201819052600090613b0490830184612c16565b600060208284031215613c8857600080fd5b815161264181612bbf565b600060208083018184528085518083526040925060408601915060408160051b87010184880160005b83811015613d1057888303603f190185528151805163ffffffff1684528781015161ffff16888501528601516060878501819052613cfc81860183612c16565b968901969450505090860190600101613cbc565b509098975050505050505050565b600060408284031215613d3057600080fd5b6126418383613bc9565b600060208284031215613d4c57600080fd5b815161264181612c6e565b80356020831015610a2157600019602084900360031b1b1692915050565b60c084901b6001600160c01b031916815260e083901b6001600160e01b03191660088201528151600090613db081600c850160208701612bf2565b91909101600c01949350505050565b84815283602082015282604082015260008251613de3816060850160208701612bf2565b919091016060019594505050505056fea26469706673582212203cbe81278ca3f9bda40941d7948b2317eaa78591041173aee829ad03a315b4f964736f6c63430008160033",
  "devdoc": {
    "errors": {
      "ERC2981InvalidDefaultRoyalty(uint256,uint256)": [
        {
          "details": "The default royalty set is invalid (eg. (numerator / denominator) >= 1)."
        }
      ],
      "ERC2981InvalidDefaultRoyaltyReceiver(address)": [
        {
          "details": "The default royalty receiver is invalid."
        }
      ],
      "ERC2981InvalidTokenRoyalty(uint256,uint256,uint256)": [
        {
          "details": "The royalty set for an specific `tokenId` is invalid (eg. (numerator / denominator) >= 1)."
        }
      ],
      "ERC2981InvalidTokenRoyaltyReceiver(uint256,address)": [
        {
          "details": "The royalty receiver for `tokenId` is invalid."
        }
      ],
      "ERC721IncorrectOwner(address,uint256,address)": [
        {
          "details": "Indicates an error related to the ownership over a particular token. Used in transfers.",
          "params": {
            "owner": "Address of the current owner of a token.",
            "sender": "Address whose tokens are being transferred.",
            "tokenId": "Identifier number of a token."
          }
        }
      ],
      "ERC721InsufficientApproval(address,uint256)": [
        {
          "details": "Indicates a failure with the `operator`s approval. Used in transfers.",
          "params": {
            "operator": "Address that may be allowed to operate on tokens without being their owner.",
            "tokenId": "Identifier number of a token."
          }
        }
      ],
      "ERC721InvalidApprover(address)": [
        {
          "details": "Indicates a failure with the `approver` of a token to be approved. Used in approvals.",
          "params": {
            "approver": "Address initiating an approval operation."
          }
        }
      ],
      "ERC721InvalidOperator(address)": [
        {
          "details": "Indicates a failure with the `operator` to be approved. Used in approvals.",
          "params": {
            "operator": "Address that may be allowed to operate on tokens without being their owner."
          }
        }
      ],
      "ERC721InvalidOwner(address)": [
        {
          "details": "Indicates that an address can't be an owner. For example, `address(0)` is a forbidden owner in ERC-20. Used in balance queries.",
          "params": {
            "owner": "Address of the current owner of a token."
          }
        }
      ],
      "ERC721InvalidReceiver(address)": [
        {
          "details": "Indicates a failure with the token `receiver`. Used in transfers.",
          "params": {
            "receiver": "Address to which tokens are being transferred."
          }
        }
      ],
      "ERC721InvalidSender(address)": [
        {
          "details": "Indicates a failure with the token `sender`. Used in transfers.",
          "params": {
            "sender": "Address whose tokens are being transferred."
          }
        }
      ],
      "ERC721NonexistentToken(uint256)": [
        {
          "details": "Indicates a `tokenId` whose `owner` is the zero address.",
          "params": {
            "tokenId": "Identifier number of a token."
          }
        }
      ],
      "EnforcedPause()": [
        {
          "details": "The operation failed because the contract is paused."
        }
      ],
      "ExpectedPause()": [
        {
          "details": "The operation failed because the contract is not paused."
        }
      ],
      "OwnableInvalidOwner(address)": [
        {
          "details": "The owner is not a valid owner account. (eg. `address(0)`)"
        }
      ],
      "OwnableUnauthorizedAccount(address)": [
        {
          "details": "The caller account is not authorized to perform an operation."
        }
      ],
      "SafeERC20FailedOperation(address)": [
        {
          "details": "An operation with an ERC-20 token failed."
        }
      ]
    },
    "events": {
      "Approval(address,address,uint256)": {
        "details": "Emitted when `owner` enables `approved` to manage the `tokenId` token."
      },
      "ApprovalForAll(address,address,bool)": {
        "details": "Emitted when `owner` enables or disables (`approved`) `operator` to manage all of its assets."
      },
      "Paused(address)": {
        "details": "Emitted when the pause is triggered by `account`."
      },
      "PreCrimeSet(address)": {
        "details": "Emitted when the preCrime contract address is set.",
        "params": {
          "preCrimeAddress": "The address of the preCrime contract."
        }
      },
      "Transfer(address,address,uint256)": {
        "details": "Emitted when `tokenId` token is transferred from `from` to `to`."
      },
      "Unpaused(address)": {
        "details": "Emitted when the pause is lifted by `account`."
      }
    },
    "kind": "dev",
    "methods": {
      "allowInitializePath((uint32,bytes32,uint64))": {
        "details": "This indicates to the endpoint that the OApp has enabled msgs for this particular path to be received.This defaults to assuming if a peer has been set, its initialized. Can be overridden by the OApp if there is other logic to determine this.",
        "params": {
          "origin": "The origin information containing the source endpoint and sender address."
        },
        "returns": {
          "_0": "Whether the path has been initialized."
        }
      },
      "approvalRequired()": {
        "details": "In the case of ONFT where the contract IS the token, approval is NOT required.",
        "returns": {
          "_0": "requiresApproval Needs approval of the underlying token implementation."
        }
      },
      "approve(address,uint256)": {
        "details": "See {IERC721-approve}."
      },
      "balanceOf(address)": {
        "details": "See {IERC721-balanceOf}."
      },
      "combineOptions(uint32,uint16,bytes)": {
        "details": "If there is an enforced lzReceive option: - {gasLimit: 200k, msg.value: 1 ether} AND a caller supplies a lzReceive option: {gasLimit: 100k, msg.value: 0.5 ether} - The resulting options will be {gasLimit: 300k, msg.value: 1.5 ether} when the message is executed on the remote lzReceive() function.This presence of duplicated options is handled off-chain in the verifier/executor.",
        "params": {
          "_eid": "The endpoint ID.",
          "_extraOptions": "Additional options passed by the caller.",
          "_msgType": "The OAPP message type."
        },
        "returns": {
          "_0": "options The combination of caller specified options AND enforced options."
        }
      },
      "getApproved(uint256)": {
        "details": "See {IERC721-getApproved}."
      },
      "isApprovedForAll(address,address)": {
        "details": "See {IERC721-isApprovedForAll}."
      },
      "isComposeMsgSender((uint32,bytes32,uint64),bytes,address)": {
        "details": "_origin The origin information containing the source endpoint and sender address.  - srcEid: The source chain endpoint ID.  - sender: The sender address on the src chain.  - nonce: The nonce of the message._message The lzReceive payload.Applications can optionally choose to implement separate composeMsg senders that are NOT the bridging layer.The default sender IS the OAppReceiver implementer.",
        "params": {
          "_sender": "The sender address."
        },
        "returns": {
          "_0": "isSender Is a valid sender."
        }
      },
      "isPeer(uint32,bytes32)": {
        "details": "Check if the peer is considered 'trusted' by the OApp.Enables OAppPreCrimeSimulator to check whether a potential Inbound Packet is from a trusted source.",
        "params": {
          "_eid": "The endpoint ID to check.",
          "_peer": "The peer to check."
        },
        "returns": {
          "_0": "Whether the peer passed is considered 'trusted' by the OApp."
        }
      },
      "lzReceive((uint32,bytes32,uint64),bytes32,bytes,address,bytes)": {
        "details": "Entry point for receiving messages or packets from the endpoint.Entry point for receiving msg/packet from the LayerZero endpoint.",
        "params": {
          "_executor": "The address of the executor for the received message.",
          "_extraData": "Additional arbitrary data provided by the corresponding executor.",
          "_guid": "The unique identifier for the received LayerZero message.",
          "_message": "The payload of the received message.",
          "_origin": "The origin information containing the source endpoint and sender address.  - srcEid: The source chain endpoint ID.  - sender: The sender address on the src chain.  - nonce: The nonce of the message."
        }
      },
      "lzReceiveAndRevert(((uint32,bytes32,uint64),uint32,address,bytes32,uint256,address,bytes,bytes)[])": {
        "details": "Interface for pre-crime simulations. Always reverts at the end with the simulation results.WARNING: MUST revert at the end with the simulation results.Gives the preCrime implementation the ability to mock sending packets to the lzReceive function, WITHOUT actually executing them.",
        "params": {
          "_packets": "An array of InboundPacket objects representing received packets to be delivered."
        }
      },
      "lzReceiveSimulate((uint32,bytes32,uint64),bytes32,bytes,address,bytes)": {
        "details": "Is effectively an internal function because msg.sender must be address(this). Allows resetting the call stack for 'internal' calls.",
        "params": {
          "_executor": "The executor address for the packet.",
          "_extraData": "Additional data for the packet.",
          "_guid": "The unique identifier of the packet.",
          "_message": "The message payload of the packet.",
          "_origin": "The origin information containing the source endpoint and sender address.  - srcEid: The source chain endpoint ID.  - sender: The sender address on the src chain.  - nonce: The nonce of the message."
        }
      },
      "name()": {
        "details": "See {IERC721Metadata-name}."
      },
      "nextNonce(uint32,bytes32)": {
        "details": "_srcEid The source endpoint ID._sender The sender address.The path nonce starts from 1. If 0 is returned it means that there is NO nonce ordered enforcement.Is required by the off-chain executor to determine the OApp expects msg execution is ordered.This is also enforced by the OApp.By default this is NOT enabled. ie. nextNonce is hardcoded to return 0.",
        "returns": {
          "nonce": "The next nonce."
        }
      },
      "oApp()": {
        "details": "Retrieves the address of the OApp contract.The simulator contract is the base contract for the OApp by default.If the simulator is a separate contract, override this function.",
        "returns": {
          "_0": "The address of the OApp contract."
        }
      },
      "oAppVersion()": {
        "returns": {
          "receiverVersion": "The version of the OAppReceiver.sol implementation.",
          "senderVersion": "The version of the OAppSender.sol implementation."
        }
      },
      "onftVersion()": {
        "details": "version: Indicates a cross-chain compatible msg encoding with other ONFTs.If a new feature is added to the ONFT cross-chain msg encoding, the version will be incremented.ie. localONFT version(x,1) CAN send messages to remoteONFT version(x,1)",
        "returns": {
          "interfaceId": "The interface ID (0x23e18da6).",
          "version": "The version."
        }
      },
      "owner()": {
        "details": "Returns the address of the current owner."
      },
      "ownerOf(uint256)": {
        "details": "See {IERC721-ownerOf}."
      },
      "paused()": {
        "details": "Returns true if the contract is paused, and false otherwise."
      },
      "quoteSend((uint32,bytes32,uint256,bytes,bytes,bytes),bool)": {
        "details": "MessagingFee: LayerZero msg fee  - nativeFee: The native fee.  - lzTokenFee: The lzToken fee.",
        "params": {
          "_payInLzToken": "Flag indicating whether the caller is paying in the LZ token.",
          "_sendParam": "The parameters for the send() operation."
        },
        "returns": {
          "msgFee": "fee The calculated LayerZero messaging fee from the send() operation."
        }
      },
      "renounceOwnership()": {
        "details": "Leaves the contract without owner. It will not be possible to call `onlyOwner` functions. Can only be called by the current owner. NOTE: Renouncing ownership will leave the contract without an owner, thereby disabling any functionality that is only available to the owner."
      },
      "royaltyInfo(uint256,uint256)": {
        "details": "Returns how much royalty is owed and to whom, based on a sale price that may be denominated in any unit of exchange. The royalty amount is denominated and should be paid in that same unit of exchange. NOTE: ERC-2981 allows setting the royalty to 100% of the price. In that case all the price would be sent to the royalty receiver and 0 tokens to the seller. Contracts dealing with royalty should consider empty transfers."
      },
      "safeTransferFrom(address,address,uint256)": {
        "details": "See {IERC721-safeTransferFrom}."
      },
      "safeTransferFrom(address,address,uint256,bytes)": {
        "details": "See {IERC721-safeTransferFrom}."
      },
      "send((uint32,bytes32,uint256,bytes,bytes,bytes),(uint256,uint256),address)": {
        "details": "MessagingReceipt: LayerZero msg receipt  - guid: The unique identifier for the sent message.  - nonce: The nonce of the sent message.  - fee: The LayerZero fee incurred for the message.",
        "params": {
          "_fee": "The fee information supplied by the caller.      - nativeFee: The native fee.      - lzTokenFee: The lzToken fee.",
          "_refundAddress": "The address to receive any excess funds from fees etc. on the src.",
          "_sendParam": "The parameters for the send operation."
        },
        "returns": {
          "msgReceipt": "receipt The LayerZero messaging receipt from the send() operation."
        }
      },
      "setApprovalForAll(address,bool)": {
        "details": "See {IERC721-setApprovalForAll}."
      },
      "setDelegate(address)": {
        "details": "Only the owner/admin of the OApp can call this function.Provides the ability for a delegate to set configs, on behalf of the OApp, directly on the Endpoint contract.",
        "params": {
          "_delegate": "The address of the delegate to be set."
        }
      },
      "setEnforcedOptions((uint32,uint16,bytes)[])": {
        "details": "Sets the enforced options for specific endpoint and message type combinations.Only the owner/admin of the OApp can call this function.Provides a way for the OApp to enforce things like paying for PreCrime, AND/OR minimum dst lzReceive gas amounts etc.These enforced options can vary as the potential options/execution on the remote may differ as per the msgType. eg. Amount of lzReceive() gas necessary to deliver a lzCompose() message adds overhead you dont want to pay if you are only making a standard LayerZero message ie. lzReceive() WITHOUT sendCompose().",
        "params": {
          "_enforcedOptions": "An array of EnforcedOptionParam structures specifying enforced options."
        }
      },
      "setMsgInspector(address)": {
        "details": "This is an optional contract that can be used to inspect both 'message' and 'options'.Set it to address(0) to disable it, or set it to a contract address to enable it.",
        "params": {
          "_msgInspector": "The address of the message inspector."
        }
      },
      "setPeer(uint32,bytes32)": {
        "details": "Only the owner/admin of the OApp can call this function.Indicates that the peer is trusted to send LayerZero messages to this OApp.Set this to bytes32(0) to remove the peer address.Peer is a bytes32 to accommodate non-evm chains.",
        "params": {
          "_eid": "The endpoint ID.",
          "_peer": "The address of the peer to be associated with the corresponding endpoint."
        }
      },
      "setPreCrime(address)": {
        "details": "Sets the preCrime contract address.",
        "params": {
          "_preCrime": "The address of the preCrime contract."
        }
      },
      "symbol()": {
        "details": "See {IERC721Metadata-symbol}."
      },
      "tokenURI(uint256)": {
        "details": "See {IERC721Metadata-tokenURI}."
      },
      "transferFrom(address,address,uint256)": {
        "details": "See {IERC721-transferFrom}."
      },
      "transferOwnership(address)": {
        "details": "Transfers ownership of the contract to a new account (`newOwner`). Can only be called by the current owner."
      }
    },
    "version": 1
  },
  "userdoc": {
    "kind": "user",
    "methods": {
      "allowInitializePath((uint32,bytes32,uint64))": {
        "notice": "Checks if the path initialization is allowed based on the provided origin."
      },
      "approvalRequired()": {
        "notice": "Indicates whether the ONFT721 contract requires approval of the 'token()' to send."
      },
      "combineOptions(uint32,uint16,bytes)": {
        "notice": "Combines options for a given endpoint and message type."
      },
      "endpoint()": {
        "notice": "Retrieves the LayerZero endpoint associated with the OApp."
      },
      "isComposeMsgSender((uint32,bytes32,uint64),bytes,address)": {
        "notice": "Indicates whether an address is an approved composeMsg sender to the Endpoint."
      },
      "nextNonce(uint32,bytes32)": {
        "notice": "Retrieves the next nonce for a given source endpoint and sender address."
      },
      "oAppVersion()": {
        "notice": "Retrieves the OApp version information."
      },
      "onftVersion()": {
        "notice": "Retrieves interfaceID and the version of the ONFT."
      },
      "peers(uint32)": {
        "notice": "Retrieves the peer (OApp) associated with a corresponding endpoint."
      },
      "quoteSend((uint32,bytes32,uint256,bytes,bytes,bytes),bool)": {
        "notice": "Provides a quote for the send() operation."
      },
      "send((uint32,bytes32,uint256,bytes,bytes,bytes),(uint256,uint256),address)": {
        "notice": "Executes the send() operation."
      },
      "setDelegate(address)": {
        "notice": "Sets the delegate address for the OApp."
      },
      "setMsgInspector(address)": {
        "notice": "Sets the message inspector address for the OFT."
      },
      "setPeer(uint32,bytes32)": {
        "notice": "Sets the peer address (OApp instance) for a corresponding endpoint."
      },
      "token()": {
        "notice": "Retrieves the address of the underlying ERC721 implementation (ie. this contract)."
      }
    },
    "version": 1
  },
  "storageLayout": {
    "storage": [
      {
        "astId": 3534,
        "contract": "contracts/CultBearsV2.sol:CultBearsV2",
        "label": "_owner",
        "offset": 0,
        "slot": "0",
        "type": "t_address"
      },
      {
        "astId": 1390,
        "contract": "contracts/CultBearsV2.sol:CultBearsV2",
        "label": "peers",
        "offset": 0,
        "slot": "1",
        "type": "t_mapping(t_uint32,t_bytes32)"
      },
      {
        "astId": 2166,
        "contract": "contracts/CultBearsV2.sol:CultBearsV2",
        "label": "preCrime",
        "offset": 0,
        "slot": "2",
        "type": "t_address"
      },
      {
        "astId": 2006,
        "contract": "contracts/CultBearsV2.sol:CultBearsV2",
        "label": "enforcedOptions",
        "offset": 0,
        "slot": "3",
        "type": "t_mapping(t_uint32,t_mapping(t_uint16,t_bytes_storage))"
      },
      {
        "astId": 2929,
        "contract": "contracts/CultBearsV2.sol:CultBearsV2",
        "label": "msgInspector",
        "offset": 0,
        "slot": "4",
        "type": "t_address"
      },
      {
        "astId": 4442,
        "contract": "contracts/CultBearsV2.sol:CultBearsV2",
        "label": "_name",
        "offset": 0,
        "slot": "5",
        "type": "t_string_storage"
      },
      {
        "astId": 4444,
        "contract": "contracts/CultBearsV2.sol:CultBearsV2",
        "label": "_symbol",
        "offset": 0,
        "slot": "6",
        "type": "t_string_storage"
      },
      {
        "astId": 4448,
        "contract": "contracts/CultBearsV2.sol:CultBearsV2",
        "label": "_owners",
        "offset": 0,
        "slot": "7",
        "type": "t_mapping(t_uint256,t_address)"
      },
      {
        "astId": 4452,
        "contract": "contracts/CultBearsV2.sol:CultBearsV2",
        "label": "_balances",
        "offset": 0,
        "slot": "8",
        "type": "t_mapping(t_address,t_uint256)"
      },
      {
        "astId": 4456,
        "contract": "contracts/CultBearsV2.sol:CultBearsV2",
        "label": "_tokenApprovals",
        "offset": 0,
        "slot": "9",
        "type": "t_mapping(t_uint256,t_address)"
      },
      {
        "astId": 4462,
        "contract": "contracts/CultBearsV2.sol:CultBearsV2",
        "label": "_operatorApprovals",
        "offset": 0,
        "slot": "10",
        "type": "t_mapping(t_address,t_mapping(t_address,t_bool))"
      },
      {
        "astId": 2766,
        "contract": "contracts/CultBearsV2.sol:CultBearsV2",
        "label": "baseTokenURI",
        "offset": 0,
        "slot": "11",
        "type": "t_string_storage"
      },
      {
        "astId": 5626,
        "contract": "contracts/CultBearsV2.sol:CultBearsV2",
        "label": "_defaultRoyaltyInfo",
        "offset": 0,
        "slot": "12",
        "type": "t_struct(RoyaltyInfo)5623_storage"
      },
      {
        "astId": 5631,
        "contract": "contracts/CultBearsV2.sol:CultBearsV2",
        "label": "_tokenRoyaltyInfo",
        "offset": 0,
        "slot": "13",
        "type": "t_mapping(t_uint256,t_struct(RoyaltyInfo)5623_storage)"
      },
      {
        "astId": 6245,
        "contract": "contracts/CultBearsV2.sol:CultBearsV2",
        "label": "_paused",
        "offset": 0,
        "slot": "14",
        "type": "t_bool"
      },
      {
        "astId": 10316,
        "contract": "contracts/CultBearsV2.sol:CultBearsV2",
        "label": "baseURI",
        "offset": 0,
        "slot": "15",
        "type": "t_string_storage"
      },
      {
        "astId": 10319,
        "contract": "contracts/CultBearsV2.sol:CultBearsV2",
        "label": "fileExtension",
        "offset": 0,
        "slot": "16",
        "type": "t_string_storage"
      }
    ],
    "types": {
      "t_address": {
        "encoding": "inplace",
        "label": "address",
        "numberOfBytes": "20"
      },
      "t_bool": {
        "encoding": "inplace",
        "label": "bool",
        "numberOfBytes": "1"
      },
      "t_bytes32": {
        "encoding": "inplace",
        "label": "bytes32",
        "numberOfBytes": "32"
      },
      "t_bytes_storage": {
        "encoding": "bytes",
        "label": "bytes",
        "numberOfBytes": "32"
      },
      "t_mapping(t_address,t_bool)": {
        "encoding": "mapping",
        "key": "t_address",
        "label": "mapping(address => bool)",
        "numberOfBytes": "32",
        "value": "t_bool"
      },
      "t_mapping(t_address,t_mapping(t_address,t_bool))": {
        "encoding": "mapping",
        "key": "t_address",
        "label": "mapping(address => mapping(address => bool))",
        "numberOfBytes": "32",
        "value": "t_mapping(t_address,t_bool)"
      },
      "t_mapping(t_address,t_uint256)": {
        "encoding": "mapping",
        "key": "t_address",
        "label": "mapping(address => uint256)",
        "numberOfBytes": "32",
        "value": "t_uint256"
      },
      "t_mapping(t_uint16,t_bytes_storage)": {
        "encoding": "mapping",
        "key": "t_uint16",
        "label": "mapping(uint16 => bytes)",
        "numberOfBytes": "32",
        "value": "t_bytes_storage"
      },
      "t_mapping(t_uint256,t_address)": {
        "encoding": "mapping",
        "key": "t_uint256",
        "label": "mapping(uint256 => address)",
        "numberOfBytes": "32",
        "value": "t_address"
      },
      "t_mapping(t_uint256,t_struct(RoyaltyInfo)5623_storage)": {
        "encoding": "mapping",
        "key": "t_uint256",
        "label": "mapping(uint256 => struct ERC2981.RoyaltyInfo)",
        "numberOfBytes": "32",
        "value": "t_struct(RoyaltyInfo)5623_storage"
      },
      "t_mapping(t_uint32,t_bytes32)": {
        "encoding": "mapping",
        "key": "t_uint32",
        "label": "mapping(uint32 => bytes32)",
        "numberOfBytes": "32",
        "value": "t_bytes32"
      },
      "t_mapping(t_uint32,t_mapping(t_uint16,t_bytes_storage))": {
        "encoding": "mapping",
        "key": "t_uint32",
        "label": "mapping(uint32 => mapping(uint16 => bytes))",
        "numberOfBytes": "32",
        "value": "t_mapping(t_uint16,t_bytes_storage)"
      },
      "t_string_storage": {
        "encoding": "bytes",
        "label": "string",
        "numberOfBytes": "32"
      },
      "t_struct(RoyaltyInfo)5623_storage": {
        "encoding": "inplace",
        "label": "struct ERC2981.RoyaltyInfo",
        "members": [
          {
            "astId": 5620,
            "contract": "contracts/CultBearsV2.sol:CultBearsV2",
            "label": "receiver",
            "offset": 0,
            "slot": "0",
            "type": "t_address"
          },
          {
            "astId": 5622,
            "contract": "contracts/CultBearsV2.sol:CultBearsV2",
            "label": "royaltyFraction",
            "offset": 20,
            "slot": "0",
            "type": "t_uint96"
          }
        ],
        "numberOfBytes": "32"
      },
      "t_uint16": {
        "encoding": "inplace",
        "label": "uint16",
        "numberOfBytes": "2"
      },
      "t_uint256": {
        "encoding": "inplace",
        "label": "uint256",
        "numberOfBytes": "32"
      },
      "t_uint32": {
        "encoding": "inplace",
        "label": "uint32",
        "numberOfBytes": "4"
      },
      "t_uint96": {
        "encoding": "inplace",
        "label": "uint96",
        "numberOfBytes": "12"
      }
    }
  }
}