{
  "address": "0x66fF7f6Fa24A73fFe916071FF8FDac0C6A2118dd",
  "abi": [
    {
      "inputs": [
        {
          "internalType": "string",
          "name": "_name",
          "type": "string"
        },
        {
          "internalType": "string",
          "name": "_symbol",
          "type": "string"
        },
        {
          "internalType": "address",
          "name": "_lzEndpoint",
          "type": "address"
        },
        {
          "internalType": "address",
          "name": "_delegate",
          "type": "address"
        },
        {
          "internalType": "string",
          "name": "initialBaseURI",
          "type": "string"
        },
        {
          "internalType": "address",
          "name": "_initialTreasuryWallet",
          "type": "address"
        }
      ],
      "stateMutability": "nonpayable",
      "type": "constructor"
    },
    {
      "inputs": [
        {
          "internalType": "uint256",
          "name": "numerator",
          "type": "uint256"
        },
        {
          "internalType": "uint256",
          "name": "denominator",
          "type": "uint256"
        }
      ],
      "name": "ERC2981InvalidDefaultRoyalty",
      "type": "error"
    },
    {
      "inputs": [
        {
          "internalType": "address",
          "name": "receiver",
          "type": "address"
        }
      ],
      "name": "ERC2981InvalidDefaultRoyaltyReceiver",
      "type": "error"
    },
    {
      "inputs": [
        {
          "internalType": "uint256",
          "name": "tokenId",
          "type": "uint256"
        },
        {
          "internalType": "uint256",
          "name": "numerator",
          "type": "uint256"
        },
        {
          "internalType": "uint256",
          "name": "denominator",
          "type": "uint256"
        }
      ],
      "name": "ERC2981InvalidTokenRoyalty",
      "type": "error"
    },
    {
      "inputs": [
        {
          "internalType": "uint256",
          "name": "tokenId",
          "type": "uint256"
        },
        {
          "internalType": "address",
          "name": "receiver",
          "type": "address"
        }
      ],
      "name": "ERC2981InvalidTokenRoyaltyReceiver",
      "type": "error"
    },
    {
      "inputs": [
        {
          "internalType": "address",
          "name": "sender",
          "type": "address"
        },
        {
          "internalType": "uint256",
          "name": "tokenId",
          "type": "uint256"
        },
        {
          "internalType": "address",
          "name": "owner",
          "type": "address"
        }
      ],
      "name": "ERC721IncorrectOwner",
      "type": "error"
    },
    {
      "inputs": [
        {
          "internalType": "address",
          "name": "operator",
          "type": "address"
        },
        {
          "internalType": "uint256",
          "name": "tokenId",
          "type": "uint256"
        }
      ],
      "name": "ERC721InsufficientApproval",
      "type": "error"
    },
    {
      "inputs": [
        {
          "internalType": "address",
          "name": "approver",
          "type": "address"
        }
      ],
      "name": "ERC721InvalidApprover",
      "type": "error"
    },
    {
      "inputs": [
        {
          "internalType": "address",
          "name": "operator",
          "type": "address"
        }
      ],
      "name": "ERC721InvalidOperator",
      "type": "error"
    },
    {
      "inputs": [
        {
          "internalType": "address",
          "name": "owner",
          "type": "address"
        }
      ],
      "name": "ERC721InvalidOwner",
      "type": "error"
    },
    {
      "inputs": [
        {
          "internalType": "address",
          "name": "receiver",
          "type": "address"
        }
      ],
      "name": "ERC721InvalidReceiver",
      "type": "error"
    },
    {
      "inputs": [
        {
          "internalType": "address",
          "name": "sender",
          "type": "address"
        }
      ],
      "name": "ERC721InvalidSender",
      "type": "error"
    },
    {
      "inputs": [
        {
          "internalType": "uint256",
          "name": "tokenId",
          "type": "uint256"
        }
      ],
      "name": "ERC721NonexistentToken",
      "type": "error"
    },
    {
      "inputs": [],
      "name": "EnforcedPause",
      "type": "error"
    },
    {
      "inputs": [],
      "name": "ExpectedPause",
      "type": "error"
    },
    {
      "inputs": [],
      "name": "InvalidDelegate",
      "type": "error"
    },
    {
      "inputs": [],
      "name": "InvalidEndpointCall",
      "type": "error"
    },
    {
      "inputs": [
        {
          "internalType": "bytes",
          "name": "options",
          "type": "bytes"
        }
      ],
      "name": "InvalidOptions",
      "type": "error"
    },
    {
      "inputs": [],
      "name": "InvalidReceiver",
      "type": "error"
    },
    {
      "inputs": [],
      "name": "LzTokenUnavailable",
      "type": "error"
    },
    {
      "inputs": [
        {
          "internalType": "uint32",
          "name": "eid",
          "type": "uint32"
        }
      ],
      "name": "NoPeer",
      "type": "error"
    },
    {
      "inputs": [
        {
          "internalType": "uint256",
          "name": "msgValue",
          "type": "uint256"
        }
      ],
      "name": "NotEnoughNative",
      "type": "error"
    },
    {
      "inputs": [
        {
          "internalType": "address",
          "name": "addr",
          "type": "address"
        }
      ],
      "name": "OnlyEndpoint",
      "type": "error"
    },
    {
      "inputs": [
        {
          "internalType": "address",
          "name": "caller",
          "type": "address"
        },
        {
          "internalType": "address",
          "name": "owner",
          "type": "address"
        }
      ],
      "name": "OnlyNFTOwner",
      "type": "error"
    },
    {
      "inputs": [
        {
          "internalType": "uint32",
          "name": "eid",
          "type": "uint32"
        },
        {
          "internalType": "bytes32",
          "name": "sender",
          "type": "bytes32"
        }
      ],
      "name": "OnlyPeer",
      "type": "error"
    },
    {
      "inputs": [],
      "name": "OnlySelf",
      "type": "error"
    },
    {
      "inputs": [
        {
          "internalType": "address",
          "name": "owner",
          "type": "address"
        }
      ],
      "name": "OwnableInvalidOwner",
      "type": "error"
    },
    {
      "inputs": [
        {
          "internalType": "address",
          "name": "account",
          "type": "address"
        }
      ],
      "name": "OwnableUnauthorizedAccount",
      "type": "error"
    },
    {
      "inputs": [],
      "name": "ReentrancyGuardReentrantCall",
      "type": "error"
    },
    {
      "inputs": [
        {
          "internalType": "address",
          "name": "token",
          "type": "address"
        }
      ],
      "name": "SafeERC20FailedOperation",
      "type": "error"
    },
    {
      "inputs": [
        {
          "internalType": "bytes",
          "name": "result",
          "type": "bytes"
        }
      ],
      "name": "SimulationResult",
      "type": "error"
    },
    {
      "anonymous": false,
      "inputs": [
        {
          "indexed": true,
          "internalType": "address",
          "name": "owner",
          "type": "address"
        },
        {
          "indexed": true,
          "internalType": "address",
          "name": "approved",
          "type": "address"
        },
        {
          "indexed": true,
          "internalType": "uint256",
          "name": "tokenId",
          "type": "uint256"
        }
      ],
      "name": "Approval",
      "type": "event"
    },
    {
      "anonymous": false,
      "inputs": [
        {
          "indexed": true,
          "internalType": "address",
          "name": "owner",
          "type": "address"
        },
        {
          "indexed": true,
          "internalType": "address",
          "name": "operator",
          "type": "address"
        },
        {
          "indexed": false,
          "internalType": "bool",
          "name": "approved",
          "type": "bool"
        }
      ],
      "name": "ApprovalForAll",
      "type": "event"
    },
    {
      "anonymous": false,
      "inputs": [
        {
          "indexed": false,
          "internalType": "string",
          "name": "baseURI",
          "type": "string"
        }
      ],
      "name": "BaseURISet",
      "type": "event"
    },
    {
      "anonymous": false,
      "inputs": [
        {
          "indexed": true,
          "internalType": "address",
          "name": "whitelistee",
          "type": "address"
        }
      ],
      "name": "BearlistedWhitelistAdded",
      "type": "event"
    },
    {
      "anonymous": false,
      "inputs": [
        {
          "indexed": true,
          "internalType": "address",
          "name": "whitelistee",
          "type": "address"
        }
      ],
      "name": "BearlistedWhitelistRemoved",
      "type": "event"
    },
    {
      "anonymous": false,
      "inputs": [
        {
          "components": [
            {
              "internalType": "uint32",
              "name": "eid",
              "type": "uint32"
            },
            {
              "internalType": "uint16",
              "name": "msgType",
              "type": "uint16"
            },
            {
              "internalType": "bytes",
              "name": "options",
              "type": "bytes"
            }
          ],
          "indexed": false,
          "internalType": "struct EnforcedOptionParam[]",
          "name": "_enforcedOptions",
          "type": "tuple[]"
        }
      ],
      "name": "EnforcedOptionSet",
      "type": "event"
    },
    {
      "anonymous": false,
      "inputs": [
        {
          "indexed": false,
          "internalType": "string",
          "name": "newExtension",
          "type": "string"
        }
      ],
      "name": "FileExtensionUpdated",
      "type": "event"
    },
    {
      "anonymous": false,
      "inputs": [
        {
          "indexed": true,
          "internalType": "address",
          "name": "to",
          "type": "address"
        },
        {
          "indexed": false,
          "internalType": "uint256",
          "name": "tokenId",
          "type": "uint256"
        }
      ],
      "name": "Minted",
      "type": "event"
    },
    {
      "anonymous": false,
      "inputs": [
        {
          "indexed": false,
          "internalType": "address",
          "name": "inspector",
          "type": "address"
        }
      ],
      "name": "MsgInspectorSet",
      "type": "event"
    },
    {
      "anonymous": false,
      "inputs": [
        {
          "indexed": true,
          "internalType": "address",
          "name": "whitelistee",
          "type": "address"
        }
      ],
      "name": "OGWhitelistAdded",
      "type": "event"
    },
    {
      "anonymous": false,
      "inputs": [
        {
          "indexed": true,
          "internalType": "address",
          "name": "whitelistee",
          "type": "address"
        }
      ],
      "name": "OGWhitelistRemoved",
      "type": "event"
    },
    {
      "anonymous": false,
      "inputs": [
        {
          "indexed": true,
          "internalType": "bytes32",
          "name": "guid",
          "type": "bytes32"
        },
        {
          "indexed": false,
          "internalType": "uint32",
          "name": "srcEid",
          "type": "uint32"
        },
        {
          "indexed": true,
          "internalType": "address",
          "name": "toAddress",
          "type": "address"
        },
        {
          "indexed": false,
          "internalType": "uint256",
          "name": "tokenId",
          "type": "uint256"
        }
      ],
      "name": "ONFTReceived",
      "type": "event"
    },
    {
      "anonymous": false,
      "inputs": [
        {
          "indexed": true,
          "internalType": "bytes32",
          "name": "guid",
          "type": "bytes32"
        },
        {
          "indexed": false,
          "internalType": "uint32",
          "name": "dstEid",
          "type": "uint32"
        },
        {
          "indexed": true,
          "internalType": "address",
          "name": "fromAddress",
          "type": "address"
        },
        {
          "indexed": false,
          "internalType": "uint256",
          "name": "tokenId",
          "type": "uint256"
        }
      ],
      "name": "ONFTSent",
      "type": "event"
    },
    {
      "anonymous": false,
      "inputs": [
        {
          "indexed": true,
          "internalType": "address",
          "name": "previousOwner",
          "type": "address"
        },
        {
          "indexed": true,
          "internalType": "address",
          "name": "newOwner",
          "type": "address"
        }
      ],
      "name": "OwnershipTransferred",
      "type": "event"
    },
    {
      "anonymous": false,
      "inputs": [
        {
          "indexed": false,
          "internalType": "address",
          "name": "account",
          "type": "address"
        }
      ],
      "name": "Paused",
      "type": "event"
    },
    {
      "anonymous": false,
      "inputs": [
        {
          "indexed": false,
          "internalType": "uint32",
          "name": "eid",
          "type": "uint32"
        },
        {
          "indexed": false,
          "internalType": "bytes32",
          "name": "peer",
          "type": "bytes32"
        }
      ],
      "name": "PeerSet",
      "type": "event"
    },
    {
      "anonymous": false,
      "inputs": [
        {
          "indexed": false,
          "internalType": "address",
          "name": "preCrimeAddress",
          "type": "address"
        }
      ],
      "name": "PreCrimeSet",
      "type": "event"
    },
    {
      "anonymous": false,
      "inputs": [
        {
          "indexed": false,
          "internalType": "enum CultBearsV2Base.TokenRarityType",
          "name": "rarity",
          "type": "uint8"
        },
        {
          "indexed": false,
          "internalType": "uint256",
          "name": "newPrice",
          "type": "uint256"
        }
      ],
      "name": "PrivateMintPriceUpdated",
      "type": "event"
    },
    {
      "anonymous": false,
      "inputs": [
        {
          "indexed": false,
          "internalType": "enum CultBearsV2Base.TokenRarityType",
          "name": "rarity",
          "type": "uint8"
        },
        {
          "indexed": false,
          "internalType": "uint256",
          "name": "newPrice",
          "type": "uint256"
        }
      ],
      "name": "PublicMintPriceUpdated",
      "type": "event"
    },
    {
      "anonymous": false,
      "inputs": [
        {
          "indexed": false,
          "internalType": "bool",
          "name": "isPublicMintAllowed",
          "type": "bool"
        }
      ],
      "name": "PublicMintToggled",
      "type": "event"
    },
    {
      "anonymous": false,
      "inputs": [
        {
          "indexed": true,
          "internalType": "address",
          "name": "receiver",
          "type": "address"
        },
        {
          "indexed": false,
          "internalType": "uint96",
          "name": "feeNumerator",
          "type": "uint96"
        }
      ],
      "name": "RoyaltySet",
      "type": "event"
    },
    {
      "anonymous": false,
      "inputs": [
        {
          "indexed": true,
          "internalType": "address",
          "name": "from",
          "type": "address"
        },
        {
          "indexed": true,
          "internalType": "address",
          "name": "to",
          "type": "address"
        },
        {
          "indexed": true,
          "internalType": "uint256",
          "name": "tokenId",
          "type": "uint256"
        }
      ],
      "name": "Transfer",
      "type": "event"
    },
    {
      "anonymous": false,
      "inputs": [
        {
          "indexed": true,
          "internalType": "address",
          "name": "oldWallet",
          "type": "address"
        },
        {
          "indexed": true,
          "internalType": "address",
          "name": "newWallet",
          "type": "address"
        }
      ],
      "name": "TreasuryWalletChanged",
      "type": "event"
    },
    {
      "anonymous": false,
      "inputs": [
        {
          "indexed": false,
          "internalType": "string",
          "name": "newBaseURI",
          "type": "string"
        }
      ],
      "name": "URIUpdated",
      "type": "event"
    },
    {
      "anonymous": false,
      "inputs": [
        {
          "indexed": false,
          "internalType": "address",
          "name": "account",
          "type": "address"
        }
      ],
      "name": "Unpaused",
      "type": "event"
    },
    {
      "stateMutability": "payable",
      "type": "fallback"
    },
    {
      "inputs": [],
      "name": "SEND",
      "outputs": [
        {
          "internalType": "uint16",
          "name": "",
          "type": "uint16"
        }
      ],
      "stateMutability": "view",
      "type": "function"
    },
    {
      "inputs": [],
      "name": "SEND_AND_COMPOSE",
      "outputs": [
        {
          "internalType": "uint16",
          "name": "",
          "type": "uint16"
        }
      ],
      "stateMutability": "view",
      "type": "function"
    },
    {
      "inputs": [
        {
          "internalType": "address",
          "name": "whitelistee",
          "type": "address"
        }
      ],
      "name": "addToBearlistedWhitelist",
      "outputs": [],
      "stateMutability": "nonpayable",
      "type": "function"
    },
    {
      "inputs": [
        {
          "internalType": "address",
          "name": "whitelistee",
          "type": "address"
        }
      ],
      "name": "addToOGWhitelist",
      "outputs": [],
      "stateMutability": "nonpayable",
      "type": "function"
    },
    {
      "inputs": [
        {
          "internalType": "address",
          "name": "to",
          "type": "address"
        },
        {
          "internalType": "uint256",
          "name": "tokenID",
          "type": "uint256"
        }
      ],
      "name": "airdrop",
      "outputs": [],
      "stateMutability": "nonpayable",
      "type": "function"
    },
    {
      "inputs": [
        {
          "internalType": "address",
          "name": "to",
          "type": "address"
        },
        {
          "internalType": "uint256[]",
          "name": "tokenIDs",
          "type": "uint256[]"
        }
      ],
      "name": "airdropMultiple",
      "outputs": [],
      "stateMutability": "nonpayable",
      "type": "function"
    },
    {
      "inputs": [
        {
          "components": [
            {
              "internalType": "uint32",
              "name": "srcEid",
              "type": "uint32"
            },
            {
              "internalType": "bytes32",
              "name": "sender",
              "type": "bytes32"
            },
            {
              "internalType": "uint64",
              "name": "nonce",
              "type": "uint64"
            }
          ],
          "internalType": "struct Origin",
          "name": "origin",
          "type": "tuple"
        }
      ],
      "name": "allowInitializePath",
      "outputs": [
        {
          "internalType": "bool",
          "name": "",
          "type": "bool"
        }
      ],
      "stateMutability": "view",
      "type": "function"
    },
    {
      "inputs": [],
      "name": "approvalRequired",
      "outputs": [
        {
          "internalType": "bool",
          "name": "",
          "type": "bool"
        }
      ],
      "stateMutability": "pure",
      "type": "function"
    },
    {
      "inputs": [
        {
          "internalType": "address",
          "name": "to",
          "type": "address"
        },
        {
          "internalType": "uint256",
          "name": "tokenId",
          "type": "uint256"
        }
      ],
      "name": "approve",
      "outputs": [],
      "stateMutability": "nonpayable",
      "type": "function"
    },
    {
      "inputs": [
        {
          "internalType": "address",
          "name": "owner",
          "type": "address"
        }
      ],
      "name": "balanceOf",
      "outputs": [
        {
          "internalType": "uint256",
          "name": "",
          "type": "uint256"
        }
      ],
      "stateMutability": "view",
      "type": "function"
    },
    {
      "inputs": [],
      "name": "baseURI",
      "outputs": [
        {
          "internalType": "string",
          "name": "",
          "type": "string"
        }
      ],
      "stateMutability": "view",
      "type": "function"
    },
    {
      "inputs": [
        {
          "internalType": "address",
          "name": "",
          "type": "address"
        }
      ],
      "name": "bearlistedWhitelist",
      "outputs": [
        {
          "internalType": "bool",
          "name": "",
          "type": "bool"
        }
      ],
      "stateMutability": "view",
      "type": "function"
    },
    {
      "inputs": [
        {
          "internalType": "address",
          "name": "_treasuryWallet",
          "type": "address"
        }
      ],
      "name": "changeTreasuryWallet",
      "outputs": [],
      "stateMutability": "nonpayable",
      "type": "function"
    },
    {
      "inputs": [
        {
          "internalType": "uint32",
          "name": "_eid",
          "type": "uint32"
        },
        {
          "internalType": "uint16",
          "name": "_msgType",
          "type": "uint16"
        },
        {
          "internalType": "bytes",
          "name": "_extraOptions",
          "type": "bytes"
        }
      ],
      "name": "combineOptions",
      "outputs": [
        {
          "internalType": "bytes",
          "name": "",
          "type": "bytes"
        }
      ],
      "stateMutability": "view",
      "type": "function"
    },
    {
      "inputs": [],
      "name": "endpoint",
      "outputs": [
        {
          "internalType": "contract ILayerZeroEndpointV2",
          "name": "",
          "type": "address"
        }
      ],
      "stateMutability": "view",
      "type": "function"
    },
    {
      "inputs": [
        {
          "internalType": "uint32",
          "name": "eid",
          "type": "uint32"
        },
        {
          "internalType": "uint16",
          "name": "msgType",
          "type": "uint16"
        }
      ],
      "name": "enforcedOptions",
      "outputs": [
        {
          "internalType": "bytes",
          "name": "enforcedOption",
          "type": "bytes"
        }
      ],
      "stateMutability": "view",
      "type": "function"
    },
    {
      "inputs": [],
      "name": "fileExtension",
      "outputs": [
        {
          "internalType": "string",
          "name": "",
          "type": "string"
        }
      ],
      "stateMutability": "view",
      "type": "function"
    },
    {
      "inputs": [
        {
          "internalType": "uint256",
          "name": "tokenId",
          "type": "uint256"
        }
      ],
      "name": "getApproved",
      "outputs": [
        {
          "internalType": "address",
          "name": "",
          "type": "address"
        }
      ],
      "stateMutability": "view",
      "type": "function"
    },
    {
      "inputs": [
        {
          "internalType": "enum CultBearsV2Base.TokenRarityType",
          "name": "rarityType",
          "type": "uint8"
        }
      ],
      "name": "getPrice",
      "outputs": [
        {
          "internalType": "uint256",
          "name": "",
          "type": "uint256"
        }
      ],
      "stateMutability": "view",
      "type": "function"
    },
    {
      "inputs": [
        {
          "internalType": "uint256",
          "name": "tokenId",
          "type": "uint256"
        }
      ],
      "name": "getRarity",
      "outputs": [
        {
          "internalType": "enum CultBearsV2Base.TokenRarityType",
          "name": "",
          "type": "uint8"
        }
      ],
      "stateMutability": "pure",
      "type": "function"
    },
    {
      "inputs": [
        {
          "internalType": "address",
          "name": "owner",
          "type": "address"
        },
        {
          "internalType": "address",
          "name": "operator",
          "type": "address"
        }
      ],
      "name": "isApprovedForAll",
      "outputs": [
        {
          "internalType": "bool",
          "name": "",
          "type": "bool"
        }
      ],
      "stateMutability": "view",
      "type": "function"
    },
    {
      "inputs": [
        {
          "components": [
            {
              "internalType": "uint32",
              "name": "srcEid",
              "type": "uint32"
            },
            {
              "internalType": "bytes32",
              "name": "sender",
              "type": "bytes32"
            },
            {
              "internalType": "uint64",
              "name": "nonce",
              "type": "uint64"
            }
          ],
          "internalType": "struct Origin",
          "name": "",
          "type": "tuple"
        },
        {
          "internalType": "bytes",
          "name": "",
          "type": "bytes"
        },
        {
          "internalType": "address",
          "name": "_sender",
          "type": "address"
        }
      ],
      "name": "isComposeMsgSender",
      "outputs": [
        {
          "internalType": "bool",
          "name": "",
          "type": "bool"
        }
      ],
      "stateMutability": "view",
      "type": "function"
    },
    {
      "inputs": [
        {
          "internalType": "uint32",
          "name": "_eid",
          "type": "uint32"
        },
        {
          "internalType": "bytes32",
          "name": "_peer",
          "type": "bytes32"
        }
      ],
      "name": "isPeer",
      "outputs": [
        {
          "internalType": "bool",
          "name": "",
          "type": "bool"
        }
      ],
      "stateMutability": "view",
      "type": "function"
    },
    {
      "inputs": [],
      "name": "isPublicMintAllowed",
      "outputs": [
        {
          "internalType": "bool",
          "name": "",
          "type": "bool"
        }
      ],
      "stateMutability": "view",
      "type": "function"
    },
    {
      "inputs": [
        {
          "components": [
            {
              "internalType": "uint32",
              "name": "srcEid",
              "type": "uint32"
            },
            {
              "internalType": "bytes32",
              "name": "sender",
              "type": "bytes32"
            },
            {
              "internalType": "uint64",
              "name": "nonce",
              "type": "uint64"
            }
          ],
          "internalType": "struct Origin",
          "name": "_origin",
          "type": "tuple"
        },
        {
          "internalType": "bytes32",
          "name": "_guid",
          "type": "bytes32"
        },
        {
          "internalType": "bytes",
          "name": "_message",
          "type": "bytes"
        },
        {
          "internalType": "address",
          "name": "_executor",
          "type": "address"
        },
        {
          "internalType": "bytes",
          "name": "_extraData",
          "type": "bytes"
        }
      ],
      "name": "lzReceive",
      "outputs": [],
      "stateMutability": "payable",
      "type": "function"
    },
    {
      "inputs": [
        {
          "components": [
            {
              "components": [
                {
                  "internalType": "uint32",
                  "name": "srcEid",
                  "type": "uint32"
                },
                {
                  "internalType": "bytes32",
                  "name": "sender",
                  "type": "bytes32"
                },
                {
                  "internalType": "uint64",
                  "name": "nonce",
                  "type": "uint64"
                }
              ],
              "internalType": "struct Origin",
              "name": "origin",
              "type": "tuple"
            },
            {
              "internalType": "uint32",
              "name": "dstEid",
              "type": "uint32"
            },
            {
              "internalType": "address",
              "name": "receiver",
              "type": "address"
            },
            {
              "internalType": "bytes32",
              "name": "guid",
              "type": "bytes32"
            },
            {
              "internalType": "uint256",
              "name": "value",
              "type": "uint256"
            },
            {
              "internalType": "address",
              "name": "executor",
              "type": "address"
            },
            {
              "internalType": "bytes",
              "name": "message",
              "type": "bytes"
            },
            {
              "internalType": "bytes",
              "name": "extraData",
              "type": "bytes"
            }
          ],
          "internalType": "struct InboundPacket[]",
          "name": "_packets",
          "type": "tuple[]"
        }
      ],
      "name": "lzReceiveAndRevert",
      "outputs": [],
      "stateMutability": "payable",
      "type": "function"
    },
    {
      "inputs": [
        {
          "components": [
            {
              "internalType": "uint32",
              "name": "srcEid",
              "type": "uint32"
            },
            {
              "internalType": "bytes32",
              "name": "sender",
              "type": "bytes32"
            },
            {
              "internalType": "uint64",
              "name": "nonce",
              "type": "uint64"
            }
          ],
          "internalType": "struct Origin",
          "name": "_origin",
          "type": "tuple"
        },
        {
          "internalType": "bytes32",
          "name": "_guid",
          "type": "bytes32"
        },
        {
          "internalType": "bytes",
          "name": "_message",
          "type": "bytes"
        },
        {
          "internalType": "address",
          "name": "_executor",
          "type": "address"
        },
        {
          "internalType": "bytes",
          "name": "_extraData",
          "type": "bytes"
        }
      ],
      "name": "lzReceiveSimulate",
      "outputs": [],
      "stateMutability": "payable",
      "type": "function"
    },
    {
      "inputs": [],
      "name": "maxSupply",
      "outputs": [
        {
          "internalType": "uint256",
          "name": "",
          "type": "uint256"
        }
      ],
      "stateMutability": "view",
      "type": "function"
    },
    {
      "inputs": [
        {
          "internalType": "uint256",
          "name": "mintAmount",
          "type": "uint256"
        },
        {
          "internalType": "enum CultBearsV2Base.TokenRarityType",
          "name": "rarity",
          "type": "uint8"
        }
      ],
      "name": "mintMultiple",
      "outputs": [],
      "stateMutability": "payable",
      "type": "function"
    },
    {
      "inputs": [],
      "name": "msgInspector",
      "outputs": [
        {
          "internalType": "address",
          "name": "",
          "type": "address"
        }
      ],
      "stateMutability": "view",
      "type": "function"
    },
    {
      "inputs": [],
      "name": "name",
      "outputs": [
        {
          "internalType": "string",
          "name": "",
          "type": "string"
        }
      ],
      "stateMutability": "view",
      "type": "function"
    },
    {
      "inputs": [
        {
          "internalType": "uint32",
          "name": "",
          "type": "uint32"
        },
        {
          "internalType": "bytes32",
          "name": "",
          "type": "bytes32"
        }
      ],
      "name": "nextNonce",
      "outputs": [
        {
          "internalType": "uint64",
          "name": "nonce",
          "type": "uint64"
        }
      ],
      "stateMutability": "view",
      "type": "function"
    },
    {
      "inputs": [],
      "name": "oApp",
      "outputs": [
        {
          "internalType": "address",
          "name": "",
          "type": "address"
        }
      ],
      "stateMutability": "view",
      "type": "function"
    },
    {
      "inputs": [],
      "name": "oAppVersion",
      "outputs": [
        {
          "internalType": "uint64",
          "name": "senderVersion",
          "type": "uint64"
        },
        {
          "internalType": "uint64",
          "name": "receiverVersion",
          "type": "uint64"
        }
      ],
      "stateMutability": "pure",
      "type": "function"
    },
    {
      "inputs": [
        {
          "internalType": "address",
          "name": "",
          "type": "address"
        }
      ],
      "name": "ogWhitelist",
      "outputs": [
        {
          "internalType": "bool",
          "name": "",
          "type": "bool"
        }
      ],
      "stateMutability": "view",
      "type": "function"
    },
    {
      "inputs": [],
      "name": "onftVersion",
      "outputs": [
        {
          "internalType": "bytes4",
          "name": "interfaceId",
          "type": "bytes4"
        },
        {
          "internalType": "uint64",
          "name": "version",
          "type": "uint64"
        }
      ],
      "stateMutability": "pure",
      "type": "function"
    },
    {
      "inputs": [],
      "name": "owner",
      "outputs": [
        {
          "internalType": "address",
          "name": "",
          "type": "address"
        }
      ],
      "stateMutability": "view",
      "type": "function"
    },
    {
      "inputs": [
        {
          "internalType": "uint256",
          "name": "tokenId",
          "type": "uint256"
        }
      ],
      "name": "ownerOf",
      "outputs": [
        {
          "internalType": "address",
          "name": "",
          "type": "address"
        }
      ],
      "stateMutability": "view",
      "type": "function"
    },
    {
      "inputs": [],
      "name": "pause",
      "outputs": [],
      "stateMutability": "nonpayable",
      "type": "function"
    },
    {
      "inputs": [],
      "name": "paused",
      "outputs": [
        {
          "internalType": "bool",
          "name": "",
          "type": "bool"
        }
      ],
      "stateMutability": "view",
      "type": "function"
    },
    {
      "inputs": [
        {
          "internalType": "uint32",
          "name": "eid",
          "type": "uint32"
        }
      ],
      "name": "peers",
      "outputs": [
        {
          "internalType": "bytes32",
          "name": "peer",
          "type": "bytes32"
        }
      ],
      "stateMutability": "view",
      "type": "function"
    },
    {
      "inputs": [],
      "name": "preCrime",
      "outputs": [
        {
          "internalType": "address",
          "name": "",
          "type": "address"
        }
      ],
      "stateMutability": "view",
      "type": "function"
    },
    {
      "inputs": [
        {
          "internalType": "enum CultBearsV2Base.TokenRarityType",
          "name": "",
          "type": "uint8"
        }
      ],
      "name": "publicSalePrice",
      "outputs": [
        {
          "internalType": "uint256",
          "name": "",
          "type": "uint256"
        }
      ],
      "stateMutability": "view",
      "type": "function"
    },
    {
      "inputs": [
        {
          "components": [
            {
              "internalType": "uint32",
              "name": "dstEid",
              "type": "uint32"
            },
            {
              "internalType": "bytes32",
              "name": "to",
              "type": "bytes32"
            },
            {
              "internalType": "uint256",
              "name": "tokenId",
              "type": "uint256"
            },
            {
              "internalType": "bytes",
              "name": "extraOptions",
              "type": "bytes"
            },
            {
              "internalType": "bytes",
              "name": "composeMsg",
              "type": "bytes"
            },
            {
              "internalType": "bytes",
              "name": "onftCmd",
              "type": "bytes"
            }
          ],
          "internalType": "struct SendParam",
          "name": "_sendParam",
          "type": "tuple"
        },
        {
          "internalType": "bool",
          "name": "_payInLzToken",
          "type": "bool"
        }
      ],
      "name": "quoteSend",
      "outputs": [
        {
          "components": [
            {
              "internalType": "uint256",
              "name": "nativeFee",
              "type": "uint256"
            },
            {
              "internalType": "uint256",
              "name": "lzTokenFee",
              "type": "uint256"
            }
          ],
          "internalType": "struct MessagingFee",
          "name": "msgFee",
          "type": "tuple"
        }
      ],
      "stateMutability": "view",
      "type": "function"
    },
    {
      "inputs": [
        {
          "internalType": "address",
          "name": "whitelistee",
          "type": "address"
        }
      ],
      "name": "removeFromBearlistedWhitelist",
      "outputs": [],
      "stateMutability": "nonpayable",
      "type": "function"
    },
    {
      "inputs": [
        {
          "internalType": "address",
          "name": "whitelistee",
          "type": "address"
        }
      ],
      "name": "removeFromOGWhitelist",
      "outputs": [],
      "stateMutability": "nonpayable",
      "type": "function"
    },
    {
      "inputs": [],
      "name": "renounceOwnership",
      "outputs": [],
      "stateMutability": "nonpayable",
      "type": "function"
    },
    {
      "inputs": [
        {
          "internalType": "uint256",
          "name": "tokenId",
          "type": "uint256"
        },
        {
          "internalType": "uint256",
          "name": "salePrice",
          "type": "uint256"
        }
      ],
      "name": "royaltyInfo",
      "outputs": [
        {
          "internalType": "address",
          "name": "receiver",
          "type": "address"
        },
        {
          "internalType": "uint256",
          "name": "amount",
          "type": "uint256"
        }
      ],
      "stateMutability": "view",
      "type": "function"
    },
    {
      "inputs": [
        {
          "internalType": "address",
          "name": "from",
          "type": "address"
        },
        {
          "internalType": "address",
          "name": "to",
          "type": "address"
        },
        {
          "internalType": "uint256",
          "name": "tokenId",
          "type": "uint256"
        }
      ],
      "name": "safeTransferFrom",
      "outputs": [],
      "stateMutability": "nonpayable",
      "type": "function"
    },
    {
      "inputs": [
        {
          "internalType": "address",
          "name": "from",
          "type": "address"
        },
        {
          "internalType": "address",
          "name": "to",
          "type": "address"
        },
        {
          "internalType": "uint256",
          "name": "tokenId",
          "type": "uint256"
        },
        {
          "internalType": "bytes",
          "name": "data",
          "type": "bytes"
        }
      ],
      "name": "safeTransferFrom",
      "outputs": [],
      "stateMutability": "nonpayable",
      "type": "function"
    },
    {
      "inputs": [
        {
          "components": [
            {
              "internalType": "uint32",
              "name": "dstEid",
              "type": "uint32"
            },
            {
              "internalType": "bytes32",
              "name": "to",
              "type": "bytes32"
            },
            {
              "internalType": "uint256",
              "name": "tokenId",
              "type": "uint256"
            },
            {
              "internalType": "bytes",
              "name": "extraOptions",
              "type": "bytes"
            },
            {
              "internalType": "bytes",
              "name": "composeMsg",
              "type": "bytes"
            },
            {
              "internalType": "bytes",
              "name": "onftCmd",
              "type": "bytes"
            }
          ],
          "internalType": "struct SendParam",
          "name": "_sendParam",
          "type": "tuple"
        },
        {
          "components": [
            {
              "internalType": "uint256",
              "name": "nativeFee",
              "type": "uint256"
            },
            {
              "internalType": "uint256",
              "name": "lzTokenFee",
              "type": "uint256"
            }
          ],
          "internalType": "struct MessagingFee",
          "name": "_fee",
          "type": "tuple"
        },
        {
          "internalType": "address",
          "name": "_refundAddress",
          "type": "address"
        }
      ],
      "name": "send",
      "outputs": [
        {
          "components": [
            {
              "internalType": "bytes32",
              "name": "guid",
              "type": "bytes32"
            },
            {
              "internalType": "uint64",
              "name": "nonce",
              "type": "uint64"
            },
            {
              "components": [
                {
                  "internalType": "uint256",
                  "name": "nativeFee",
                  "type": "uint256"
                },
                {
                  "internalType": "uint256",
                  "name": "lzTokenFee",
                  "type": "uint256"
                }
              ],
              "internalType": "struct MessagingFee",
              "name": "fee",
              "type": "tuple"
            }
          ],
          "internalType": "struct MessagingReceipt",
          "name": "msgReceipt",
          "type": "tuple"
        }
      ],
      "stateMutability": "payable",
      "type": "function"
    },
    {
      "inputs": [
        {
          "internalType": "address",
          "name": "operator",
          "type": "address"
        },
        {
          "internalType": "bool",
          "name": "approved",
          "type": "bool"
        }
      ],
      "name": "setApprovalForAll",
      "outputs": [],
      "stateMutability": "nonpayable",
      "type": "function"
    },
    {
      "inputs": [
        {
          "internalType": "string",
          "name": "_baseTokenURI",
          "type": "string"
        }
      ],
      "name": "setBaseURI",
      "outputs": [],
      "stateMutability": "nonpayable",
      "type": "function"
    },
    {
      "inputs": [
        {
          "internalType": "address",
          "name": "_delegate",
          "type": "address"
        }
      ],
      "name": "setDelegate",
      "outputs": [],
      "stateMutability": "nonpayable",
      "type": "function"
    },
    {
      "inputs": [
        {
          "components": [
            {
              "internalType": "uint32",
              "name": "eid",
              "type": "uint32"
            },
            {
              "internalType": "uint16",
              "name": "msgType",
              "type": "uint16"
            },
            {
              "internalType": "bytes",
              "name": "options",
              "type": "bytes"
            }
          ],
          "internalType": "struct EnforcedOptionParam[]",
          "name": "_enforcedOptions",
          "type": "tuple[]"
        }
      ],
      "name": "setEnforcedOptions",
      "outputs": [],
      "stateMutability": "nonpayable",
      "type": "function"
    },
    {
      "inputs": [
        {
          "internalType": "string",
          "name": "extension",
          "type": "string"
        }
      ],
      "name": "setFileExtension",
      "outputs": [],
      "stateMutability": "nonpayable",
      "type": "function"
    },
    {
      "inputs": [
        {
          "internalType": "address",
          "name": "_msgInspector",
          "type": "address"
        }
      ],
      "name": "setMsgInspector",
      "outputs": [],
      "stateMutability": "nonpayable",
      "type": "function"
    },
    {
      "inputs": [
        {
          "internalType": "uint32",
          "name": "_eid",
          "type": "uint32"
        },
        {
          "internalType": "bytes32",
          "name": "_peer",
          "type": "bytes32"
        }
      ],
      "name": "setPeer",
      "outputs": [],
      "stateMutability": "nonpayable",
      "type": "function"
    },
    {
      "inputs": [
        {
          "internalType": "address",
          "name": "_preCrime",
          "type": "address"
        }
      ],
      "name": "setPreCrime",
      "outputs": [],
      "stateMutability": "nonpayable",
      "type": "function"
    },
    {
      "inputs": [
        {
          "internalType": "enum CultBearsV2Base.TokenRarityType",
          "name": "rarity",
          "type": "uint8"
        },
        {
          "internalType": "uint256",
          "name": "price",
          "type": "uint256"
        }
      ],
      "name": "setPrivateMintPrice",
      "outputs": [],
      "stateMutability": "nonpayable",
      "type": "function"
    },
    {
      "inputs": [
        {
          "internalType": "enum CultBearsV2Base.TokenRarityType",
          "name": "rarity",
          "type": "uint8"
        },
        {
          "internalType": "uint256",
          "name": "price",
          "type": "uint256"
        }
      ],
      "name": "setPublicMintPrice",
      "outputs": [],
      "stateMutability": "nonpayable",
      "type": "function"
    },
    {
      "inputs": [
        {
          "internalType": "uint256",
          "name": "tokenId",
          "type": "uint256"
        },
        {
          "internalType": "address",
          "name": "receiver",
          "type": "address"
        },
        {
          "internalType": "uint96",
          "name": "feeNumerator",
          "type": "uint96"
        }
      ],
      "name": "setTokenRoyalty",
      "outputs": [],
      "stateMutability": "nonpayable",
      "type": "function"
    },
    {
      "inputs": [
        {
          "internalType": "bytes4",
          "name": "interfaceId",
          "type": "bytes4"
        }
      ],
      "name": "supportsInterface",
      "outputs": [
        {
          "internalType": "bool",
          "name": "",
          "type": "bool"
        }
      ],
      "stateMutability": "view",
      "type": "function"
    },
    {
      "inputs": [],
      "name": "symbol",
      "outputs": [
        {
          "internalType": "string",
          "name": "",
          "type": "string"
        }
      ],
      "stateMutability": "view",
      "type": "function"
    },
    {
      "inputs": [],
      "name": "togglePublicMint",
      "outputs": [],
      "stateMutability": "nonpayable",
      "type": "function"
    },
    {
      "inputs": [],
      "name": "token",
      "outputs": [
        {
          "internalType": "address",
          "name": "",
          "type": "address"
        }
      ],
      "stateMutability": "view",
      "type": "function"
    },
    {
      "inputs": [
        {
          "internalType": "enum CultBearsV2Base.TokenRarityType",
          "name": "",
          "type": "uint8"
        }
      ],
      "name": "tokenIDCounter",
      "outputs": [
        {
          "internalType": "uint16",
          "name": "",
          "type": "uint16"
        }
      ],
      "stateMutability": "view",
      "type": "function"
    },
    {
      "inputs": [
        {
          "internalType": "enum CultBearsV2Base.TokenRarityType",
          "name": "",
          "type": "uint8"
        }
      ],
      "name": "tokenIDRange",
      "outputs": [
        {
          "internalType": "uint256",
          "name": "start",
          "type": "uint256"
        },
        {
          "internalType": "uint256",
          "name": "amount",
          "type": "uint256"
        }
      ],
      "stateMutability": "view",
      "type": "function"
    },
    {
      "inputs": [
        {
          "internalType": "uint256",
          "name": "tokenId",
          "type": "uint256"
        }
      ],
      "name": "tokenURI",
      "outputs": [
        {
          "internalType": "string",
          "name": "",
          "type": "string"
        }
      ],
      "stateMutability": "view",
      "type": "function"
    },
    {
      "inputs": [
        {
          "internalType": "address",
          "name": "from",
          "type": "address"
        },
        {
          "internalType": "address",
          "name": "to",
          "type": "address"
        },
        {
          "internalType": "uint256",
          "name": "tokenId",
          "type": "uint256"
        }
      ],
      "name": "transferFrom",
      "outputs": [],
      "stateMutability": "nonpayable",
      "type": "function"
    },
    {
      "inputs": [
        {
          "internalType": "address",
          "name": "newOwner",
          "type": "address"
        }
      ],
      "name": "transferOwnership",
      "outputs": [],
      "stateMutability": "nonpayable",
      "type": "function"
    },
    {
      "inputs": [],
      "name": "treasuryWallet",
      "outputs": [
        {
          "internalType": "address",
          "name": "",
          "type": "address"
        }
      ],
      "stateMutability": "view",
      "type": "function"
    },
    {
      "inputs": [],
      "name": "unpause",
      "outputs": [],
      "stateMutability": "nonpayable",
      "type": "function"
    },
    {
      "inputs": [],
      "name": "withdraw",
      "outputs": [],
      "stateMutability": "nonpayable",
      "type": "function"
    },
    {
      "stateMutability": "payable",
      "type": "receive"
    }
  ],
  "transactionHash": "0xd8f0048bb8ac461dd9c3cfc6aecd86d3f923f06db6d3365d94e19a19c744a951",
  "args": [
    "Cult Bears",
    "CBEARS",
    "0x6EDCE65403992e310A62460808c4b910D972f10f",
    "0xC0fFea512d7683A7088b3D7Be2afE69546D0498B",
    "https://arweave.net/EBRFxtP5XQa6cOO2Hbn4dUa2RQl2KBbf8y0FyXTG5co/",
    "0xC0fFea512d7683A7088b3D7Be2afE69546D0498B"
  ],
  "numDeployments": 1,
  "solcInputHash": "2793efc4e640085d33d52636a3d97e19",
  "bytecode": "0x60e0604052600560a090815264173539b7b760d91b60c05260119062000026908262000771565b506012805460ff60a01b191690553480156200004157600080fd5b5060405162005cf138038062005cf183398101604081905262000064916200090c565b858585858383838381818181806001600160a01b038116620000a157604051631e4fbdf760e01b8152600060048201526024015b60405180910390fd5b620000ac81620005d3565b506001600160a01b038083166080528116620000db57604051632d618d8160e21b815260040160405180910390fd5b60805160405163ca5eb5e160e01b81526001600160a01b0383811660048301529091169063ca5eb5e190602401600060405180830381600087803b1580156200012357600080fd5b505af115801562000138573d6000803e3d6000fd5b50505050505050505050816005908162000153919062000771565b50600662000162828262000771565b50506001600c555050600f805460ff191690555050506001600160a01b038116620001df5760405162461bcd60e51b815260206004820152602660248201527f54726561737572792077616c6c65742063616e6e6f74206265207a65726f206160448201526564647265737360d01b606482015260840162000098565b6010620001ed838262000771565b50601280546001600160a01b0319166001600160a01b0383169081179091556200021a906101f462000623565b505068043a77aabd007800007f8fa6efc3be94b5b348b21fea823fe8d100408cee9b7f90524494500445d8ff6c5550506808670e9ec6598c00007f4155c2f711f2cdd34f8262ab8fb9b7020a700fe7b6948222152f7670d1fdf34d5550506810ce1d3d8cb31800007f0b9d2c0c271bb30544eb78c59bdaebdae2728e5f65814c07768a0abe90ed19235568219c3a7b19663000007f0d2a6872ef858a7f8ead18dc4f3f2e8d35c853d47e2816cbb9cdd49202554e0c5568433874f632cc6000007f01413ff7a3b1d5b6c016c061d48e2c7014700c777a29fcd068fff04265813d5d556804d31f847531c400007f4f26c3876aa9f4b92579780beea1161a61f87ebf1ec6ee865b299e447ecba99c556809985e5236bc2400007fb6c61a840592cc84133e4b25bd509abf4659307c57b160799b38490a5aa48f2c55681330bca46d784800007fa1930aa930426c54c34daad2b9ada7c5d0ef0c96078a3c5bb79f6fa6602c4a7a5568266f59ff8e97f400007f63d87a887046e0430be80fdeb014107d7198c879cbf2cddf39a6df195c86cb3855684cd0d34869888400007f52102136546d97ed3f65ec1070a32935d3048ea12f310d29c378dc9d6555c0d6556040805180820182526103e981526002602080830182815260046000908152601580845294517f8191f4eb6b8bafbfe9a5389c8d07d7f5fd81137a7ee653fc4358269845ee1d2e5590517f8191f4eb6b8bafbfe9a5389c8d07d7f5fd81137a7ee653fc4358269845ee1d2f55845180860186526103eb8152600d8184019081526003835285845290517fb3a65e8276bd33b3e4f7d6081ebd9899187264822358758dca2e2bc37b2a9c2755517fb3a65e8276bd33b3e4f7d6081ebd9899187264822358758dca2e2bc37b2a9c2855845180860186526103f881526019818401908152938252848352517f07d4ff730d9753101d832555708a37d38c2c45fce8cacaefc99f06074e93fe0b5591517f07d4ff730d9753101d832555708a37d38c2c45fce8cacaefc99f06074e93fe0c5583518085018552610411815260328183019081526001845284835290517f27739e4bb5e6f8b5e4b57a047dca8767cc9b982a011081e086cbb0dfa9de818d55517f27739e4bb5e6f8b5e4b57a047dca8767cc9b982a011081e086cbb0dfa9de818e558351808501909452610443845261038e8482019081529180529190915290517fa31547ce6245cdb9ecea19cf8c7eb9f5974025bb4075011409251ae855b30aed55517fa31547ce6245cdb9ecea19cf8c7eb9f5974025bb4075011409251ae855b30aee55620009d4565b600080546001600160a01b038381166001600160a01b0319831681178455604051919092169283917f8be0079c531659141344cd1fd0a4f28419497f9722a3daafe3b4186f6b6457e09190a35050565b6127106001600160601b0382168110156200066457604051636f483d0960e01b81526001600160601b03831660048201526024810182905260440162000098565b6001600160a01b0383166200069057604051635b6cc80560e11b81526000600482015260240162000098565b50604080518082019091526001600160a01b039092168083526001600160601b039091166020909201829052600160a01b90910217600d55565b634e487b7160e01b600052604160045260246000fd5b600181811c90821680620006f557607f821691505b6020821081036200071657634e487b7160e01b600052602260045260246000fd5b50919050565b601f8211156200076c576000816000526020600020601f850160051c81016020861015620007475750805b601f850160051c820191505b81811015620007685782815560010162000753565b5050505b505050565b81516001600160401b038111156200078d576200078d620006ca565b620007a5816200079e8454620006e0565b846200071c565b602080601f831160018114620007dd5760008415620007c45750858301515b600019600386901b1c1916600185901b17855562000768565b600085815260208120601f198616915b828110156200080e57888601518255948401946001909101908401620007ed565b50858210156200082d5787850151600019600388901b60f8161c191681555b5050505050600190811b01905550565b600082601f8301126200084f57600080fd5b81516001600160401b03808211156200086c576200086c620006ca565b604051601f8301601f19908116603f01168101908282118183101715620008975762000897620006ca565b8160405283815260209250866020858801011115620008b557600080fd5b600091505b83821015620008d95785820183015181830184015290820190620008ba565b6000602085830101528094505050505092915050565b80516001600160a01b03811681146200090757600080fd5b919050565b60008060008060008060c087890312156200092657600080fd5b86516001600160401b03808211156200093e57600080fd5b6200094c8a838b016200083d565b975060208901519150808211156200096357600080fd5b620009718a838b016200083d565b96506200098160408a01620008ef565b95506200099160608a01620008ef565b94506080890151915080821115620009a857600080fd5b50620009b789828a016200083d565b925050620009c860a08801620008ef565b90509295509295509295565b6080516152d062000a216000396000818161086501528181610f67015281816121e501528181612b6101528181612e050152818161360301528181613a2c0152613ae501526152d06000f3fe6080604052600436106104055760003560e01c8063715018a611610211578063bc70b35411610122578063d5abeb01116100b0578063f2fde38b11610077578063f2fde38b14610d1d578063f4b2afc514610d3d578063f87cafb014610d6d578063fc0c546a14610771578063ff7bd03d14610d8d57005b8063d5abeb0114610c6b578063e204263914610c81578063e985e9c514610ca1578063f01e4c5414610cc1578063f034f0b014610d0a57005b8063c87b56dd116100f4578063c87b56dd14610bd7578063ca5eb5e114610bf7578063cd08c36614610c17578063d045a0dc14610c38578063d424388514610c4b57005b8063bc70b35414610b57578063bd815db014610b77578063c6414e7b14610b8a578063c70ae49314610bb757005b80639f68b9641161019f578063b21a33e411610171578063b21a33e414610ab5578063b731ea0a14610aca578063b88d4fde14610aea578063b98bd07014610b0a578063bb0b6a5314610b2a57005b80639f68b96414610a39578063a22cb46514610a4d578063a72f5dd814610a6d578063ac054b0f14610a9557005b80638ba4cc3c116101e35780638ba4cc3c146109b15780638da5cb5b146109d15780638dc91ac2146109ef5780638f1cfa8e14610a0457806395d89b4114610a2457005b8063715018a61461092c5780637d25a05e1461094157806382413eac1461097c5780638456cb591461099c57005b80633f4ba83a1161031657806355f804b3116102a45780636352211e1161026b5780636352211e146108875780636c0360eb146108a75780636ee24b91146108bc5780636fc1b31e146108ec57806370a082311461090c57005b806355f804b3146107c45780635944c753146107e45780635a0dfe4d146108045780635c975abb1461083b5780635e280f111461085357005b80634626402b116102e85780634626402b14610724578063487586971461074457806352ae287914610771578063537c1ac7146107845780635535d461146107a457005b80633f4ba83a146106a95780634047638d146106be57806342842e0e146106d357806344d0a425146106f357005b806320a5a55c116103935780632b4085b1116103655780632b4085b1146105f95780633400288b1461063457806337f1e7f2146106545780633ccfd60b146106745780633ec3e06d1461068957005b806320a5a55c1461055a57806321eb730b1461057a57806323b872dd1461059a5780632a55205a146105ba57005b8063095ea7b3116103d7578063095ea7b3146104bd578063111ecdad146104dd57806313137d65146104fd57806317442b70146105105780631f5e13341461053257005b806301ffc9a71461040e57806306fdde0314610443578063081812fc14610465578063089cc3721461049d57005b3661040c57005b005b34801561041a57600080fd5b5061042e610429366004613e71565b610dad565b60405190151581526020015b60405180910390f35b34801561044f57600080fd5b50610458610dbe565b60405161043a9190613ede565b34801561047157600080fd5b50610485610480366004613ef1565b610e50565b6040516001600160a01b03909116815260200161043a565b3480156104a957600080fd5b5061040c6104b8366004613f1f565b610e79565b3480156104c957600080fd5b5061040c6104d8366004613f3c565b610f56565b3480156104e957600080fd5b50600454610485906001600160a01b031681565b61040c61050b366004613fc1565b610f65565b34801561051c57600080fd5b506040805160018152600260208201520161043a565b34801561053e57600080fd5b50610547600181565b60405161ffff909116815260200161043a565b34801561056657600080fd5b5061040c610575366004613f1f565b611020565b61058d610588366004614072565b611071565b60405161043a91906140df565b3480156105a657600080fd5b5061040c6105b5366004614121565b61112a565b3480156105c657600080fd5b506105da6105d5366004614162565b6111b5565b604080516001600160a01b03909316835260208301919091520161043a565b34801561060557600080fd5b50610626610614366004614198565b60146020526000908152604090205481565b60405190815260200161043a565b34801561064057600080fd5b5061040c61064f3660046141c7565b61123c565b34801561066057600080fd5b5061062661066f366004614198565b61124e565b34801561068057600080fd5b5061040c6112d9565b34801561069557600080fd5b5061040c6106a43660046141e3565b6113e4565b3480156106b557600080fd5b5061040c61146b565b3480156106ca57600080fd5b5061040c61147b565b3480156106df57600080fd5b5061040c6106ee366004614121565b6114f1565b3480156106ff57600080fd5b5061054761070e366004614198565b60166020526000908152604090205461ffff1681565b34801561073057600080fd5b50601254610485906001600160a01b031681565b34801561075057600080fd5b5061076461075f366004613ef1565b611511565b60405161043a9190614237565b34801561077d57600080fd5b5030610485565b34801561079057600080fd5b5061040c61079f366004613f1f565b611647565b3480156107b057600080fd5b506104586107bf366004614257565b61171c565b3480156107d057600080fd5b5061040c6107df36600461428a565b6117c1565b3480156107f057600080fd5b5061040c6107ff3660046142cb565b611807565b34801561081057600080fd5b5061042e61081f3660046141c7565b63ffffffff919091166000908152600160205260409020541490565b34801561084757600080fd5b50600f5460ff1661042e565b34801561085f57600080fd5b506104857f000000000000000000000000000000000000000000000000000000000000000081565b34801561089357600080fd5b506104856108a2366004613ef1565b61186e565b3480156108b357600080fd5b50610458611879565b3480156108c857600080fd5b5061042e6108d7366004613f1f565b60186020526000908152604090205460ff1681565b3480156108f857600080fd5b5061040c610907366004613f1f565b611886565b34801561091857600080fd5b50610626610927366004613f1f565b6118e3565b34801561093857600080fd5b5061040c61192b565b34801561094d57600080fd5b5061096461095c3660046141c7565b600092915050565b6040516001600160401b03909116815260200161043a565b34801561098857600080fd5b5061042e61099736600461430e565b61193d565b3480156109a857600080fd5b5061040c611952565b3480156109bd57600080fd5b5061040c6109cc366004613f3c565b611962565b3480156109dd57600080fd5b506000546001600160a01b0316610485565b3480156109fb57600080fd5b50610458611ae0565b348015610a1057600080fd5b5061040c610a1f366004613f1f565b611aed565b348015610a3057600080fd5b50610458611b3e565b348015610a4557600080fd5b50600061042e565b348015610a5957600080fd5b5061040c610a68366004614382565b611b4d565b348015610a7957600080fd5b50604080516311f0c6d360e11b8152600160208201520161043a565b348015610aa157600080fd5b5061040c610ab036600461446e565b611b58565b348015610ac157600080fd5b50610547600281565b348015610ad657600080fd5b50600254610485906001600160a01b031681565b348015610af657600080fd5b5061040c610b05366004614598565b611d0c565b348015610b1657600080fd5b5061040c610b25366004614647565b611d24565b348015610b3657600080fd5b50610626610b4536600461467c565b60016020526000908152604090205481565b348015610b6357600080fd5b50610458610b72366004614697565b611d3e565b61040c610b85366004614647565b611ee6565b348015610b9657600080fd5b50610baa610ba53660046146f7565b612070565b60405161043a919061473d565b348015610bc357600080fd5b5061040c610bd23660046141e3565b6120b6565b348015610be357600080fd5b50610458610bf2366004613ef1565b612131565b348015610c0357600080fd5b5061040c610c12366004613f1f565b6121be565b348015610c2357600080fd5b5060125461042e90600160a01b900460ff1681565b61040c610c46366004613fc1565b612244565b348015610c5757600080fd5b5061040c610c66366004613f1f565b612273565b348015610c7757600080fd5b506106266107d081565b348015610c8d57600080fd5b5061040c610c9c366004613f1f565b6122c9565b348015610cad57600080fd5b5061042e610cbc366004614754565b6123ac565b348015610ccd57600080fd5b50610cf5610cdc366004614198565b6015602052600090815260409020805460019091015482565b6040805192835260208301919091520161043a565b61040c610d18366004614782565b6123da565b348015610d2957600080fd5b5061040c610d38366004613f1f565b6128ef565b348015610d4957600080fd5b5061042e610d58366004613f1f565b60176020526000908152604090205460ff1681565b348015610d7957600080fd5b5061040c610d883660046147a5565b61292d565b348015610d9957600080fd5b5061042e610da83660046147ed565b6129ca565b6000610db882612a00565b92915050565b606060058054610dcd90614809565b80601f0160208091040260200160405190810160405280929190818152602001828054610df990614809565b8015610e465780601f10610e1b57610100808354040283529160200191610e46565b820191906000526020600020905b815481529060010190602001808311610e2957829003601f168201915b5050505050905090565b6000610e5b82612a25565b506000828152600960205260409020546001600160a01b0316610db8565b610e81612a5e565b6001600160a01b03811660009081526017602052604090205460ff1615610f0a5760405162461bcd60e51b815260206004820152603260248201527f57686974656c697374656520697320616c72656164792070726573656e7420696044820152711b881d1a194813d1c81dda1a5d195b1a5cdd60721b60648201526084015b60405180910390fd5b6001600160a01b038116600081815260186020526040808220805460ff19166001179055517f6c2ebc0cab7c7e90a273b687478f46a6bb556f37edd7489337f82797cedce83b9190a250565b610f61828233612a8b565b5050565b7f00000000000000000000000000000000000000000000000000000000000000006001600160a01b03163314610fb0576040516391ac5e4f60e01b8152336004820152602401610f01565b60208701803590610fca90610fc5908a61467c565b612a98565b1461100857610fdc602088018861467c565b60405163309afaf360e21b815263ffffffff909116600482015260208801356024820152604401610f01565b61101787878787878787612ad4565b50505050505050565b611028612a5e565b6001600160a01b038116600081815260176020526040808220805460ff19169055517fea31df18877072a072b1e8460859bca9c31e2caf9e32fcefe29a1913dc7aef4b9190a250565b611079613e14565b61109433604086013561108f602088018861467c565b612c33565b6000806110a086612c93565b90925090506110cc6110b5602088018861467c565b83836110c6368a90038a018a61483d565b88612dd2565b805190935033907f986156872b2ee0022b9585231dbbfde457f87f8a16b6c45e1a81c54c4ad8351f61110160208a018a61467c565b6040805163ffffffff9092168252808b013560208301520160405180910390a350509392505050565b6001600160a01b03821661115457604051633250574960e11b815260006004820152602401610f01565b6000611161838333612edd565b9050836001600160a01b0316816001600160a01b0316146111af576040516364283d7b60e01b81526001600160a01b0380861660048301526024820184905282166044820152606401610f01565b50505050565b6000828152600e6020526040812080548291906001600160a01b03811690600160a01b90046001600160601b031681611209575050600d546001600160a01b03811690600160a01b90046001600160601b03165b60006127106112216001600160601b03841689614885565b61122b919061489c565b9295509193505050505b9250929050565b611244612a5e565b610f618282612fd6565b601254600090600160a01b900460ff1661129d5760136000836004811115611278576112786141ff565b6004811115611289576112896141ff565b815260200190815260200160002054610db8565b601460008360048111156112b3576112b36141ff565b60048111156112c4576112c46141ff565b81526020019081526020016000205492915050565b6112e1612a5e565b6112e9613024565b6112f161304e565b47806113385760405162461bcd60e51b81526020600482015260166024820152754e6f2062616c616e636520746f20776974686472617760501b6044820152606401610f01565b6000606461134783601e614885565b611351919061489c565b9050600061135f82846148be565b6012546040519192506001600160a01b03169082156108fc029083906000818181858888f1935050505015801561139a573d6000803e3d6000fd5b50600080546040516001600160a01b039091169184156108fc02918591818181858888f193505050501580156113d4573d6000803e3d6000fd5b505050506113e26001600c55565b565b6113ec612a5e565b6113f461304e565b806014600084600481111561140b5761140b6141ff565b600481111561141c5761141c6141ff565b8152602001908152602001600020819055507fd56e643133394fb350df575988c73f700a704c0cbbd2be6640dbb3bbf6d7ab71828260405161145f9291906148d1565b60405180910390a15050565b611473612a5e565b6113e2613072565b611483612a5e565b61148b61304e565b6012805460ff600160a01b808304821615810260ff60a01b1990931692909217928390556040517fa81e445dac2343503dc87e4663774817434721db7d985310a6959766e6d4480e936114e79390049091161515815260200190565b60405180910390a1565b61150c83838360405180602001604052806000815250611d0c565b505050565b6000808211801561152457506107d08211155b6115685760405162461bcd60e51b8152602060048201526015602482015274546f6b656e204944206f7574206f662072616e676560581b6044820152606401610f01565b60028211158061158757506103e9821015801561158757506103ea8211155b1561159457506004919050565b600382101580156115a65750600f8211155b806115c057506103eb82101580156115c057506103f78211155b156115cd57506003919050565b601082101580156115df575060288211155b806115f957506103f882101580156115f957506104108211155b1561160657506002919050565b602982101580156116185750605a8211155b806116325750610411821015801561163257506104428211155b1561163f57506001919050565b506000919050565b61164f612a5e565b61165761304e565b6001600160a01b0381166116c05760405162461bcd60e51b815260206004820152602a60248201527f4e65772074726561737572792077616c6c65742063616e6e6f74206265207a65604482015269726f206164647265737360b01b6064820152608401610f01565b6012546040516001600160a01b038084169216907f419d718138b0b65d09976f881eed8b8d7075d4b6092f74af0a0ec9b3417cdd1290600090a3601280546001600160a01b0319166001600160a01b0392909216919091179055565b60036020908152600092835260408084209091529082529020805461174090614809565b80601f016020809104026020016040519081016040528092919081815260200182805461176c90614809565b80156117b95780601f1061178e576101008083540402835291602001916117b9565b820191906000526020600020905b81548152906001019060200180831161179c57829003601f168201915b505050505081565b6117c9612a5e565b600b6117d6828483614934565b507ff9c7803e94e0d3c02900d8a90893a6d5e90dd04d32a4cfe825520f82bf9f32f6600b60405161145f91906149f3565b61180f612a5e565b61181761304e565b6118228383836130bf565b6040516001600160601b03821681526001600160a01b038316907f23813f5ad446622633cb58c75ceef768a2111751b0f30477a63e06fcaedcff609060200160405180910390a2505050565b6000610db882612a25565b6010805461174090614809565b61188e612a5e565b600480546001600160a01b0319166001600160a01b0383169081179091556040519081527ff0be4f1e87349231d80c36b33f9e8639658eeaf474014dee15a3e6a4d4414197906020015b60405180910390a150565b60006001600160a01b03821661190f576040516322718ad960e21b815260006004820152602401610f01565b506001600160a01b031660009081526008602052604090205490565b611933612a5e565b6113e26000613181565b6001600160a01b03811630145b949350505050565b61195a612a5e565b6113e26131d1565b61196a612a5e565b61197261304e565b6000818152601a602052604090205460ff16156119cb5760405162461bcd60e51b8152602060048201526017602482015276151bdad95b88125108185b1c9958591e481b5a5b9d1959604a1b6044820152606401610f01565b6119d860026107d061489c565b601b546119e6906001614a83565b1115611a045760405162461bcd60e51b8152600401610f0190614a96565b611a0d8161320e565b611a4c5760405162461bcd60e51b815260206004820152601060248201526f125b9d985b1a59081d1bdad95b88125160821b6044820152606401610f01565b611a5682826132d7565b60008181526019602090815260408083208054600160ff199182168117909255601a9093529083208054909216179055601b805491611a9483614ad8565b9190505550816001600160a01b03167f30385c845b448a36257a6a1716e6ad2e1bc2cbe333cde1e69fe849ad6511adfe82604051611ad491815260200190565b60405180910390a25050565b6011805461174090614809565b611af5612a5e565b6001600160a01b038116600081815260186020526040808220805460ff19169055517f1543483b6a5b05d328810ada10302f9896698193def3bdb28d6e66c916fd811e9190a250565b606060068054610dcd90614809565b610f613383836132f1565b611b60612a5e565b611b6861304e565b8051611b7760026107d061489c565b81601b54611b859190614a83565b1115611ba35760405162461bcd60e51b8152600401610f0190614a96565b60005b818110156111af576000838281518110611bc257611bc2614af1565b6020908102919091018101516000818152601a90925260409091205490915060ff1615611c2b5760405162461bcd60e51b8152602060048201526017602482015276151bdad95b88125108185b1c9958591e481b5a5b9d1959604a1b6044820152606401610f01565b611c348161320e565b611c735760405162461bcd60e51b815260206004820152601060248201526f125b9d985b1a59081d1bdad95b88125160821b6044820152606401610f01565b611c7d85826132d7565b60008181526019602090815260408083208054600160ff199182168117909255601a9093529083208054909216179055601b805491611cbb83614ad8565b9190505550846001600160a01b03167f30385c845b448a36257a6a1716e6ad2e1bc2cbe333cde1e69fe849ad6511adfe82604051611cfb91815260200190565b60405180910390a250600101611ba6565b611d1784848461112a565b6111af3385858585613390565b611d2c612a5e565b610f61611d398284614b07565b6134ba565b63ffffffff8416600090815260036020908152604080832061ffff87168452909152812080546060929190611d7290614809565b80601f0160208091040260200160405190810160405280929190818152602001828054611d9e90614809565b8015611deb5780601f10611dc057610100808354040283529160200191611deb565b820191906000526020600020905b815481529060010190602001808311611dce57829003601f168201915b505050505090508051600003611e3b5783838080601f01602080910402602001604051908101604052809392919081815260200183838082843760009201919091525092945061194a9350505050565b6000839003611e4b57905061194a565b60028310611ec957611e9284848080601f0160208091040260200160405190810160405280939291908181526020018383808284376000920191909152506135c192505050565b80611ea08460028188614bd0565b604051602001611eb293929190614bfa565b60405160208183030381529060405291505061194a565b8383604051639a6d49cd60e01b8152600401610f01929190614c4b565b60005b81811015611fef5736838383818110611f0457611f04614af1565b9050602002810190611f169190614c5f565b9050611f49611f28602083018361467c565b602083013563ffffffff919091166000908152600160205260409020541490565b611f535750611fe7565b3063d045a0dc60c08301358360a0810135611f72610100830183614c80565b611f83610100890160e08a01613f1f565b611f916101208a018a614c80565b6040518963ffffffff1660e01b8152600401611fb39796959493929190614cdb565b6000604051808303818588803b158015611fcc57600080fd5b505af1158015611fe0573d6000803e3d6000fd5b5050505050505b600101611ee9565b50336001600160a01b0316638e9e70996040518163ffffffff1660e01b8152600401600060405180830381865afa15801561202e573d6000803e3d6000fd5b505050506040513d6000823e601f3d908101601f191682016040526120569190810190614d61565b604051638351eea760e01b8152600401610f019190613ede565b604080518082019091526000808252602082015260008061209085612c93565b90925090506120ad6120a5602087018761467c565b8383876135ed565b95945050505050565b6120be612a5e565b6120c661304e565b80601360008460048111156120dd576120dd6141ff565b60048111156120ee576120ee6141ff565b8152602001908152602001600020819055507f8c59f732406ee325917255f98285660fde69dcc4e66a1f52ed229009f7c0c4a8828260405161145f9291906148d1565b606060008211801561214557506107d08211155b6121895760405162461bcd60e51b8152602060048201526015602482015274546f6b656e204944206f7574206f662072616e676560581b6044820152606401610f01565b6010612194836136c5565b60116040516020016121a893929190614e41565b6040516020818303038152906040529050919050565b6121c6612a5e565b60405163ca5eb5e160e01b81526001600160a01b0382811660048301527f0000000000000000000000000000000000000000000000000000000000000000169063ca5eb5e190602401600060405180830381600087803b15801561222957600080fd5b505af115801561223d573d6000803e3d6000fd5b5050505050565b3330146122645760405163029a949d60e31b815260040160405180910390fd5b61101787878787878787611008565b61227b612a5e565b600280546001600160a01b0319166001600160a01b0383169081179091556040519081527fd48d879cef83a1c0bdda516f27b13ddb1b3f8bbac1c9e1511bb2a659c2427760906020016118d8565b6122d1612a5e565b6001600160a01b03811660009081526018602052604090205460ff16156123605760405162461bcd60e51b815260206004820152603a60248201527f57686974656c697374656520697320616c72656164792070726573656e74206960448201527f6e2074686520626561726c69737465642077686974656c6973740000000000006064820152608401610f01565b6001600160a01b038116600081815260176020526040808220805460ff19166001179055517f2689d932390f88bfa26c4b12d4ac16f4538c0b020196ef1e57b4af702d42181c9190a250565b6001600160a01b039182166000908152600a6020908152604080832093909416825291909152205460ff1690565b6123e2613024565b6123ea61304e565b6000821180156123fb575060148211155b61243d5760405162461bcd60e51b8152602060048201526013602482015272125b9d985b1a59081b5a5b9d08185b5bdd5b9d606a1b6044820152606401610f01565b601254600160a01b900460ff1661252e57816001146124b55760405162461bcd60e51b815260206004820152602e60248201527f507269766174652073616c652063616e206f6e6c79206d696e74206f6e65207460448201526d6f6b656e20617420612074696d6560901b6064820152608401610f01565b3360009081526017602052604090205460ff16806124e257503360009081526018602052604090205460ff165b61252e5760405162461bcd60e51b815260206004820181905260248201527f4e6f742077686974656c697374656420666f7220707269766174652073616c656044820152606401610f01565b601254600090600160a01b900460ff1661257d5760136000836004811115612558576125586141ff565b6004811115612569576125696141ff565b8152602001908152602001600020546125b4565b60146000836004811115612593576125936141ff565b60048111156125a4576125a46141ff565b8152602001908152602001600020545b905060006125c28483614885565b90508034101561260b5760405162461bcd60e51b8152602060048201526014602482015273125b9cdd59999a58da595b9d081c185e5b595b9d60621b6044820152606401610f01565b60008060166000866004811115612624576126246141ff565b6004811115612635576126356141ff565b8152602081019190915260400160009081205461ffff1690601590876004811115612662576126626141ff565b6004811115612673576126736141ff565b81526020019081526020016000206000015461268f9190614a83565b90506000601560008760048111156126a9576126a96141ff565b60048111156126ba576126ba6141ff565b815260200190815260200160002060010154601560008860048111156126e2576126e26141ff565b60048111156126f3576126f36141ff565b81526020019081526020016000206000015461270f9190614a83565b90505b868310801561272057508082105b1561286b575b60008281526019602052604090205460ff168061275157506000828152601a602052604090205460ff165b1561276b578161276081614ad8565b925050808210612726575b8082101561286b5761277d33836132d7565b6000828152601a602052604090819020805460ff191660011790555133907f30385c845b448a36257a6a1716e6ad2e1bc2cbe333cde1e69fe849ad6511adfe906127ca9085815260200190565b60405180910390a2826127dc81614ad8565b935050601660008760048111156127f5576127f56141ff565b6004811115612806576128066141ff565b81526020810191909152604001600020805461ffff198116600161ffff928316810190921617909155601b8054909101905561284560026107d061489c565b601b5411156128665760405162461bcd60e51b8152600401610f0190614a96565b612712565b8683146128e05760405162461bcd60e51b815260206004820152603760248201527f4d696e74696e6720636f756c64206e6f7420626520636f6d706c65746564206660448201527f6f72207468652072657175657374656420616d6f756e740000000000000000006064820152608401610f01565b5050505050610f616001600c55565b6128f7612a5e565b6001600160a01b03811661292157604051631e4fbdf760e01b815260006004820152602401610f01565b61292a81613181565b50565b612935612a5e565b61293d61304e565b600081511161298e5760405162461bcd60e51b815260206004820152601e60248201527f46696c6520657874656e73696f6e2063616e6e6f7420626520656d70747900006044820152606401610f01565b601161299a8282614e7f565b507f95c0419535f434fa69d4e8cbecdd93dbb4080262f09911d2ca00196d33fcda6f816040516118d89190613ede565b60006020820180359060019083906129e2908661467c565b63ffffffff1681526020810191909152604001600020541492915050565b60006001600160e01b0319821663152a902d60e11b1480610db85750610db882613757565b6000818152600760205260408120546001600160a01b031680610db857604051637e27328960e01b815260048101849052602401610f01565b6000546001600160a01b031633146113e25760405163118cdaa760e01b8152336004820152602401610f01565b61150c83838360016137a7565b63ffffffff811660009081526001602052604081205480610db85760405163f6ff4fb760e01b815263ffffffff84166004820152602401610f01565b6000612ae6612ae387876138ad565b90565b90506000612af487876138cc565b9050612b0d8282612b0860208d018d61467c565b6138dc565b6040861115612bd1576000612b47612b2b60608c0160408d01614f3e565b612b3860208d018d61467c565b612b428b8b6138e6565b613931565b604051633e5ac80960e11b81529091506001600160a01b037f00000000000000000000000000000000000000000000000000000000000000001690637cb5901290612b9d9086908d906000908790600401614f5b565b600060405180830381600087803b158015612bb757600080fd5b505af1158015612bcb573d6000803e3d6000fd5b50505050505b6001600160a01b038216887f7883fa30ea56937810e36990b0bbb8d629d0cf59f68baf8431ff657cebe7eef5612c0a60208d018d61467c565b6040805163ffffffff9092168252602082018690520160405180910390a3505050505050505050565b612c3c8261186e565b6001600160a01b0316836001600160a01b031614612c8a5782612c5e8361186e565b604051634342715b60e11b81526001600160a01b03928316600482015291166024820152604401610f01565b61150c82613960565b6060806020830135612cb857604051631e4ec46b60e01b815260040160405180910390fd5b6000612d0e60208501356040860135612cd46080880188614c80565b8080601f01602080910402602001604051908101604052809392919081815260200183838082843760009201919091525061399b92505050565b9093509050600081612d21576001612d24565b60025b9050612d44612d36602087018761467c565b82610b726060890189614c80565b6004549093506001600160a01b03168015612dca5760405163043a78eb60e01b81526001600160a01b0382169063043a78eb90612d879088908890600401614f96565b602060405180830381865afa158015612da4573d6000803e3d6000fd5b505050506040513d601f19601f82011682018060405250810190612dc89190614fbb565b505b505050915091565b612dda613e14565b6000612de98460000151613a00565b602085015190915015612e0357612e038460200151613a28565b7f00000000000000000000000000000000000000000000000000000000000000006001600160a01b0316632637a450826040518060a001604052808b63ffffffff168152602001612e538c612a98565b81526020018a815260200189815260200160008960200151111515815250866040518463ffffffff1660e01b8152600401612e8f929190614fd8565b60806040518083038185885af1158015612ead573d6000803e3d6000fd5b50505050506040513d601f19601f82011682018060405250810190612ed29190615081565b979650505050505050565b6000828152600760205260408120546001600160a01b0390811690831615612f0a57612f0a818486613b0a565b6001600160a01b03811615612f4857612f276000856000806137a7565b6001600160a01b038116600090815260086020526040902080546000190190555b6001600160a01b03851615612f77576001600160a01b0385166000908152600860205260409020805460010190555b60008481526007602052604080822080546001600160a01b0319166001600160a01b0389811691821790925591518793918516917fddf252ad1be2c89b69c2b068fc378daa952ba7f163c4a11628f55a4df523b3ef91a4949350505050565b63ffffffff8216600081815260016020908152604091829020849055815192835282018390527f238399d427b947898edb290f5ff0f9109849b1c3ba196a42e35f00c50a54b98b910161145f565b6002600c540361304757604051633ee5aeb560e01b815260040160405180910390fd5b6002600c55565b600f5460ff16156113e25760405163d93c066560e01b815260040160405180910390fd5b61307a613b6e565b600f805460ff191690557f5db9ee0a495bf2e6ff9c91a7834c1ba4fdd244a5e8aa4e537bd38aeae4b073aa335b6040516001600160a01b0390911681526020016114e7565b6127106001600160601b0382168110156131055760405163dfd1fc1b60e01b8152600481018590526001600160601b038316602482015260448101829052606401610f01565b6001600160a01b03831661313657604051634b4f842960e11b81526004810185905260006024820152604401610f01565b506040805180820182526001600160a01b0393841681526001600160601b0392831660208083019182526000968752600e90529190942093519051909116600160a01b029116179055565b600080546001600160a01b038381166001600160a01b0319831681178455604051919092169283917f8be0079c531659141344cd1fd0a4f28419497f9722a3daafe3b4186f6b6457e09190a35050565b6131d961304e565b600f805460ff191660011790557f62e78cea01bee320cd4e420270b5ea74000d11b0c9f74754ebdbfc544b05a2586130a73390565b6000805b600460ff8216116132ce576000601560008360ff166004811115613238576132386141ff565b6004811115613249576132496141ff565b600481111561325a5761325a6141ff565b8152602001908152602001600020604051806040016040529081600082015481526020016001820154815250509050806000015184101580156132ac5750602081015181516132a99190614a83565b84105b156132bb575060019392505050565b50806132c6816150cb565b915050613212565b50600092915050565b610f61828260405180602001604052806000815250613b91565b6001600160a01b03821661332357604051630b61174360e31b81526001600160a01b0383166004820152602401610f01565b6001600160a01b038381166000818152600a6020908152604080832094871680845294825291829020805460ff191686151590811790915591519182527f17307eab39ab6107e8899845ad3d59bd9653f200f220920489ca2b5937696c31910160405180910390a3505050565b6001600160a01b0383163b1561223d57604051630a85bd0160e11b81526001600160a01b0384169063150b7a02906133d29088908890879087906004016150ea565b6020604051808303816000875af192505050801561340d575060408051601f3d908101601f1916820190925261340a9181019061511d565b60015b613476573d80801561343b576040519150601f19603f3d011682016040523d82523d6000602084013e613440565b606091505b50805160000361346e57604051633250574960e11b81526001600160a01b0385166004820152602401610f01565b805181602001fd5b6001600160e01b03198116630a85bd0160e11b146134b257604051633250574960e11b81526001600160a01b0385166004820152602401610f01565b505050505050565b60005b8151811015613591576134ec8282815181106134db576134db614af1565b6020026020010151604001516135c1565b8181815181106134fe576134fe614af1565b6020026020010151604001516003600084848151811061352057613520614af1565b60200260200101516000015163ffffffff1663ffffffff168152602001908152602001600020600084848151811061355a5761355a614af1565b60200260200101516020015161ffff1661ffff16815260200190815260200160002090816135889190614e7f565b506001016134bd565b507fbe4864a8e820971c0247f5992e2da559595f7bf076a21cb5928d443d2a13b674816040516118d8919061513a565b600281015161ffff8116600314610f615781604051639a6d49cd60e01b8152600401610f019190613ede565b60408051808201909152600080825260208201527f00000000000000000000000000000000000000000000000000000000000000006001600160a01b031663ddc28c586040518060a001604052808863ffffffff16815260200161365089612a98565b8152602001878152602001868152602001851515815250306040518363ffffffff1660e01b8152600401613685929190614fd8565b6040805180830381865afa1580156136a1573d6000803e3d6000fd5b505050506040513d601f19601f820116820180604052508101906120ad91906151c5565b606060006136d283613ba9565b60010190506000816001600160401b038111156136f1576136f16143bb565b6040519080825280601f01601f19166020018201604052801561371b576020820181803683370190505b5090508181016020015b600019016f181899199a1a9b1b9c1cb0b131b232b360811b600a86061a8153600a850494508461372557509392505050565b60006001600160e01b031982166380ac58cd60e01b148061378857506001600160e01b03198216635b5e139f60e01b145b80610db857506301ffc9a760e01b6001600160e01b0319831614610db8565b80806137bb57506001600160a01b03821615155b1561387d5760006137cb84612a25565b90506001600160a01b038316158015906137f75750826001600160a01b0316816001600160a01b031614155b801561380a575061380881846123ac565b155b156138335760405163a9fbf51f60e01b81526001600160a01b0384166004820152602401610f01565b811561387b5783856001600160a01b0316826001600160a01b03167f8c5be1e5ebec7d5bd14f71427d1e84f3dd0314c0f7b2291e5b200ac8c7c3b92560405160405180910390a45b505b5050600090815260096020526040902080546001600160a01b0319166001600160a01b0392909216919091179055565b60006138bc6020828486614bd0565b6138c5916151e1565b9392505050565b60006138bc604060208486614bd0565b61150c8383613c81565b60606138f58260408186614bd0565b8080601f016020809104026020016040519081016040528093929190818152602001838380828437600092019190915250929695505050505050565b6060838383604051602001613948939291906151ff565b60405160208183030381529060405290509392505050565b600061396f6000836000612edd565b90506001600160a01b038116610f6157604051637e27328960e01b815260048101839052602401610f01565b80516060901515806139cf5760408051602081018790529081018590526060016040516020818303038152906040526139f6565b848433856040516020016139e69493929190615249565b6040516020818303038152906040525b9150935093915050565b6000813414613a24576040516304fb820960e51b8152346004820152602401610f01565b5090565b60007f00000000000000000000000000000000000000000000000000000000000000006001600160a01b031663e4fe1d946040518163ffffffff1660e01b8152600401602060405180830381865afa158015613a88573d6000803e3d6000fd5b505050506040513d601f19601f82011682018060405250810190613aac919061527d565b90506001600160a01b038116613ad5576040516329b99a9560e11b815260040160405180910390fd5b610f616001600160a01b038216337f000000000000000000000000000000000000000000000000000000000000000085613ce6565b613b15838383613d40565b61150c576001600160a01b038316613b4357604051637e27328960e01b815260048101829052602401610f01565b60405163177e802f60e01b81526001600160a01b038316600482015260248101829052604401610f01565b600f5460ff166113e257604051638dfc202b60e01b815260040160405180910390fd5b613b9b8383613c81565b61150c336000858585613390565b60008072184f03e93ff9f4daa797ed6e38ed64bf6a1f0160401b8310613be85772184f03e93ff9f4daa797ed6e38ed64bf6a1f0160401b830492506040015b6d04ee2d6d415b85acef81000000008310613c14576d04ee2d6d415b85acef8100000000830492506020015b662386f26fc100008310613c3257662386f26fc10000830492506010015b6305f5e1008310613c4a576305f5e100830492506008015b6127108310613c5e57612710830492506004015b60648310613c70576064830492506002015b600a8310610db85760010192915050565b6001600160a01b038216613cab57604051633250574960e11b815260006004820152602401610f01565b6000613cb983836000612edd565b90506001600160a01b0381161561150c576040516339e3563760e11b815260006004820152602401610f01565b604080516001600160a01b0385811660248301528416604482015260648082018490528251808303909101815260849091019091526020810180516001600160e01b03166323b872dd60e01b1790526111af908590613da3565b60006001600160a01b0383161580159061194a5750826001600160a01b0316846001600160a01b03161480613d7a5750613d7a84846123ac565b8061194a5750506000908152600960205260409020546001600160a01b03908116911614919050565b600080602060008451602086016000885af180613dc6576040513d6000823e3d81fd5b50506000513d91508115613dde578060011415613deb565b6001600160a01b0384163b155b156111af57604051635274afe760e01b81526001600160a01b0385166004820152602401610f01565b60405180606001604052806000801916815260200160006001600160401b03168152602001613e56604051806040016040528060008152602001600081525090565b905290565b6001600160e01b03198116811461292a57600080fd5b600060208284031215613e8357600080fd5b81356138c581613e5b565b60005b83811015613ea9578181015183820152602001613e91565b50506000910152565b60008151808452613eca816020860160208601613e8e565b601f01601f19169290920160200192915050565b6020815260006138c56020830184613eb2565b600060208284031215613f0357600080fd5b5035919050565b6001600160a01b038116811461292a57600080fd5b600060208284031215613f3157600080fd5b81356138c581613f0a565b60008060408385031215613f4f57600080fd5b8235613f5a81613f0a565b946020939093013593505050565b600060608284031215613f7a57600080fd5b50919050565b60008083601f840112613f9257600080fd5b5081356001600160401b03811115613fa957600080fd5b60208301915083602082850101111561123557600080fd5b600080600080600080600060e0888a031215613fdc57600080fd5b613fe68989613f68565b96506060880135955060808801356001600160401b038082111561400957600080fd5b6140158b838c01613f80565b909750955060a08a0135915061402a82613f0a565b90935060c0890135908082111561404057600080fd5b5061404d8a828b01613f80565b989b979a50959850939692959293505050565b600060c08284031215613f7a57600080fd5b6000806000838503608081121561408857600080fd5b84356001600160401b0381111561409e57600080fd5b6140aa87828801614060565b9450506040601f19820112156140bf57600080fd5b5060208401915060608401356140d481613f0a565b809150509250925092565b6000608082019050825182526001600160401b036020840151166020830152604083015161411a604084018280518252602090810151910152565b5092915050565b60008060006060848603121561413657600080fd5b833561414181613f0a565b9250602084013561415181613f0a565b929592945050506040919091013590565b6000806040838503121561417557600080fd5b50508035926020909101359150565b80356005811061419357600080fd5b919050565b6000602082840312156141aa57600080fd5b6138c582614184565b803563ffffffff8116811461419357600080fd5b600080604083850312156141da57600080fd5b613f5a836141b3565b600080604083850312156141f657600080fd5b613f5a83614184565b634e487b7160e01b600052602160045260246000fd5b6005811061423357634e487b7160e01b600052602160045260246000fd5b9052565b60208101610db88284614215565b803561ffff8116811461419357600080fd5b6000806040838503121561426a57600080fd5b614273836141b3565b915061428160208401614245565b90509250929050565b6000806020838503121561429d57600080fd5b82356001600160401b038111156142b357600080fd5b6142bf85828601613f80565b90969095509350505050565b6000806000606084860312156142e057600080fd5b8335925060208401356142f281613f0a565b915060408401356001600160601b03811681146140d457600080fd5b60008060008060a0858703121561432457600080fd5b61432e8686613f68565b935060608501356001600160401b0381111561434957600080fd5b61435587828801613f80565b909450925050608085013561436981613f0a565b939692955090935050565b801515811461292a57600080fd5b6000806040838503121561439557600080fd5b82356143a081613f0a565b915060208301356143b081614374565b809150509250929050565b634e487b7160e01b600052604160045260246000fd5b604080519081016001600160401b03811182821017156143f3576143f36143bb565b60405290565b604051606081016001600160401b03811182821017156143f3576143f36143bb565b604051601f8201601f191681016001600160401b0381118282101715614443576144436143bb565b604052919050565b60006001600160401b03821115614464576144646143bb565b5060051b60200190565b6000806040838503121561448157600080fd5b823561448c81613f0a565b91506020838101356001600160401b038111156144a857600080fd5b8401601f810186136144b957600080fd5b80356144cc6144c78261444b565b61441b565b81815260059190911b820183019083810190888311156144eb57600080fd5b928401925b82841015614509578335825292840192908401906144f0565b80955050505050509250929050565b60006001600160401b03821115614531576145316143bb565b50601f01601f191660200190565b600061454d6144c784614518565b905082815283838301111561456157600080fd5b828260208301376000602084830101529392505050565b600082601f83011261458957600080fd5b6138c58383356020850161453f565b600080600080608085870312156145ae57600080fd5b84356145b981613f0a565b935060208501356145c981613f0a565b92506040850135915060608501356001600160401b038111156145eb57600080fd5b6145f787828801614578565b91505092959194509250565b60008083601f84011261461557600080fd5b5081356001600160401b0381111561462c57600080fd5b6020830191508360208260051b850101111561123557600080fd5b6000806020838503121561465a57600080fd5b82356001600160401b0381111561467057600080fd5b6142bf85828601614603565b60006020828403121561468e57600080fd5b6138c5826141b3565b600080600080606085870312156146ad57600080fd5b6146b6856141b3565b93506146c460208601614245565b925060408501356001600160401b038111156146df57600080fd5b6146eb87828801613f80565b95989497509550505050565b6000806040838503121561470a57600080fd5b82356001600160401b0381111561472057600080fd5b61472c85828601614060565b92505060208301356143b081614374565b815181526020808301519082015260408101610db8565b6000806040838503121561476757600080fd5b823561477281613f0a565b915060208301356143b081613f0a565b6000806040838503121561479557600080fd5b8235915061428160208401614184565b6000602082840312156147b757600080fd5b81356001600160401b038111156147cd57600080fd5b8201601f810184136147de57600080fd5b61194a8482356020840161453f565b6000606082840312156147ff57600080fd5b6138c58383613f68565b600181811c9082168061481d57607f821691505b602082108103613f7a57634e487b7160e01b600052602260045260246000fd5b60006040828403121561484f57600080fd5b6148576143d1565b82358152602083013560208201528091505092915050565b634e487b7160e01b600052601160045260246000fd5b8082028115828204841417610db857610db861486f565b6000826148b957634e487b7160e01b600052601260045260246000fd5b500490565b81810381811115610db857610db861486f565b604081016148df8285614215565b8260208301529392505050565b601f82111561150c576000816000526020600020601f850160051c810160208610156149155750805b601f850160051c820191505b818110156134b257828155600101614921565b6001600160401b0383111561494b5761494b6143bb565b61495f836149598354614809565b836148ec565b6000601f841160018114614993576000851561497b5750838201355b600019600387901b1c1916600186901b17835561223d565b600083815260209020601f19861690835b828110156149c457868501358255602094850194600190920191016149a4565b50868210156149e15760001960f88860031b161c19848701351681555b505060018560011b0183555050505050565b6000602080835260008454614a0781614809565b8060208701526040600180841660008114614a295760018114614a4557614a75565b60ff19851660408a0152604084151560051b8a01019550614a75565b89600052602060002060005b85811015614a6c5781548b8201860152908301908801614a51565b8a016040019650505b509398975050505050505050565b80820180821115610db857610db861486f565b60208082526022908201527f4578636565647320636861696e2773206d617820696e697469616c20737570706040820152616c7960f01b606082015260800190565b600060018201614aea57614aea61486f565b5060010190565b634e487b7160e01b600052603260045260246000fd5b6000614b156144c78461444b565b80848252602080830192508560051b850136811115614b3357600080fd5b855b81811015614bc45780356001600160401b0380821115614b555760008081fd5b818901915060608236031215614b6b5760008081fd5b614b736143f9565b614b7c836141b3565b8152614b89868401614245565b8682015260408084013583811115614ba15760008081fd5b614bad36828701614578565b918301919091525087525050938201938201614b35565b50919695505050505050565b60008085851115614be057600080fd5b83861115614bed57600080fd5b5050820193919092039150565b60008451614c0c818460208901613e8e565b8201838582376000930192835250909392505050565b81835281816020850137506000828201602090810191909152601f909101601f19169091010190565b60208152600061194a602083018486614c22565b6000823561013e19833603018112614c7657600080fd5b9190910192915050565b6000808335601e19843603018112614c9757600080fd5b8301803591506001600160401b03821115614cb157600080fd5b60200191503681900382131561123557600080fd5b6001600160401b038116811461292a57600080fd5b63ffffffff614ce9896141b3565b1681526020880135602082015260006040890135614d0681614cc6565b6001600160401b03811660408401525087606083015260e06080830152614d3160e083018789614c22565b6001600160a01b03861660a084015282810360c0840152614d53818587614c22565b9a9950505050505050505050565b600060208284031215614d7357600080fd5b81516001600160401b03811115614d8957600080fd5b8201601f81018413614d9a57600080fd5b8051614da86144c782614518565b818152856020838501011115614dbd57600080fd5b6120ad826020830160208601613e8e565b60008154614ddb81614809565b60018281168015614df35760018114614e0857614e37565b60ff1984168752821515830287019450614e37565b8560005260208060002060005b85811015614e2e5781548a820152908401908201614e15565b50505082870194505b5050505092915050565b6000614e4d8286614dce565b6963756c742d626561722d60b01b81528451614e7081600a840160208901613e8e565b612ed2600a8284010186614dce565b81516001600160401b03811115614e9857614e986143bb565b614eac81614ea68454614809565b846148ec565b602080601f831160018114614ee15760008415614ec95750858301515b600019600386901b1c1916600185901b1785556134b2565b600085815260208120601f198616915b82811015614f1057888601518255948401946001909101908401614ef1565b5085821015614f2e5787850151600019600388901b60f8161c191681555b5050505050600190811b01905550565b600060208284031215614f5057600080fd5b81356138c581614cc6565b60018060a01b038516815283602082015261ffff83166040820152608060608201526000614f8c6080830184613eb2565b9695505050505050565b604081526000614fa96040830185613eb2565b82810360208401526120ad8185613eb2565b600060208284031215614fcd57600080fd5b81516138c581614374565b6040815263ffffffff8351166040820152602083015160608201526000604084015160a0608084015261500e60e0840182613eb2565b90506060850151603f198483030160a085015261502b8282613eb2565b60809690960151151560c08501525050506001600160a01b039190911660209091015290565b60006040828403121561506357600080fd5b61506b6143d1565b9050815181526020820151602082015292915050565b60006080828403121561509357600080fd5b61509b6143f9565b8251815260208301516150ad81614cc6565b60208201526150bf8460408501615051565b60408201529392505050565b600060ff821660ff81036150e1576150e161486f565b60010192915050565b6001600160a01b0385811682528416602082015260408101839052608060608201819052600090614f8c90830184613eb2565b60006020828403121561512f57600080fd5b81516138c581613e5b565b600060208083018184528085518083526040925060408601915060408160051b87010184880160005b838110156151b757888303603f190185528151805163ffffffff1684528781015161ffff168885015286015160608785018190526151a381860183613eb2565b968901969450505090860190600101615163565b509098975050505050505050565b6000604082840312156151d757600080fd5b6138c58383615051565b80356020831015610db857600019602084900360031b1b1692915050565b60c084901b6001600160c01b031916815260e083901b6001600160e01b0319166008820152815160009061523a81600c850160208701613e8e565b91909101600c01949350505050565b8481528360208201528260408201526000825161526d816060850160208701613e8e565b9190910160600195945050505050565b60006020828403121561528f57600080fd5b81516138c581613f0a56fea26469706673582212203512794dd9d77a3644d193f0fef452ec9fb1eedfe5ae89bdd5f1d2a431d7bbd364736f6c63430008160033",
  "devdoc": {
    "errors": {
      "ERC2981InvalidDefaultRoyalty(uint256,uint256)": [
        {
          "details": "The default royalty set is invalid (eg. (numerator / denominator) >= 1)."
        }
      ],
      "ERC2981InvalidDefaultRoyaltyReceiver(address)": [
        {
          "details": "The default royalty receiver is invalid."
        }
      ],
      "ERC2981InvalidTokenRoyalty(uint256,uint256,uint256)": [
        {
          "details": "The royalty set for an specific `tokenId` is invalid (eg. (numerator / denominator) >= 1)."
        }
      ],
      "ERC2981InvalidTokenRoyaltyReceiver(uint256,address)": [
        {
          "details": "The royalty receiver for `tokenId` is invalid."
        }
      ],
      "ERC721IncorrectOwner(address,uint256,address)": [
        {
          "details": "Indicates an error related to the ownership over a particular token. Used in transfers.",
          "params": {
            "owner": "Address of the current owner of a token.",
            "sender": "Address whose tokens are being transferred.",
            "tokenId": "Identifier number of a token."
          }
        }
      ],
      "ERC721InsufficientApproval(address,uint256)": [
        {
          "details": "Indicates a failure with the `operator`s approval. Used in transfers.",
          "params": {
            "operator": "Address that may be allowed to operate on tokens without being their owner.",
            "tokenId": "Identifier number of a token."
          }
        }
      ],
      "ERC721InvalidApprover(address)": [
        {
          "details": "Indicates a failure with the `approver` of a token to be approved. Used in approvals.",
          "params": {
            "approver": "Address initiating an approval operation."
          }
        }
      ],
      "ERC721InvalidOperator(address)": [
        {
          "details": "Indicates a failure with the `operator` to be approved. Used in approvals.",
          "params": {
            "operator": "Address that may be allowed to operate on tokens without being their owner."
          }
        }
      ],
      "ERC721InvalidOwner(address)": [
        {
          "details": "Indicates that an address can't be an owner. For example, `address(0)` is a forbidden owner in ERC-20. Used in balance queries.",
          "params": {
            "owner": "Address of the current owner of a token."
          }
        }
      ],
      "ERC721InvalidReceiver(address)": [
        {
          "details": "Indicates a failure with the token `receiver`. Used in transfers.",
          "params": {
            "receiver": "Address to which tokens are being transferred."
          }
        }
      ],
      "ERC721InvalidSender(address)": [
        {
          "details": "Indicates a failure with the token `sender`. Used in transfers.",
          "params": {
            "sender": "Address whose tokens are being transferred."
          }
        }
      ],
      "ERC721NonexistentToken(uint256)": [
        {
          "details": "Indicates a `tokenId` whose `owner` is the zero address.",
          "params": {
            "tokenId": "Identifier number of a token."
          }
        }
      ],
      "EnforcedPause()": [
        {
          "details": "The operation failed because the contract is paused."
        }
      ],
      "ExpectedPause()": [
        {
          "details": "The operation failed because the contract is not paused."
        }
      ],
      "OwnableInvalidOwner(address)": [
        {
          "details": "The owner is not a valid owner account. (eg. `address(0)`)"
        }
      ],
      "OwnableUnauthorizedAccount(address)": [
        {
          "details": "The caller account is not authorized to perform an operation."
        }
      ],
      "ReentrancyGuardReentrantCall()": [
        {
          "details": "Unauthorized reentrant call."
        }
      ],
      "SafeERC20FailedOperation(address)": [
        {
          "details": "An operation with an ERC-20 token failed."
        }
      ]
    },
    "events": {
      "Approval(address,address,uint256)": {
        "details": "Emitted when `owner` enables `approved` to manage the `tokenId` token."
      },
      "ApprovalForAll(address,address,bool)": {
        "details": "Emitted when `owner` enables or disables (`approved`) `operator` to manage all of its assets."
      },
      "Paused(address)": {
        "details": "Emitted when the pause is triggered by `account`."
      },
      "PreCrimeSet(address)": {
        "details": "Emitted when the preCrime contract address is set.",
        "params": {
          "preCrimeAddress": "The address of the preCrime contract."
        }
      },
      "Transfer(address,address,uint256)": {
        "details": "Emitted when `tokenId` token is transferred from `from` to `to`."
      },
      "Unpaused(address)": {
        "details": "Emitted when the pause is lifted by `account`."
      }
    },
    "kind": "dev",
    "methods": {
      "allowInitializePath((uint32,bytes32,uint64))": {
        "details": "This indicates to the endpoint that the OApp has enabled msgs for this particular path to be received.This defaults to assuming if a peer has been set, its initialized. Can be overridden by the OApp if there is other logic to determine this.",
        "params": {
          "origin": "The origin information containing the source endpoint and sender address."
        },
        "returns": {
          "_0": "Whether the path has been initialized."
        }
      },
      "approvalRequired()": {
        "details": "In the case of ONFT where the contract IS the token, approval is NOT required.",
        "returns": {
          "_0": "requiresApproval Needs approval of the underlying token implementation."
        }
      },
      "approve(address,uint256)": {
        "details": "See {IERC721-approve}."
      },
      "balanceOf(address)": {
        "details": "See {IERC721-balanceOf}."
      },
      "combineOptions(uint32,uint16,bytes)": {
        "details": "If there is an enforced lzReceive option: - {gasLimit: 200k, msg.value: 1 ether} AND a caller supplies a lzReceive option: {gasLimit: 100k, msg.value: 0.5 ether} - The resulting options will be {gasLimit: 300k, msg.value: 1.5 ether} when the message is executed on the remote lzReceive() function.This presence of duplicated options is handled off-chain in the verifier/executor.",
        "params": {
          "_eid": "The endpoint ID.",
          "_extraOptions": "Additional options passed by the caller.",
          "_msgType": "The OAPP message type."
        },
        "returns": {
          "_0": "options The combination of caller specified options AND enforced options."
        }
      },
      "getApproved(uint256)": {
        "details": "See {IERC721-getApproved}."
      },
      "isApprovedForAll(address,address)": {
        "details": "See {IERC721-isApprovedForAll}."
      },
      "isComposeMsgSender((uint32,bytes32,uint64),bytes,address)": {
        "details": "_origin The origin information containing the source endpoint and sender address.  - srcEid: The source chain endpoint ID.  - sender: The sender address on the src chain.  - nonce: The nonce of the message._message The lzReceive payload.Applications can optionally choose to implement separate composeMsg senders that are NOT the bridging layer.The default sender IS the OAppReceiver implementer.",
        "params": {
          "_sender": "The sender address."
        },
        "returns": {
          "_0": "isSender Is a valid sender."
        }
      },
      "isPeer(uint32,bytes32)": {
        "details": "Check if the peer is considered 'trusted' by the OApp.Enables OAppPreCrimeSimulator to check whether a potential Inbound Packet is from a trusted source.",
        "params": {
          "_eid": "The endpoint ID to check.",
          "_peer": "The peer to check."
        },
        "returns": {
          "_0": "Whether the peer passed is considered 'trusted' by the OApp."
        }
      },
      "lzReceive((uint32,bytes32,uint64),bytes32,bytes,address,bytes)": {
        "details": "Entry point for receiving messages or packets from the endpoint.Entry point for receiving msg/packet from the LayerZero endpoint.",
        "params": {
          "_executor": "The address of the executor for the received message.",
          "_extraData": "Additional arbitrary data provided by the corresponding executor.",
          "_guid": "The unique identifier for the received LayerZero message.",
          "_message": "The payload of the received message.",
          "_origin": "The origin information containing the source endpoint and sender address.  - srcEid: The source chain endpoint ID.  - sender: The sender address on the src chain.  - nonce: The nonce of the message."
        }
      },
      "lzReceiveAndRevert(((uint32,bytes32,uint64),uint32,address,bytes32,uint256,address,bytes,bytes)[])": {
        "details": "Interface for pre-crime simulations. Always reverts at the end with the simulation results.WARNING: MUST revert at the end with the simulation results.Gives the preCrime implementation the ability to mock sending packets to the lzReceive function, WITHOUT actually executing them.",
        "params": {
          "_packets": "An array of InboundPacket objects representing received packets to be delivered."
        }
      },
      "lzReceiveSimulate((uint32,bytes32,uint64),bytes32,bytes,address,bytes)": {
        "details": "Is effectively an internal function because msg.sender must be address(this). Allows resetting the call stack for 'internal' calls.",
        "params": {
          "_executor": "The executor address for the packet.",
          "_extraData": "Additional data for the packet.",
          "_guid": "The unique identifier of the packet.",
          "_message": "The message payload of the packet.",
          "_origin": "The origin information containing the source endpoint and sender address.  - srcEid: The source chain endpoint ID.  - sender: The sender address on the src chain.  - nonce: The nonce of the message."
        }
      },
      "name()": {
        "details": "See {IERC721Metadata-name}."
      },
      "nextNonce(uint32,bytes32)": {
        "details": "_srcEid The source endpoint ID._sender The sender address.The path nonce starts from 1. If 0 is returned it means that there is NO nonce ordered enforcement.Is required by the off-chain executor to determine the OApp expects msg execution is ordered.This is also enforced by the OApp.By default this is NOT enabled. ie. nextNonce is hardcoded to return 0.",
        "returns": {
          "nonce": "The next nonce."
        }
      },
      "oApp()": {
        "details": "Retrieves the address of the OApp contract.The simulator contract is the base contract for the OApp by default.If the simulator is a separate contract, override this function.",
        "returns": {
          "_0": "The address of the OApp contract."
        }
      },
      "oAppVersion()": {
        "returns": {
          "receiverVersion": "The version of the OAppReceiver.sol implementation.",
          "senderVersion": "The version of the OAppSender.sol implementation."
        }
      },
      "onftVersion()": {
        "details": "version: Indicates a cross-chain compatible msg encoding with other ONFTs.If a new feature is added to the ONFT cross-chain msg encoding, the version will be incremented.ie. localONFT version(x,1) CAN send messages to remoteONFT version(x,1)",
        "returns": {
          "interfaceId": "The interface ID (0x23e18da6).",
          "version": "The version."
        }
      },
      "owner()": {
        "details": "Returns the address of the current owner."
      },
      "ownerOf(uint256)": {
        "details": "See {IERC721-ownerOf}."
      },
      "paused()": {
        "details": "Returns true if the contract is paused, and false otherwise."
      },
      "quoteSend((uint32,bytes32,uint256,bytes,bytes,bytes),bool)": {
        "details": "MessagingFee: LayerZero msg fee  - nativeFee: The native fee.  - lzTokenFee: The lzToken fee.",
        "params": {
          "_payInLzToken": "Flag indicating whether the caller is paying in the LZ token.",
          "_sendParam": "The parameters for the send() operation."
        },
        "returns": {
          "msgFee": "fee The calculated LayerZero messaging fee from the send() operation."
        }
      },
      "renounceOwnership()": {
        "details": "Leaves the contract without owner. It will not be possible to call `onlyOwner` functions. Can only be called by the current owner. NOTE: Renouncing ownership will leave the contract without an owner, thereby disabling any functionality that is only available to the owner."
      },
      "royaltyInfo(uint256,uint256)": {
        "details": "Returns how much royalty is owed and to whom, based on a sale price that may be denominated in any unit of exchange. The royalty amount is denominated and should be paid in that same unit of exchange. NOTE: ERC-2981 allows setting the royalty to 100% of the price. In that case all the price would be sent to the royalty receiver and 0 tokens to the seller. Contracts dealing with royalty should consider empty transfers."
      },
      "safeTransferFrom(address,address,uint256)": {
        "details": "See {IERC721-safeTransferFrom}."
      },
      "safeTransferFrom(address,address,uint256,bytes)": {
        "details": "See {IERC721-safeTransferFrom}."
      },
      "send((uint32,bytes32,uint256,bytes,bytes,bytes),(uint256,uint256),address)": {
        "details": "MessagingReceipt: LayerZero msg receipt  - guid: The unique identifier for the sent message.  - nonce: The nonce of the sent message.  - fee: The LayerZero fee incurred for the message.",
        "params": {
          "_fee": "The fee information supplied by the caller.      - nativeFee: The native fee.      - lzTokenFee: The lzToken fee.",
          "_refundAddress": "The address to receive any excess funds from fees etc. on the src.",
          "_sendParam": "The parameters for the send operation."
        },
        "returns": {
          "msgReceipt": "receipt The LayerZero messaging receipt from the send() operation."
        }
      },
      "setApprovalForAll(address,bool)": {
        "details": "See {IERC721-setApprovalForAll}."
      },
      "setDelegate(address)": {
        "details": "Only the owner/admin of the OApp can call this function.Provides the ability for a delegate to set configs, on behalf of the OApp, directly on the Endpoint contract.",
        "params": {
          "_delegate": "The address of the delegate to be set."
        }
      },
      "setEnforcedOptions((uint32,uint16,bytes)[])": {
        "details": "Sets the enforced options for specific endpoint and message type combinations.Only the owner/admin of the OApp can call this function.Provides a way for the OApp to enforce things like paying for PreCrime, AND/OR minimum dst lzReceive gas amounts etc.These enforced options can vary as the potential options/execution on the remote may differ as per the msgType. eg. Amount of lzReceive() gas necessary to deliver a lzCompose() message adds overhead you dont want to pay if you are only making a standard LayerZero message ie. lzReceive() WITHOUT sendCompose().",
        "params": {
          "_enforcedOptions": "An array of EnforcedOptionParam structures specifying enforced options."
        }
      },
      "setMsgInspector(address)": {
        "details": "This is an optional contract that can be used to inspect both 'message' and 'options'.Set it to address(0) to disable it, or set it to a contract address to enable it.",
        "params": {
          "_msgInspector": "The address of the message inspector."
        }
      },
      "setPeer(uint32,bytes32)": {
        "details": "Only the owner/admin of the OApp can call this function.Indicates that the peer is trusted to send LayerZero messages to this OApp.Set this to bytes32(0) to remove the peer address.Peer is a bytes32 to accommodate non-evm chains.",
        "params": {
          "_eid": "The endpoint ID.",
          "_peer": "The address of the peer to be associated with the corresponding endpoint."
        }
      },
      "setPreCrime(address)": {
        "details": "Sets the preCrime contract address.",
        "params": {
          "_preCrime": "The address of the preCrime contract."
        }
      },
      "symbol()": {
        "details": "See {IERC721Metadata-symbol}."
      },
      "tokenURI(uint256)": {
        "details": "See {IERC721Metadata-tokenURI}."
      },
      "transferFrom(address,address,uint256)": {
        "details": "See {IERC721-transferFrom}."
      },
      "transferOwnership(address)": {
        "details": "Transfers ownership of the contract to a new account (`newOwner`). Can only be called by the current owner."
      }
    },
    "version": 1
  },
  "userdoc": {
    "kind": "user",
    "methods": {
      "allowInitializePath((uint32,bytes32,uint64))": {
        "notice": "Checks if the path initialization is allowed based on the provided origin."
      },
      "approvalRequired()": {
        "notice": "Indicates whether the ONFT721 contract requires approval of the 'token()' to send."
      },
      "combineOptions(uint32,uint16,bytes)": {
        "notice": "Combines options for a given endpoint and message type."
      },
      "endpoint()": {
        "notice": "Retrieves the LayerZero endpoint associated with the OApp."
      },
      "isComposeMsgSender((uint32,bytes32,uint64),bytes,address)": {
        "notice": "Indicates whether an address is an approved composeMsg sender to the Endpoint."
      },
      "nextNonce(uint32,bytes32)": {
        "notice": "Retrieves the next nonce for a given source endpoint and sender address."
      },
      "oAppVersion()": {
        "notice": "Retrieves the OApp version information."
      },
      "onftVersion()": {
        "notice": "Retrieves interfaceID and the version of the ONFT."
      },
      "peers(uint32)": {
        "notice": "Retrieves the peer (OApp) associated with a corresponding endpoint."
      },
      "quoteSend((uint32,bytes32,uint256,bytes,bytes,bytes),bool)": {
        "notice": "Provides a quote for the send() operation."
      },
      "send((uint32,bytes32,uint256,bytes,bytes,bytes),(uint256,uint256),address)": {
        "notice": "Executes the send() operation."
      },
      "setDelegate(address)": {
        "notice": "Sets the delegate address for the OApp."
      },
      "setMsgInspector(address)": {
        "notice": "Sets the message inspector address for the OFT."
      },
      "setPeer(uint32,bytes32)": {
        "notice": "Sets the peer address (OApp instance) for a corresponding endpoint."
      },
      "token()": {
        "notice": "Retrieves the address of the underlying ERC721 implementation (ie. this contract)."
      }
    },
    "version": 1
  },
  "storageLayout": {
    "storage": [
      {
        "astId": 3534,
        "contract": "contracts/CultBearsV2Base.sol:CultBearsV2Base",
        "label": "_owner",
        "offset": 0,
        "slot": "0",
        "type": "t_address"
      },
      {
        "astId": 1390,
        "contract": "contracts/CultBearsV2Base.sol:CultBearsV2Base",
        "label": "peers",
        "offset": 0,
        "slot": "1",
        "type": "t_mapping(t_uint32,t_bytes32)"
      },
      {
        "astId": 2166,
        "contract": "contracts/CultBearsV2Base.sol:CultBearsV2Base",
        "label": "preCrime",
        "offset": 0,
        "slot": "2",
        "type": "t_address"
      },
      {
        "astId": 2006,
        "contract": "contracts/CultBearsV2Base.sol:CultBearsV2Base",
        "label": "enforcedOptions",
        "offset": 0,
        "slot": "3",
        "type": "t_mapping(t_uint32,t_mapping(t_uint16,t_bytes_storage))"
      },
      {
        "astId": 2929,
        "contract": "contracts/CultBearsV2Base.sol:CultBearsV2Base",
        "label": "msgInspector",
        "offset": 0,
        "slot": "4",
        "type": "t_address"
      },
      {
        "astId": 4442,
        "contract": "contracts/CultBearsV2Base.sol:CultBearsV2Base",
        "label": "_name",
        "offset": 0,
        "slot": "5",
        "type": "t_string_storage"
      },
      {
        "astId": 4444,
        "contract": "contracts/CultBearsV2Base.sol:CultBearsV2Base",
        "label": "_symbol",
        "offset": 0,
        "slot": "6",
        "type": "t_string_storage"
      },
      {
        "astId": 4448,
        "contract": "contracts/CultBearsV2Base.sol:CultBearsV2Base",
        "label": "_owners",
        "offset": 0,
        "slot": "7",
        "type": "t_mapping(t_uint256,t_address)"
      },
      {
        "astId": 4452,
        "contract": "contracts/CultBearsV2Base.sol:CultBearsV2Base",
        "label": "_balances",
        "offset": 0,
        "slot": "8",
        "type": "t_mapping(t_address,t_uint256)"
      },
      {
        "astId": 4456,
        "contract": "contracts/CultBearsV2Base.sol:CultBearsV2Base",
        "label": "_tokenApprovals",
        "offset": 0,
        "slot": "9",
        "type": "t_mapping(t_uint256,t_address)"
      },
      {
        "astId": 4462,
        "contract": "contracts/CultBearsV2Base.sol:CultBearsV2Base",
        "label": "_operatorApprovals",
        "offset": 0,
        "slot": "10",
        "type": "t_mapping(t_address,t_mapping(t_address,t_bool))"
      },
      {
        "astId": 2766,
        "contract": "contracts/CultBearsV2Base.sol:CultBearsV2Base",
        "label": "baseTokenURI",
        "offset": 0,
        "slot": "11",
        "type": "t_string_storage"
      },
      {
        "astId": 6364,
        "contract": "contracts/CultBearsV2Base.sol:CultBearsV2Base",
        "label": "_status",
        "offset": 0,
        "slot": "12",
        "type": "t_uint256"
      },
      {
        "astId": 5626,
        "contract": "contracts/CultBearsV2Base.sol:CultBearsV2Base",
        "label": "_defaultRoyaltyInfo",
        "offset": 0,
        "slot": "13",
        "type": "t_struct(RoyaltyInfo)5623_storage"
      },
      {
        "astId": 5631,
        "contract": "contracts/CultBearsV2Base.sol:CultBearsV2Base",
        "label": "_tokenRoyaltyInfo",
        "offset": 0,
        "slot": "14",
        "type": "t_mapping(t_uint256,t_struct(RoyaltyInfo)5623_storage)"
      },
      {
        "astId": 6245,
        "contract": "contracts/CultBearsV2Base.sol:CultBearsV2Base",
        "label": "_paused",
        "offset": 0,
        "slot": "15",
        "type": "t_bool"
      },
      {
        "astId": 11840,
        "contract": "contracts/CultBearsV2Base.sol:CultBearsV2Base",
        "label": "baseURI",
        "offset": 0,
        "slot": "16",
        "type": "t_string_storage"
      },
      {
        "astId": 11843,
        "contract": "contracts/CultBearsV2Base.sol:CultBearsV2Base",
        "label": "fileExtension",
        "offset": 0,
        "slot": "17",
        "type": "t_string_storage"
      },
      {
        "astId": 11848,
        "contract": "contracts/CultBearsV2Base.sol:CultBearsV2Base",
        "label": "treasuryWallet",
        "offset": 0,
        "slot": "18",
        "type": "t_address"
      },
      {
        "astId": 11851,
        "contract": "contracts/CultBearsV2Base.sol:CultBearsV2Base",
        "label": "isPublicMintAllowed",
        "offset": 20,
        "slot": "18",
        "type": "t_bool"
      },
      {
        "astId": 11856,
        "contract": "contracts/CultBearsV2Base.sol:CultBearsV2Base",
        "label": "privateSalePrice",
        "offset": 0,
        "slot": "19",
        "type": "t_mapping(t_enum(TokenRarityType)11833,t_uint256)"
      },
      {
        "astId": 11861,
        "contract": "contracts/CultBearsV2Base.sol:CultBearsV2Base",
        "label": "publicSalePrice",
        "offset": 0,
        "slot": "20",
        "type": "t_mapping(t_enum(TokenRarityType)11833,t_uint256)"
      },
      {
        "astId": 11867,
        "contract": "contracts/CultBearsV2Base.sol:CultBearsV2Base",
        "label": "tokenIDRange",
        "offset": 0,
        "slot": "21",
        "type": "t_mapping(t_enum(TokenRarityType)11833,t_struct(TokenIDRange)11838_storage)"
      },
      {
        "astId": 11872,
        "contract": "contracts/CultBearsV2Base.sol:CultBearsV2Base",
        "label": "tokenIDCounter",
        "offset": 0,
        "slot": "22",
        "type": "t_mapping(t_enum(TokenRarityType)11833,t_uint16)"
      },
      {
        "astId": 11876,
        "contract": "contracts/CultBearsV2Base.sol:CultBearsV2Base",
        "label": "ogWhitelist",
        "offset": 0,
        "slot": "23",
        "type": "t_mapping(t_address,t_bool)"
      },
      {
        "astId": 11880,
        "contract": "contracts/CultBearsV2Base.sol:CultBearsV2Base",
        "label": "bearlistedWhitelist",
        "offset": 0,
        "slot": "24",
        "type": "t_mapping(t_address,t_bool)"
      },
      {
        "astId": 11884,
        "contract": "contracts/CultBearsV2Base.sol:CultBearsV2Base",
        "label": "airdropped",
        "offset": 0,
        "slot": "25",
        "type": "t_mapping(t_uint256,t_bool)"
      },
      {
        "astId": 11888,
        "contract": "contracts/CultBearsV2Base.sol:CultBearsV2Base",
        "label": "mintedTokens",
        "offset": 0,
        "slot": "26",
        "type": "t_mapping(t_uint256,t_bool)"
      },
      {
        "astId": 11890,
        "contract": "contracts/CultBearsV2Base.sol:CultBearsV2Base",
        "label": "totalMintedTokens",
        "offset": 0,
        "slot": "27",
        "type": "t_uint256"
      }
    ],
    "types": {
      "t_address": {
        "encoding": "inplace",
        "label": "address",
        "numberOfBytes": "20"
      },
      "t_bool": {
        "encoding": "inplace",
        "label": "bool",
        "numberOfBytes": "1"
      },
      "t_bytes32": {
        "encoding": "inplace",
        "label": "bytes32",
        "numberOfBytes": "32"
      },
      "t_bytes_storage": {
        "encoding": "bytes",
        "label": "bytes",
        "numberOfBytes": "32"
      },
      "t_enum(TokenRarityType)11833": {
        "encoding": "inplace",
        "label": "enum CultBearsV2Base.TokenRarityType",
        "numberOfBytes": "1"
      },
      "t_mapping(t_address,t_bool)": {
        "encoding": "mapping",
        "key": "t_address",
        "label": "mapping(address => bool)",
        "numberOfBytes": "32",
        "value": "t_bool"
      },
      "t_mapping(t_address,t_mapping(t_address,t_bool))": {
        "encoding": "mapping",
        "key": "t_address",
        "label": "mapping(address => mapping(address => bool))",
        "numberOfBytes": "32",
        "value": "t_mapping(t_address,t_bool)"
      },
      "t_mapping(t_address,t_uint256)": {
        "encoding": "mapping",
        "key": "t_address",
        "label": "mapping(address => uint256)",
        "numberOfBytes": "32",
        "value": "t_uint256"
      },
      "t_mapping(t_enum(TokenRarityType)11833,t_struct(TokenIDRange)11838_storage)": {
        "encoding": "mapping",
        "key": "t_enum(TokenRarityType)11833",
        "label": "mapping(enum CultBearsV2Base.TokenRarityType => struct CultBearsV2Base.TokenIDRange)",
        "numberOfBytes": "32",
        "value": "t_struct(TokenIDRange)11838_storage"
      },
      "t_mapping(t_enum(TokenRarityType)11833,t_uint16)": {
        "encoding": "mapping",
        "key": "t_enum(TokenRarityType)11833",
        "label": "mapping(enum CultBearsV2Base.TokenRarityType => uint16)",
        "numberOfBytes": "32",
        "value": "t_uint16"
      },
      "t_mapping(t_enum(TokenRarityType)11833,t_uint256)": {
        "encoding": "mapping",
        "key": "t_enum(TokenRarityType)11833",
        "label": "mapping(enum CultBearsV2Base.TokenRarityType => uint256)",
        "numberOfBytes": "32",
        "value": "t_uint256"
      },
      "t_mapping(t_uint16,t_bytes_storage)": {
        "encoding": "mapping",
        "key": "t_uint16",
        "label": "mapping(uint16 => bytes)",
        "numberOfBytes": "32",
        "value": "t_bytes_storage"
      },
      "t_mapping(t_uint256,t_address)": {
        "encoding": "mapping",
        "key": "t_uint256",
        "label": "mapping(uint256 => address)",
        "numberOfBytes": "32",
        "value": "t_address"
      },
      "t_mapping(t_uint256,t_bool)": {
        "encoding": "mapping",
        "key": "t_uint256",
        "label": "mapping(uint256 => bool)",
        "numberOfBytes": "32",
        "value": "t_bool"
      },
      "t_mapping(t_uint256,t_struct(RoyaltyInfo)5623_storage)": {
        "encoding": "mapping",
        "key": "t_uint256",
        "label": "mapping(uint256 => struct ERC2981.RoyaltyInfo)",
        "numberOfBytes": "32",
        "value": "t_struct(RoyaltyInfo)5623_storage"
      },
      "t_mapping(t_uint32,t_bytes32)": {
        "encoding": "mapping",
        "key": "t_uint32",
        "label": "mapping(uint32 => bytes32)",
        "numberOfBytes": "32",
        "value": "t_bytes32"
      },
      "t_mapping(t_uint32,t_mapping(t_uint16,t_bytes_storage))": {
        "encoding": "mapping",
        "key": "t_uint32",
        "label": "mapping(uint32 => mapping(uint16 => bytes))",
        "numberOfBytes": "32",
        "value": "t_mapping(t_uint16,t_bytes_storage)"
      },
      "t_string_storage": {
        "encoding": "bytes",
        "label": "string",
        "numberOfBytes": "32"
      },
      "t_struct(RoyaltyInfo)5623_storage": {
        "encoding": "inplace",
        "label": "struct ERC2981.RoyaltyInfo",
        "members": [
          {
            "astId": 5620,
            "contract": "contracts/CultBearsV2Base.sol:CultBearsV2Base",
            "label": "receiver",
            "offset": 0,
            "slot": "0",
            "type": "t_address"
          },
          {
            "astId": 5622,
            "contract": "contracts/CultBearsV2Base.sol:CultBearsV2Base",
            "label": "royaltyFraction",
            "offset": 20,
            "slot": "0",
            "type": "t_uint96"
          }
        ],
        "numberOfBytes": "32"
      },
      "t_struct(TokenIDRange)11838_storage": {
        "encoding": "inplace",
        "label": "struct CultBearsV2Base.TokenIDRange",
        "members": [
          {
            "astId": 11835,
            "contract": "contracts/CultBearsV2Base.sol:CultBearsV2Base",
            "label": "start",
            "offset": 0,
            "slot": "0",
            "type": "t_uint256"
          },
          {
            "astId": 11837,
            "contract": "contracts/CultBearsV2Base.sol:CultBearsV2Base",
            "label": "amount",
            "offset": 0,
            "slot": "1",
            "type": "t_uint256"
          }
        ],
        "numberOfBytes": "64"
      },
      "t_uint16": {
        "encoding": "inplace",
        "label": "uint16",
        "numberOfBytes": "2"
      },
      "t_uint256": {
        "encoding": "inplace",
        "label": "uint256",
        "numberOfBytes": "32"
      },
      "t_uint32": {
        "encoding": "inplace",
        "label": "uint32",
        "numberOfBytes": "4"
      },
      "t_uint96": {
        "encoding": "inplace",
        "label": "uint96",
        "numberOfBytes": "12"
      }
    }
  }
}